{
	"contracts/Voting.sol": {
		"Voting": {
			"abi": [
				{
					"inputs": [
						{
							"internalType": "string",
							"name": "name",
							"type": "string"
						}
					],
					"name": "addCandidate",
					"outputs": [],
					"stateMutability": "nonpayable",
					"type": "function"
				},
				{
					"inputs": [
						{
							"internalType": "uint256",
							"name": "",
							"type": "uint256"
						}
					],
					"name": "candidates",
					"outputs": [
						{
							"internalType": "string",
							"name": "",
							"type": "string"
						}
					],
					"stateMutability": "view",
					"type": "function"
				},
				{
					"inputs": [],
					"name": "getCandidates",
					"outputs": [
						{
							"internalType": "string[]",
							"name": "",
							"type": "string[]"
						}
					],
					"stateMutability": "view",
					"type": "function"
				},
				{
					"inputs": [
						{
							"internalType": "string",
							"name": "name",
							"type": "string"
						}
					],
					"name": "getVotes",
					"outputs": [
						{
							"internalType": "uint256",
							"name": "",
							"type": "uint256"
						}
					],
					"stateMutability": "view",
					"type": "function"
				},
				{
					"inputs": [
						{
							"internalType": "string",
							"name": "name",
							"type": "string"
						}
					],
					"name": "vote",
					"outputs": [],
					"stateMutability": "nonpayable",
					"type": "function"
				},
				{
					"inputs": [
						{
							"internalType": "string",
							"name": "",
							"type": "string"
						}
					],
					"name": "votes",
					"outputs": [
						{
							"internalType": "uint256",
							"name": "",
							"type": "uint256"
						}
					],
					"stateMutability": "view",
					"type": "function"
				}
			],
			"devdoc": {
				"kind": "dev",
				"methods": {},
				"version": 1
			},
			"evm": {
				"assembly": "    /* \"contracts/Voting.sol\":70:1003  contract Voting {... */\n  mstore(0x40, 0x80)\n    /* \"contracts/Voting.sol\":93:149  string[] public candidates = ['Alex', 'Bob', 'Samantha'] */\n  mload(0x40)\n  dup1\n  0x60\n  add\n  0x40\n  mstore\n  dup1\n  mload(0x40)\n  dup1\n  0x40\n  add\n  0x40\n  mstore\n  dup1\n  0x04\n  dup2\n  mstore\n  0x20\n  add\n  0x416c657800000000000000000000000000000000000000000000000000000000\n  dup2\n  mstore\n  pop\n  dup2\n  mstore\n  0x20\n  add\n  mload(0x40)\n  dup1\n  0x40\n  add\n  0x40\n  mstore\n  dup1\n  0x03\n  dup2\n  mstore\n  0x20\n  add\n  0x426f620000000000000000000000000000000000000000000000000000000000\n  dup2\n  mstore\n  pop\n  dup2\n  mstore\n  0x20\n  add\n  mload(0x40)\n  dup1\n  0x40\n  add\n  0x40\n  mstore\n  dup1\n  0x08\n  dup2\n  mstore\n  0x20\n  add\n  0x53616d616e746861000000000000000000000000000000000000000000000000\n  dup2\n  mstore\n  pop\n  dup2\n  mstore\n  pop\n  0x00\n  swap1\n  0x03\n  tag_1\n  swap3\n  swap2\n  swap1\n  tag_2\n  jump\t// in\ntag_1:\n  pop\n    /* \"contracts/Voting.sol\":70:1003  contract Voting {... */\n  callvalue\n  dup1\n  iszero\n  tag_3\n  jumpi\n  revert(0x00, 0x00)\ntag_3:\n  pop\n  jump(tag_4)\ntag_2:\n  dup3\n  dup1\n  sload\n  dup3\n  dup3\n  sstore\n  swap1\n  0x00\n  mstore\n  keccak256(0x00, 0x20)\n  swap1\n  dup2\n  add\n  swap3\n  dup3\n  iszero\n  tag_5\n  jumpi\n  swap2\n  0x20\n  mul\n  dup3\n  add\ntag_6:\n  dup3\n  dup2\n  gt\n  iszero\n  tag_7\n  jumpi\n  dup3\n  mload\n  dup3\n  swap1\n  dup2\n  tag_8\n  swap2\n  swap1\n  tag_9\n  jump\t// in\ntag_8:\n  pop\n  swap2\n  0x20\n  add\n  swap2\n  swap1\n  0x01\n  add\n  swap1\n  jump(tag_6)\ntag_7:\ntag_5:\n  pop\n  swap1\n  pop\n  tag_10\n  swap2\n  swap1\n  tag_11\n  jump\t// in\ntag_10:\n  pop\n  swap1\n  jump\t// out\ntag_11:\ntag_12:\n  dup1\n  dup3\n  gt\n  iszero\n  tag_13\n  jumpi\n  0x00\n  dup2\n  dup2\n  tag_14\n  swap2\n  swap1\n  tag_15\n  jump\t// in\ntag_14:\n  pop\n  0x01\n  add\n  jump(tag_12)\ntag_13:\n  pop\n  swap1\n  jump\t// out\ntag_15:\n  pop\n  dup1\n  sload\n  tag_16\n  swap1\n  tag_17\n  jump\t// in\ntag_16:\n  0x00\n  dup3\n  sstore\n  dup1\n  0x1f\n  lt\n  tag_19\n  jumpi\n  pop\n  jump(tag_18)\ntag_19:\n  0x1f\n  add\n  0x20\n  swap1\n  div\n  swap1\n  0x00\n  mstore\n  keccak256(0x00, 0x20)\n  swap1\n  dup2\n  add\n  swap1\n  tag_20\n  swap2\n  swap1\n  tag_21\n  jump\t// in\ntag_20:\ntag_18:\n  pop\n  jump\t// out\ntag_21:\ntag_22:\n  dup1\n  dup3\n  gt\n  iszero\n  tag_23\n  jumpi\n  0x00\n  dup2\n  0x00\n  swap1\n  sstore\n  pop\n  0x01\n  add\n  jump(tag_22)\ntag_23:\n  pop\n  swap1\n  jump\t// out\n    /* \"#utility.yul\":7:106   */\ntag_24:\n    /* \"#utility.yul\":59:65   */\n  0x00\n    /* \"#utility.yul\":93:98   */\n  dup2\n    /* \"#utility.yul\":87:99   */\n  mload\n    /* \"#utility.yul\":77:99   */\n  swap1\n  pop\n    /* \"#utility.yul\":7:106   */\n  swap2\n  swap1\n  pop\n  jump\t// out\n    /* \"#utility.yul\":112:292   */\ntag_25:\n    /* \"#utility.yul\":160:237   */\n  0x4e487b7100000000000000000000000000000000000000000000000000000000\n    /* \"#utility.yul\":157:158   */\n  0x00\n    /* \"#utility.yul\":150:238   */\n  mstore\n    /* \"#utility.yul\":257:261   */\n  0x41\n    /* \"#utility.yul\":254:255   */\n  0x04\n    /* \"#utility.yul\":247:262   */\n  mstore\n    /* \"#utility.yul\":281:285   */\n  0x24\n    /* \"#utility.yul\":278:279   */\n  0x00\n    /* \"#utility.yul\":271:286   */\n  revert\n    /* \"#utility.yul\":298:478   */\ntag_26:\n    /* \"#utility.yul\":346:423   */\n  0x4e487b7100000000000000000000000000000000000000000000000000000000\n    /* \"#utility.yul\":343:344   */\n  0x00\n    /* \"#utility.yul\":336:424   */\n  mstore\n    /* \"#utility.yul\":443:447   */\n  0x22\n    /* \"#utility.yul\":440:441   */\n  0x04\n    /* \"#utility.yul\":433:448   */\n  mstore\n    /* \"#utility.yul\":467:471   */\n  0x24\n    /* \"#utility.yul\":464:465   */\n  0x00\n    /* \"#utility.yul\":457:472   */\n  revert\n    /* \"#utility.yul\":484:804   */\ntag_17:\n    /* \"#utility.yul\":528:534   */\n  0x00\n    /* \"#utility.yul\":565:566   */\n  0x02\n    /* \"#utility.yul\":559:563   */\n  dup3\n    /* \"#utility.yul\":555:567   */\n  div\n    /* \"#utility.yul\":545:567   */\n  swap1\n  pop\n    /* \"#utility.yul\":612:613   */\n  0x01\n    /* \"#utility.yul\":606:610   */\n  dup3\n    /* \"#utility.yul\":602:614   */\n  and\n    /* \"#utility.yul\":633:651   */\n  dup1\n    /* \"#utility.yul\":623:704   */\n  tag_48\n  jumpi\n    /* \"#utility.yul\":689:693   */\n  0x7f\n    /* \"#utility.yul\":681:687   */\n  dup3\n    /* \"#utility.yul\":677:694   */\n  and\n    /* \"#utility.yul\":667:694   */\n  swap2\n  pop\n    /* \"#utility.yul\":623:704   */\ntag_48:\n    /* \"#utility.yul\":751:753   */\n  0x20\n    /* \"#utility.yul\":743:749   */\n  dup3\n    /* \"#utility.yul\":740:754   */\n  lt\n    /* \"#utility.yul\":720:738   */\n  dup2\n    /* \"#utility.yul\":717:755   */\n  sub\n    /* \"#utility.yul\":714:798   */\n  tag_49\n  jumpi\n    /* \"#utility.yul\":770:788   */\n  tag_50\n  tag_26\n  jump\t// in\ntag_50:\n    /* \"#utility.yul\":714:798   */\ntag_49:\n    /* \"#utility.yul\":535:804   */\n  pop\n    /* \"#utility.yul\":484:804   */\n  swap2\n  swap1\n  pop\n  jump\t// out\n    /* \"#utility.yul\":810:951   */\ntag_27:\n    /* \"#utility.yul\":859:863   */\n  0x00\n    /* \"#utility.yul\":882:885   */\n  dup2\n    /* \"#utility.yul\":874:885   */\n  swap1\n  pop\n    /* \"#utility.yul\":905:908   */\n  dup2\n    /* \"#utility.yul\":902:903   */\n  0x00\n    /* \"#utility.yul\":895:909   */\n  mstore\n    /* \"#utility.yul\":939:943   */\n  0x20\n    /* \"#utility.yul\":936:937   */\n  0x00\n    /* \"#utility.yul\":926:944   */\n  keccak256\n    /* \"#utility.yul\":918:944   */\n  swap1\n  pop\n    /* \"#utility.yul\":810:951   */\n  swap2\n  swap1\n  pop\n  jump\t// out\n    /* \"#utility.yul\":957:1050   */\ntag_28:\n    /* \"#utility.yul\":994:1000   */\n  0x00\n    /* \"#utility.yul\":1041:1043   */\n  0x20\n    /* \"#utility.yul\":1036:1038   */\n  0x1f\n    /* \"#utility.yul\":1029:1034   */\n  dup4\n    /* \"#utility.yul\":1025:1039   */\n  add\n    /* \"#utility.yul\":1021:1044   */\n  div\n    /* \"#utility.yul\":1011:1044   */\n  swap1\n  pop\n    /* \"#utility.yul\":957:1050   */\n  swap2\n  swap1\n  pop\n  jump\t// out\n    /* \"#utility.yul\":1056:1163   */\ntag_29:\n    /* \"#utility.yul\":1100:1108   */\n  0x00\n    /* \"#utility.yul\":1150:1155   */\n  dup3\n    /* \"#utility.yul\":1144:1148   */\n  dup3\n    /* \"#utility.yul\":1140:1156   */\n  shl\n    /* \"#utility.yul\":1119:1156   */\n  swap1\n  pop\n    /* \"#utility.yul\":1056:1163   */\n  swap3\n  swap2\n  pop\n  pop\n  jump\t// out\n    /* \"#utility.yul\":1169:1562   */\ntag_30:\n    /* \"#utility.yul\":1238:1244   */\n  0x00\n    /* \"#utility.yul\":1288:1289   */\n  0x08\n    /* \"#utility.yul\":1276:1286   */\n  dup4\n    /* \"#utility.yul\":1272:1290   */\n  mul\n    /* \"#utility.yul\":1311:1408   */\n  tag_55\n    /* \"#utility.yul\":1341:1407   */\n  0xffffffffffffffffffffffffffffffffffffffffffffffffffffffffffffffff\n    /* \"#utility.yul\":1330:1339   */\n  dup3\n    /* \"#utility.yul\":1311:1408   */\n  tag_29\n  jump\t// in\ntag_55:\n    /* \"#utility.yul\":1429:1468   */\n  tag_56\n    /* \"#utility.yul\":1459:1467   */\n  dup7\n    /* \"#utility.yul\":1448:1457   */\n  dup4\n    /* \"#utility.yul\":1429:1468   */\n  tag_29\n  jump\t// in\ntag_56:\n    /* \"#utility.yul\":1417:1468   */\n  swap6\n  pop\n    /* \"#utility.yul\":1501:1505   */\n  dup1\n    /* \"#utility.yul\":1497:1506   */\n  not\n    /* \"#utility.yul\":1490:1495   */\n  dup5\n    /* \"#utility.yul\":1486:1507   */\n  and\n    /* \"#utility.yul\":1477:1507   */\n  swap4\n  pop\n    /* \"#utility.yul\":1550:1554   */\n  dup1\n    /* \"#utility.yul\":1540:1548   */\n  dup7\n    /* \"#utility.yul\":1536:1555   */\n  and\n    /* \"#utility.yul\":1529:1534   */\n  dup5\n    /* \"#utility.yul\":1526:1556   */\n  or\n    /* \"#utility.yul\":1516:1556   */\n  swap3\n  pop\n    /* \"#utility.yul\":1245:1562   */\n  pop\n  pop\n    /* \"#utility.yul\":1169:1562   */\n  swap4\n  swap3\n  pop\n  pop\n  pop\n  jump\t// out\n    /* \"#utility.yul\":1568:1645   */\ntag_31:\n    /* \"#utility.yul\":1605:1612   */\n  0x00\n    /* \"#utility.yul\":1634:1639   */\n  dup2\n    /* \"#utility.yul\":1623:1639   */\n  swap1\n  pop\n    /* \"#utility.yul\":1568:1645   */\n  swap2\n  swap1\n  pop\n  jump\t// out\n    /* \"#utility.yul\":1651:1711   */\ntag_32:\n    /* \"#utility.yul\":1679:1682   */\n  0x00\n    /* \"#utility.yul\":1700:1705   */\n  dup2\n    /* \"#utility.yul\":1693:1705   */\n  swap1\n  pop\n    /* \"#utility.yul\":1651:1711   */\n  swap2\n  swap1\n  pop\n  jump\t// out\n    /* \"#utility.yul\":1717:1859   */\ntag_33:\n    /* \"#utility.yul\":1767:1776   */\n  0x00\n    /* \"#utility.yul\":1800:1853   */\n  tag_60\n    /* \"#utility.yul\":1818:1852   */\n  tag_61\n    /* \"#utility.yul\":1827:1851   */\n  tag_62\n    /* \"#utility.yul\":1845:1850   */\n  dup5\n    /* \"#utility.yul\":1827:1851   */\n  tag_31\n  jump\t// in\ntag_62:\n    /* \"#utility.yul\":1818:1852   */\n  tag_32\n  jump\t// in\ntag_61:\n    /* \"#utility.yul\":1800:1853   */\n  tag_31\n  jump\t// in\ntag_60:\n    /* \"#utility.yul\":1787:1853   */\n  swap1\n  pop\n    /* \"#utility.yul\":1717:1859   */\n  swap2\n  swap1\n  pop\n  jump\t// out\n    /* \"#utility.yul\":1865:1940   */\ntag_34:\n    /* \"#utility.yul\":1908:1911   */\n  0x00\n    /* \"#utility.yul\":1929:1934   */\n  dup2\n    /* \"#utility.yul\":1922:1934   */\n  swap1\n  pop\n    /* \"#utility.yul\":1865:1940   */\n  swap2\n  swap1\n  pop\n  jump\t// out\n    /* \"#utility.yul\":1946:2215   */\ntag_35:\n    /* \"#utility.yul\":2056:2095   */\n  tag_65\n    /* \"#utility.yul\":2087:2094   */\n  dup4\n    /* \"#utility.yul\":2056:2095   */\n  tag_33\n  jump\t// in\ntag_65:\n    /* \"#utility.yul\":2117:2208   */\n  tag_66\n    /* \"#utility.yul\":2166:2207   */\n  tag_67\n    /* \"#utility.yul\":2190:2206   */\n  dup3\n    /* \"#utility.yul\":2166:2207   */\n  tag_34\n  jump\t// in\ntag_67:\n    /* \"#utility.yul\":2158:2164   */\n  dup5\n    /* \"#utility.yul\":2151:2155   */\n  dup5\n    /* \"#utility.yul\":2145:2156   */\n  sload\n    /* \"#utility.yul\":2117:2208   */\n  tag_30\n  jump\t// in\ntag_66:\n    /* \"#utility.yul\":2111:2115   */\n  dup3\n    /* \"#utility.yul\":2104:2209   */\n  sstore\n    /* \"#utility.yul\":2022:2215   */\n  pop\n    /* \"#utility.yul\":1946:2215   */\n  pop\n  pop\n  pop\n  jump\t// out\n    /* \"#utility.yul\":2221:2294   */\ntag_36:\n    /* \"#utility.yul\":2266:2269   */\n  0x00\n    /* \"#utility.yul\":2287:2288   */\n  0x00\n    /* \"#utility.yul\":2280:2288   */\n  swap1\n  pop\n    /* \"#utility.yul\":2221:2294   */\n  swap1\n  jump\t// out\n    /* \"#utility.yul\":2300:2489   */\ntag_37:\n    /* \"#utility.yul\":2377:2409   */\n  tag_70\n  tag_36\n  jump\t// in\ntag_70:\n    /* \"#utility.yul\":2418:2483   */\n  tag_71\n    /* \"#utility.yul\":2476:2482   */\n  dup2\n    /* \"#utility.yul\":2468:2474   */\n  dup5\n    /* \"#utility.yul\":2462:2466   */\n  dup5\n    /* \"#utility.yul\":2418:2483   */\n  tag_35\n  jump\t// in\ntag_71:\n    /* \"#utility.yul\":2353:2489   */\n  pop\n    /* \"#utility.yul\":2300:2489   */\n  pop\n  pop\n  jump\t// out\n    /* \"#utility.yul\":2495:2681   */\ntag_38:\n    /* \"#utility.yul\":2555:2675   */\ntag_73:\n    /* \"#utility.yul\":2572:2575   */\n  dup2\n    /* \"#utility.yul\":2565:2570   */\n  dup2\n    /* \"#utility.yul\":2562:2576   */\n  lt\n    /* \"#utility.yul\":2555:2675   */\n  iszero\n  tag_75\n  jumpi\n    /* \"#utility.yul\":2626:2665   */\n  tag_76\n    /* \"#utility.yul\":2663:2664   */\n  0x00\n    /* \"#utility.yul\":2656:2661   */\n  dup3\n    /* \"#utility.yul\":2626:2665   */\n  tag_37\n  jump\t// in\ntag_76:\n    /* \"#utility.yul\":2599:2600   */\n  0x01\n    /* \"#utility.yul\":2592:2597   */\n  dup2\n    /* \"#utility.yul\":2588:2601   */\n  add\n    /* \"#utility.yul\":2579:2601   */\n  swap1\n  pop\n    /* \"#utility.yul\":2555:2675   */\n  jump(tag_73)\ntag_75:\n    /* \"#utility.yul\":2495:2681   */\n  pop\n  pop\n  jump\t// out\n    /* \"#utility.yul\":2687:3230   */\ntag_39:\n    /* \"#utility.yul\":2788:2790   */\n  0x1f\n    /* \"#utility.yul\":2783:2786   */\n  dup3\n    /* \"#utility.yul\":2780:2791   */\n  gt\n    /* \"#utility.yul\":2777:3223   */\n  iszero\n  tag_78\n  jumpi\n    /* \"#utility.yul\":2822:2860   */\n  tag_79\n    /* \"#utility.yul\":2854:2859   */\n  dup2\n    /* \"#utility.yul\":2822:2860   */\n  tag_27\n  jump\t// in\ntag_79:\n    /* \"#utility.yul\":2906:2935   */\n  tag_80\n    /* \"#utility.yul\":2924:2934   */\n  dup5\n    /* \"#utility.yul\":2906:2935   */\n  tag_28\n  jump\t// in\ntag_80:\n    /* \"#utility.yul\":2896:2904   */\n  dup2\n    /* \"#utility.yul\":2892:2936   */\n  add\n    /* \"#utility.yul\":3089:3091   */\n  0x20\n    /* \"#utility.yul\":3077:3087   */\n  dup6\n    /* \"#utility.yul\":3074:3092   */\n  lt\n    /* \"#utility.yul\":3071:3120   */\n  iszero\n  tag_81\n  jumpi\n    /* \"#utility.yul\":3110:3118   */\n  dup2\n    /* \"#utility.yul\":3095:3118   */\n  swap1\n  pop\n    /* \"#utility.yul\":3071:3120   */\ntag_81:\n    /* \"#utility.yul\":3133:3213   */\n  tag_82\n    /* \"#utility.yul\":3189:3211   */\n  tag_83\n    /* \"#utility.yul\":3207:3210   */\n  dup6\n    /* \"#utility.yul\":3189:3211   */\n  tag_28\n  jump\t// in\ntag_83:\n    /* \"#utility.yul\":3179:3187   */\n  dup4\n    /* \"#utility.yul\":3175:3212   */\n  add\n    /* \"#utility.yul\":3162:3173   */\n  dup3\n    /* \"#utility.yul\":3133:3213   */\n  tag_38\n  jump\t// in\ntag_82:\n    /* \"#utility.yul\":2792:3223   */\n  pop\n  pop\n    /* \"#utility.yul\":2777:3223   */\ntag_78:\n    /* \"#utility.yul\":2687:3230   */\n  pop\n  pop\n  pop\n  jump\t// out\n    /* \"#utility.yul\":3236:3353   */\ntag_40:\n    /* \"#utility.yul\":3290:3298   */\n  0x00\n    /* \"#utility.yul\":3340:3345   */\n  dup3\n    /* \"#utility.yul\":3334:3338   */\n  dup3\n    /* \"#utility.yul\":3330:3346   */\n  shr\n    /* \"#utility.yul\":3309:3346   */\n  swap1\n  pop\n    /* \"#utility.yul\":3236:3353   */\n  swap3\n  swap2\n  pop\n  pop\n  jump\t// out\n    /* \"#utility.yul\":3359:3528   */\ntag_41:\n    /* \"#utility.yul\":3403:3409   */\n  0x00\n    /* \"#utility.yul\":3436:3487   */\n  tag_86\n    /* \"#utility.yul\":3484:3485   */\n  0x00\n    /* \"#utility.yul\":3480:3486   */\n  not\n    /* \"#utility.yul\":3472:3477   */\n  dup5\n    /* \"#utility.yul\":3469:3470   */\n  0x08\n    /* \"#utility.yul\":3465:3478   */\n  mul\n    /* \"#utility.yul\":3436:3487   */\n  tag_40\n  jump\t// in\ntag_86:\n    /* \"#utility.yul\":3432:3488   */\n  not\n    /* \"#utility.yul\":3517:3521   */\n  dup1\n    /* \"#utility.yul\":3511:3515   */\n  dup4\n    /* \"#utility.yul\":3507:3522   */\n  and\n    /* \"#utility.yul\":3497:3522   */\n  swap2\n  pop\n    /* \"#utility.yul\":3410:3528   */\n  pop\n    /* \"#utility.yul\":3359:3528   */\n  swap3\n  swap2\n  pop\n  pop\n  jump\t// out\n    /* \"#utility.yul\":3533:3828   */\ntag_42:\n    /* \"#utility.yul\":3609:3613   */\n  0x00\n    /* \"#utility.yul\":3755:3784   */\n  tag_88\n    /* \"#utility.yul\":3780:3783   */\n  dup4\n    /* \"#utility.yul\":3774:3778   */\n  dup4\n    /* \"#utility.yul\":3755:3784   */\n  tag_41\n  jump\t// in\ntag_88:\n    /* \"#utility.yul\":3747:3784   */\n  swap2\n  pop\n    /* \"#utility.yul\":3817:3820   */\n  dup3\n    /* \"#utility.yul\":3814:3815   */\n  0x02\n    /* \"#utility.yul\":3810:3821   */\n  mul\n    /* \"#utility.yul\":3804:3808   */\n  dup3\n    /* \"#utility.yul\":3801:3822   */\n  or\n    /* \"#utility.yul\":3793:3822   */\n  swap1\n  pop\n    /* \"#utility.yul\":3533:3828   */\n  swap3\n  swap2\n  pop\n  pop\n  jump\t// out\n    /* \"#utility.yul\":3833:5228   */\ntag_9:\n    /* \"#utility.yul\":3950:3987   */\n  tag_90\n    /* \"#utility.yul\":3983:3986   */\n  dup3\n    /* \"#utility.yul\":3950:3987   */\n  tag_24\n  jump\t// in\ntag_90:\n    /* \"#utility.yul\":4052:4070   */\n  0xffffffffffffffff\n    /* \"#utility.yul\":4044:4050   */\n  dup2\n    /* \"#utility.yul\":4041:4071   */\n  gt\n    /* \"#utility.yul\":4038:4094   */\n  iszero\n  tag_91\n  jumpi\n    /* \"#utility.yul\":4074:4092   */\n  tag_92\n  tag_25\n  jump\t// in\ntag_92:\n    /* \"#utility.yul\":4038:4094   */\ntag_91:\n    /* \"#utility.yul\":4118:4156   */\n  tag_93\n    /* \"#utility.yul\":4150:4154   */\n  dup3\n    /* \"#utility.yul\":4144:4155   */\n  sload\n    /* \"#utility.yul\":4118:4156   */\n  tag_17\n  jump\t// in\ntag_93:\n    /* \"#utility.yul\":4203:4270   */\n  tag_94\n    /* \"#utility.yul\":4263:4269   */\n  dup3\n    /* \"#utility.yul\":4255:4261   */\n  dup3\n    /* \"#utility.yul\":4249:4253   */\n  dup6\n    /* \"#utility.yul\":4203:4270   */\n  tag_39\n  jump\t// in\ntag_94:\n    /* \"#utility.yul\":4297:4298   */\n  0x00\n    /* \"#utility.yul\":4321:4325   */\n  0x20\n    /* \"#utility.yul\":4308:4325   */\n  swap1\n  pop\n    /* \"#utility.yul\":4353:4355   */\n  0x1f\n    /* \"#utility.yul\":4345:4351   */\n  dup4\n    /* \"#utility.yul\":4342:4356   */\n  gt\n    /* \"#utility.yul\":4370:4371   */\n  0x01\n    /* \"#utility.yul\":4365:4983   */\n  dup2\n  eq\n  tag_96\n  jumpi\n    /* \"#utility.yul\":5027:5028   */\n  0x00\n    /* \"#utility.yul\":5044:5050   */\n  dup5\n    /* \"#utility.yul\":5041:5118   */\n  iszero\n  tag_97\n  jumpi\n    /* \"#utility.yul\":5093:5102   */\n  dup3\n    /* \"#utility.yul\":5088:5091   */\n  dup8\n    /* \"#utility.yul\":5084:5103   */\n  add\n    /* \"#utility.yul\":5078:5104   */\n  mload\n    /* \"#utility.yul\":5069:5104   */\n  swap1\n  pop\n    /* \"#utility.yul\":5041:5118   */\ntag_97:\n    /* \"#utility.yul\":5144:5211   */\n  tag_98\n    /* \"#utility.yul\":5204:5210   */\n  dup6\n    /* \"#utility.yul\":5197:5202   */\n  dup3\n    /* \"#utility.yul\":5144:5211   */\n  tag_42\n  jump\t// in\ntag_98:\n    /* \"#utility.yul\":5138:5142   */\n  dup7\n    /* \"#utility.yul\":5131:5212   */\n  sstore\n    /* \"#utility.yul\":5000:5222   */\n  pop\n    /* \"#utility.yul\":4335:5222   */\n  jump(tag_95)\n    /* \"#utility.yul\":4365:4983   */\ntag_96:\n    /* \"#utility.yul\":4417:4421   */\n  0x1f\n    /* \"#utility.yul\":4413:4422   */\n  not\n    /* \"#utility.yul\":4405:4411   */\n  dup5\n    /* \"#utility.yul\":4401:4423   */\n  and\n    /* \"#utility.yul\":4451:4488   */\n  tag_99\n    /* \"#utility.yul\":4483:4487   */\n  dup7\n    /* \"#utility.yul\":4451:4488   */\n  tag_27\n  jump\t// in\ntag_99:\n    /* \"#utility.yul\":4510:4511   */\n  0x00\n    /* \"#utility.yul\":4524:4732   */\ntag_100:\n    /* \"#utility.yul\":4538:4545   */\n  dup3\n    /* \"#utility.yul\":4535:4536   */\n  dup2\n    /* \"#utility.yul\":4532:4546   */\n  lt\n    /* \"#utility.yul\":4524:4732   */\n  iszero\n  tag_102\n  jumpi\n    /* \"#utility.yul\":4617:4626   */\n  dup5\n    /* \"#utility.yul\":4612:4615   */\n  dup10\n    /* \"#utility.yul\":4608:4627   */\n  add\n    /* \"#utility.yul\":4602:4628   */\n  mload\n    /* \"#utility.yul\":4594:4600   */\n  dup3\n    /* \"#utility.yul\":4587:4629   */\n  sstore\n    /* \"#utility.yul\":4668:4669   */\n  0x01\n    /* \"#utility.yul\":4660:4666   */\n  dup3\n    /* \"#utility.yul\":4656:4670   */\n  add\n    /* \"#utility.yul\":4646:4670   */\n  swap2\n  pop\n    /* \"#utility.yul\":4715:4717   */\n  0x20\n    /* \"#utility.yul\":4704:4713   */\n  dup6\n    /* \"#utility.yul\":4700:4718   */\n  add\n    /* \"#utility.yul\":4687:4718   */\n  swap5\n  pop\n    /* \"#utility.yul\":4561:4565   */\n  0x20\n    /* \"#utility.yul\":4558:4559   */\n  dup2\n    /* \"#utility.yul\":4554:4566   */\n  add\n    /* \"#utility.yul\":4549:4566   */\n  swap1\n  pop\n    /* \"#utility.yul\":4524:4732   */\n  jump(tag_100)\ntag_102:\n    /* \"#utility.yul\":4760:4766   */\n  dup7\n    /* \"#utility.yul\":4751:4758   */\n  dup4\n    /* \"#utility.yul\":4748:4767   */\n  lt\n    /* \"#utility.yul\":4745:4924   */\n  iszero\n  tag_103\n  jumpi\n    /* \"#utility.yul\":4818:4827   */\n  dup5\n    /* \"#utility.yul\":4813:4816   */\n  dup10\n    /* \"#utility.yul\":4809:4828   */\n  add\n    /* \"#utility.yul\":4803:4829   */\n  mload\n    /* \"#utility.yul\":4861:4909   */\n  tag_104\n    /* \"#utility.yul\":4903:4907   */\n  0x1f\n    /* \"#utility.yul\":4895:4901   */\n  dup10\n    /* \"#utility.yul\":4891:4908   */\n  and\n    /* \"#utility.yul\":4880:4889   */\n  dup3\n    /* \"#utility.yul\":4861:4909   */\n  tag_41\n  jump\t// in\ntag_104:\n    /* \"#utility.yul\":4853:4859   */\n  dup4\n    /* \"#utility.yul\":4846:4910   */\n  sstore\n    /* \"#utility.yul\":4768:4924   */\n  pop\n    /* \"#utility.yul\":4745:4924   */\ntag_103:\n    /* \"#utility.yul\":4970:4971   */\n  0x01\n    /* \"#utility.yul\":4966:4967   */\n  0x02\n    /* \"#utility.yul\":4958:4964   */\n  dup9\n    /* \"#utility.yul\":4954:4968   */\n  mul\n    /* \"#utility.yul\":4950:4972   */\n  add\n    /* \"#utility.yul\":4944:4948   */\n  dup9\n    /* \"#utility.yul\":4937:4973   */\n  sstore\n    /* \"#utility.yul\":4372:4983   */\n  pop\n  pop\n  pop\n    /* \"#utility.yul\":4335:5222   */\ntag_95:\n  pop\n    /* \"#utility.yul\":3925:5228   */\n  pop\n  pop\n  pop\n    /* \"#utility.yul\":3833:5228   */\n  pop\n  pop\n  jump\t// out\n    /* \"contracts/Voting.sol\":70:1003  contract Voting {... */\ntag_4:\n  dataSize(sub_0)\n  dup1\n  dataOffset(sub_0)\n  0x00\n  codecopy\n  0x00\n  return\nstop\n\nsub_0: assembly {\n        /* \"contracts/Voting.sol\":70:1003  contract Voting {... */\n      mstore(0x40, 0x80)\n      callvalue\n      dup1\n      iszero\n      tag_1\n      jumpi\n      revert(0x00, 0x00)\n    tag_1:\n      pop\n      jumpi(tag_2, lt(calldatasize, 0x04))\n      shr(0xe0, calldataload(0x00))\n      dup1\n      0x06a49fce\n      eq\n      tag_3\n      jumpi\n      dup1\n      0x3477ee2e\n      eq\n      tag_4\n      jumpi\n      dup1\n      0x462e91ec\n      eq\n      tag_5\n      jumpi\n      dup1\n      0x805265e5\n      eq\n      tag_6\n      jumpi\n      dup1\n      0xb99ef1fa\n      eq\n      tag_7\n      jumpi\n      dup1\n      0xfc36e15b\n      eq\n      tag_8\n      jumpi\n    tag_2:\n      revert(0x00, 0x00)\n        /* \"contracts/Voting.sol\":793:891  function getCandidates() public view returns (string[] memory){... */\n    tag_3:\n      tag_9\n      tag_10\n      jump\t// in\n    tag_9:\n      mload(0x40)\n      tag_11\n      swap2\n      swap1\n      tag_12\n      jump\t// in\n    tag_11:\n      mload(0x40)\n      dup1\n      swap2\n      sub\n      swap1\n      return\n        /* \"contracts/Voting.sol\":93:149  string[] public candidates = ['Alex', 'Bob', 'Samantha'] */\n    tag_4:\n      tag_13\n      0x04\n      dup1\n      calldatasize\n      sub\n      dup2\n      add\n      swap1\n      tag_14\n      swap2\n      swap1\n      tag_15\n      jump\t// in\n    tag_14:\n      tag_16\n      jump\t// in\n    tag_13:\n      mload(0x40)\n      tag_17\n      swap2\n      swap1\n      tag_18\n      jump\t// in\n    tag_17:\n      mload(0x40)\n      dup1\n      swap2\n      sub\n      swap1\n      return\n        /* \"contracts/Voting.sol\":210:299  function addCandidate(string memory name) public {... */\n    tag_5:\n      tag_19\n      0x04\n      dup1\n      calldatasize\n      sub\n      dup2\n      add\n      swap1\n      tag_20\n      swap2\n      swap1\n      tag_21\n      jump\t// in\n    tag_20:\n      tag_22\n      jump\t// in\n    tag_19:\n      stop\n        /* \"contracts/Voting.sol\":897:1000  function getVotes(string memory name) view public returns(uint256){... */\n    tag_6:\n      tag_23\n      0x04\n      dup1\n      calldatasize\n      sub\n      dup2\n      add\n      swap1\n      tag_24\n      swap2\n      swap1\n      tag_21\n      jump\t// in\n    tag_24:\n      tag_25\n      jump\t// in\n    tag_23:\n      mload(0x40)\n      tag_26\n      swap2\n      swap1\n      tag_27\n      jump\t// in\n    tag_26:\n      mload(0x40)\n      dup1\n      swap2\n      sub\n      swap1\n      return\n        /* \"contracts/Voting.sol\":158:197  mapping(string => uint256) public votes */\n    tag_7:\n      tag_28\n      0x04\n      dup1\n      calldatasize\n      sub\n      dup2\n      add\n      swap1\n      tag_29\n      swap2\n      swap1\n      tag_21\n      jump\t// in\n    tag_29:\n      tag_30\n      jump\t// in\n    tag_28:\n      mload(0x40)\n      tag_31\n      swap2\n      swap1\n      tag_27\n      jump\t// in\n    tag_31:\n      mload(0x40)\n      dup1\n      swap2\n      sub\n      swap1\n      return\n        /* \"contracts/Voting.sol\":307:787  function vote(string memory name) public {... */\n    tag_8:\n      tag_32\n      0x04\n      dup1\n      calldatasize\n      sub\n      dup2\n      add\n      swap1\n      tag_33\n      swap2\n      swap1\n      tag_21\n      jump\t// in\n    tag_33:\n      tag_34\n      jump\t// in\n    tag_32:\n      stop\n        /* \"contracts/Voting.sol\":793:891  function getCandidates() public view returns (string[] memory){... */\n    tag_10:\n        /* \"contracts/Voting.sol\":839:854  string[] memory */\n      0x60\n        /* \"contracts/Voting.sol\":873:883  candidates */\n      0x00\n        /* \"contracts/Voting.sol\":866:883  return candidates */\n      dup1\n      sload\n      dup1\n      0x20\n      mul\n      0x20\n      add\n      mload(0x40)\n      swap1\n      dup2\n      add\n      0x40\n      mstore\n      dup1\n      swap3\n      swap2\n      swap1\n      dup2\n      dup2\n      mstore\n      0x20\n      add\n      0x00\n      swap1\n    tag_36:\n      dup3\n      dup3\n      lt\n      iszero\n      tag_37\n      jumpi\n      dup4\n      dup3\n      swap1\n      0x00\n      mstore\n      keccak256(0x00, 0x20)\n      add\n      dup1\n      sload\n      tag_39\n      swap1\n      tag_40\n      jump\t// in\n    tag_39:\n      dup1\n      0x1f\n      add\n      0x20\n      dup1\n      swap2\n      div\n      mul\n      0x20\n      add\n      mload(0x40)\n      swap1\n      dup2\n      add\n      0x40\n      mstore\n      dup1\n      swap3\n      swap2\n      swap1\n      dup2\n      dup2\n      mstore\n      0x20\n      add\n      dup3\n      dup1\n      sload\n      tag_41\n      swap1\n      tag_40\n      jump\t// in\n    tag_41:\n      dup1\n      iszero\n      tag_42\n      jumpi\n      dup1\n      0x1f\n      lt\n      tag_43\n      jumpi\n      0x0100\n      dup1\n      dup4\n      sload\n      div\n      mul\n      dup4\n      mstore\n      swap2\n      0x20\n      add\n      swap2\n      jump(tag_42)\n    tag_43:\n      dup3\n      add\n      swap2\n      swap1\n      0x00\n      mstore\n      keccak256(0x00, 0x20)\n      swap1\n    tag_44:\n      dup2\n      sload\n      dup2\n      mstore\n      swap1\n      0x01\n      add\n      swap1\n      0x20\n      add\n      dup1\n      dup4\n      gt\n      tag_44\n      jumpi\n      dup3\n      swap1\n      sub\n      0x1f\n      and\n      dup3\n      add\n      swap2\n    tag_42:\n      pop\n      pop\n      pop\n      pop\n      pop\n      dup2\n      mstore\n      0x20\n      add\n      swap1\n      0x01\n      add\n      swap1\n      jump(tag_36)\n    tag_37:\n      pop\n      pop\n      pop\n      pop\n      swap1\n      pop\n        /* \"contracts/Voting.sol\":793:891  function getCandidates() public view returns (string[] memory){... */\n      swap1\n      jump\t// out\n        /* \"contracts/Voting.sol\":93:149  string[] public candidates = ['Alex', 'Bob', 'Samantha'] */\n    tag_16:\n      0x00\n      dup2\n      dup2\n      sload\n      dup2\n      lt\n      tag_45\n      jumpi\n      0x00\n      dup1\n      revert\n    tag_45:\n      swap1\n      0x00\n      mstore\n      keccak256(0x00, 0x20)\n      add\n      0x00\n      swap2\n      pop\n      swap1\n      pop\n      dup1\n      sload\n      tag_47\n      swap1\n      tag_40\n      jump\t// in\n    tag_47:\n      dup1\n      0x1f\n      add\n      0x20\n      dup1\n      swap2\n      div\n      mul\n      0x20\n      add\n      mload(0x40)\n      swap1\n      dup2\n      add\n      0x40\n      mstore\n      dup1\n      swap3\n      swap2\n      swap1\n      dup2\n      dup2\n      mstore\n      0x20\n      add\n      dup3\n      dup1\n      sload\n      tag_48\n      swap1\n      tag_40\n      jump\t// in\n    tag_48:\n      dup1\n      iszero\n      tag_49\n      jumpi\n      dup1\n      0x1f\n      lt\n      tag_50\n      jumpi\n      0x0100\n      dup1\n      dup4\n      sload\n      div\n      mul\n      dup4\n      mstore\n      swap2\n      0x20\n      add\n      swap2\n      jump(tag_49)\n    tag_50:\n      dup3\n      add\n      swap2\n      swap1\n      0x00\n      mstore\n      keccak256(0x00, 0x20)\n      swap1\n    tag_51:\n      dup2\n      sload\n      dup2\n      mstore\n      swap1\n      0x01\n      add\n      swap1\n      0x20\n      add\n      dup1\n      dup4\n      gt\n      tag_51\n      jumpi\n      dup3\n      swap1\n      sub\n      0x1f\n      and\n      dup3\n      add\n      swap2\n    tag_49:\n      pop\n      pop\n      pop\n      pop\n      pop\n      dup2\n      jump\t// out\n        /* \"contracts/Voting.sol\":210:299  function addCandidate(string memory name) public {... */\n    tag_22:\n        /* \"contracts/Voting.sol\":270:280  candidates */\n      0x00\n        /* \"contracts/Voting.sol\":286:290  name */\n      dup2\n        /* \"contracts/Voting.sol\":270:291  candidates.push(name) */\n      swap1\n      dup1\n      0x01\n      dup2\n      sload\n      add\n      dup1\n      dup3\n      sstore\n      dup1\n      swap2\n      pop\n      pop\n      0x01\n      swap1\n      sub\n      swap1\n      0x00\n      mstore\n      keccak256(0x00, 0x20)\n      add\n      0x00\n      swap1\n      swap2\n      swap1\n      swap2\n      swap1\n      swap2\n      pop\n      swap1\n      dup2\n      tag_54\n      swap2\n      swap1\n      tag_55\n      jump\t// in\n    tag_54:\n      pop\n        /* \"contracts/Voting.sol\":210:299  function addCandidate(string memory name) public {... */\n      pop\n      jump\t// out\n        /* \"contracts/Voting.sol\":897:1000  function getVotes(string memory name) view public returns(uint256){... */\n    tag_25:\n        /* \"contracts/Voting.sol\":955:962  uint256 */\n      0x00\n        /* \"contracts/Voting.sol\":981:986  votes */\n      0x01\n        /* \"contracts/Voting.sol\":987:991  name */\n      dup3\n        /* \"contracts/Voting.sol\":981:992  votes[name] */\n      mload(0x40)\n      tag_57\n      swap2\n      swap1\n      tag_58\n      jump\t// in\n    tag_57:\n      swap1\n      dup2\n      mstore\n      0x20\n      add\n      mload(0x40)\n      dup1\n      swap2\n      sub\n      swap1\n      keccak256\n      sload\n        /* \"contracts/Voting.sol\":974:992  return votes[name] */\n      swap1\n      pop\n        /* \"contracts/Voting.sol\":897:1000  function getVotes(string memory name) view public returns(uint256){... */\n      swap2\n      swap1\n      pop\n      jump\t// out\n        /* \"contracts/Voting.sol\":158:197  mapping(string => uint256) public votes */\n    tag_30:\n      0x01\n      dup2\n      dup1\n      mload\n      0x20\n      dup2\n      add\n      dup3\n      add\n      dup1\n      mload\n      dup5\n      dup3\n      mstore\n      0x20\n      dup4\n      add\n      0x20\n      dup6\n      add\n      keccak256\n      dup2\n      dup4\n      mstore\n      dup1\n      swap6\n      pop\n      pop\n      pop\n      pop\n      pop\n      pop\n      0x00\n      swap2\n      pop\n      swap1\n      pop\n      sload\n      dup2\n      jump\t// out\n        /* \"contracts/Voting.sol\":307:787  function vote(string memory name) public {... */\n    tag_34:\n        /* \"contracts/Voting.sol\":359:369  bool valid */\n      0x00\n        /* \"contracts/Voting.sol\":372:377  false */\n      0x00\n        /* \"contracts/Voting.sol\":359:377  bool valid = false */\n      swap1\n      pop\n        /* \"contracts/Voting.sol\":472:478  uint i */\n      0x00\n        /* \"contracts/Voting.sol\":481:482  0 */\n      0x00\n        /* \"contracts/Voting.sol\":472:482  uint i = 0 */\n      swap1\n      pop\n        /* \"contracts/Voting.sol\":467:672  for (uint i = 0; i < candidates.length; i++) {... */\n    tag_60:\n        /* \"contracts/Voting.sol\":488:498  candidates */\n      0x00\n        /* \"contracts/Voting.sol\":488:505  candidates.length */\n      dup1\n      sload\n      swap1\n      pop\n        /* \"contracts/Voting.sol\":484:485  i */\n      dup2\n        /* \"contracts/Voting.sol\":484:505  i < candidates.length */\n      lt\n        /* \"contracts/Voting.sol\":467:672  for (uint i = 0; i < candidates.length; i++) {... */\n      iszero\n      tag_61\n      jumpi\n        /* \"contracts/Voting.sol\":582:586  name */\n      dup3\n        /* \"contracts/Voting.sol\":566:588  keccak256(bytes(name)) */\n      dup1\n      mload\n      swap1\n      0x20\n      add\n      keccak256\n        /* \"contracts/Voting.sol\":547:557  candidates */\n      0x00\n        /* \"contracts/Voting.sol\":558:559  i */\n      dup3\n        /* \"contracts/Voting.sol\":547:560  candidates[i] */\n      dup2\n      sload\n      dup2\n      lt\n      tag_63\n      jumpi\n      tag_64\n      tag_65\n      jump\t// in\n    tag_64:\n    tag_63:\n      swap1\n      0x00\n      mstore\n      keccak256(0x00, 0x20)\n      add\n        /* \"contracts/Voting.sol\":531:562  keccak256(bytes(candidates[i])) */\n      mload(0x40)\n      tag_67\n      swap2\n      swap1\n      tag_68\n      jump\t// in\n    tag_67:\n      mload(0x40)\n      dup1\n      swap2\n      sub\n      swap1\n      keccak256\n        /* \"contracts/Voting.sol\":531:588  keccak256(bytes(candidates[i])) == keccak256(bytes(name)) */\n      sub\n        /* \"contracts/Voting.sol\":527:661  if (keccak256(bytes(candidates[i])) == keccak256(bytes(name))) {... */\n      tag_69\n      jumpi\n        /* \"contracts/Voting.sol\":617:621  true */\n      0x01\n        /* \"contracts/Voting.sol\":609:621  valid = true */\n      swap2\n      pop\n        /* \"contracts/Voting.sol\":640:645  break */\n      jump(tag_61)\n        /* \"contracts/Voting.sol\":527:661  if (keccak256(bytes(candidates[i])) == keccak256(bytes(name))) {... */\n    tag_69:\n        /* \"contracts/Voting.sol\":507:510  i++ */\n      dup1\n      dup1\n      0x01\n      add\n      swap2\n      pop\n      pop\n        /* \"contracts/Voting.sol\":467:672  for (uint i = 0; i < candidates.length; i++) {... */\n      jump(tag_60)\n    tag_61:\n      pop\n        /* \"contracts/Voting.sol\":690:695  valid */\n      dup1\n        /* \"contracts/Voting.sol\":682:719  require(valid, \"Candidate not found\") */\n      tag_70\n      jumpi\n      mload(0x40)\n      0x08c379a000000000000000000000000000000000000000000000000000000000\n      dup2\n      mstore\n      0x04\n      add\n      tag_71\n      swap1\n      tag_72\n      jump\t// in\n    tag_71:\n      mload(0x40)\n      dup1\n      swap2\n      sub\n      swap1\n      revert\n    tag_70:\n        /* \"contracts/Voting.sol\":745:746  1 */\n      0x01\n        /* \"contracts/Voting.sol\":730:735  votes */\n      dup1\n        /* \"contracts/Voting.sol\":736:740  name */\n      dup4\n        /* \"contracts/Voting.sol\":730:741  votes[name] */\n      mload(0x40)\n      tag_73\n      swap2\n      swap1\n      tag_58\n      jump\t// in\n    tag_73:\n      swap1\n      dup2\n      mstore\n      0x20\n      add\n      mload(0x40)\n      dup1\n      swap2\n      sub\n      swap1\n      keccak256\n      0x00\n        /* \"contracts/Voting.sol\":730:746  votes[name] += 1 */\n      dup3\n      dup3\n      sload\n      tag_74\n      swap2\n      swap1\n      tag_75\n      jump\t// in\n    tag_74:\n      swap3\n      pop\n      pop\n      dup2\n      swap1\n      sstore\n      pop\n        /* \"contracts/Voting.sol\":348:787  {... */\n      pop\n        /* \"contracts/Voting.sol\":307:787  function vote(string memory name) public {... */\n      pop\n      jump\t// out\n        /* \"#utility.yul\":7:131   */\n    tag_76:\n        /* \"#utility.yul\":84:90   */\n      0x00\n        /* \"#utility.yul\":118:123   */\n      dup2\n        /* \"#utility.yul\":112:124   */\n      mload\n        /* \"#utility.yul\":102:124   */\n      swap1\n      pop\n        /* \"#utility.yul\":7:131   */\n      swap2\n      swap1\n      pop\n      jump\t// out\n        /* \"#utility.yul\":137:331   */\n    tag_77:\n        /* \"#utility.yul\":246:257   */\n      0x00\n        /* \"#utility.yul\":280:286   */\n      dup3\n        /* \"#utility.yul\":275:278   */\n      dup3\n        /* \"#utility.yul\":268:287   */\n      mstore\n        /* \"#utility.yul\":320:324   */\n      0x20\n        /* \"#utility.yul\":315:318   */\n      dup3\n        /* \"#utility.yul\":311:325   */\n      add\n        /* \"#utility.yul\":296:325   */\n      swap1\n      pop\n        /* \"#utility.yul\":137:331   */\n      swap3\n      swap2\n      pop\n      pop\n      jump\t// out\n        /* \"#utility.yul\":337:479   */\n    tag_78:\n        /* \"#utility.yul\":414:418   */\n      0x00\n        /* \"#utility.yul\":437:440   */\n      dup2\n        /* \"#utility.yul\":429:440   */\n      swap1\n      pop\n        /* \"#utility.yul\":467:471   */\n      0x20\n        /* \"#utility.yul\":462:465   */\n      dup3\n        /* \"#utility.yul\":458:472   */\n      add\n        /* \"#utility.yul\":450:472   */\n      swap1\n      pop\n        /* \"#utility.yul\":337:479   */\n      swap2\n      swap1\n      pop\n      jump\t// out\n        /* \"#utility.yul\":485:584   */\n    tag_79:\n        /* \"#utility.yul\":537:543   */\n      0x00\n        /* \"#utility.yul\":571:576   */\n      dup2\n        /* \"#utility.yul\":565:577   */\n      mload\n        /* \"#utility.yul\":555:577   */\n      swap1\n      pop\n        /* \"#utility.yul\":485:584   */\n      swap2\n      swap1\n      pop\n      jump\t// out\n        /* \"#utility.yul\":590:749   */\n    tag_80:\n        /* \"#utility.yul\":664:675   */\n      0x00\n        /* \"#utility.yul\":698:704   */\n      dup3\n        /* \"#utility.yul\":693:696   */\n      dup3\n        /* \"#utility.yul\":686:705   */\n      mstore\n        /* \"#utility.yul\":738:742   */\n      0x20\n        /* \"#utility.yul\":733:736   */\n      dup3\n        /* \"#utility.yul\":729:743   */\n      add\n        /* \"#utility.yul\":714:743   */\n      swap1\n      pop\n        /* \"#utility.yul\":590:749   */\n      swap3\n      swap2\n      pop\n      pop\n      jump\t// out\n        /* \"#utility.yul\":755:894   */\n    tag_81:\n        /* \"#utility.yul\":844:850   */\n      dup3\n        /* \"#utility.yul\":839:842   */\n      dup2\n        /* \"#utility.yul\":834:837   */\n      dup4\n        /* \"#utility.yul\":828:851   */\n      mcopy\n        /* \"#utility.yul\":885:886   */\n      0x00\n        /* \"#utility.yul\":876:882   */\n      dup4\n        /* \"#utility.yul\":871:874   */\n      dup4\n        /* \"#utility.yul\":867:883   */\n      add\n        /* \"#utility.yul\":860:887   */\n      mstore\n        /* \"#utility.yul\":755:894   */\n      pop\n      pop\n      pop\n      jump\t// out\n        /* \"#utility.yul\":900:1002   */\n    tag_82:\n        /* \"#utility.yul\":941:947   */\n      0x00\n        /* \"#utility.yul\":992:994   */\n      0x1f\n        /* \"#utility.yul\":988:995   */\n      not\n        /* \"#utility.yul\":983:985   */\n      0x1f\n        /* \"#utility.yul\":976:981   */\n      dup4\n        /* \"#utility.yul\":972:986   */\n      add\n        /* \"#utility.yul\":968:996   */\n      and\n        /* \"#utility.yul\":958:996   */\n      swap1\n      pop\n        /* \"#utility.yul\":900:1002   */\n      swap2\n      swap1\n      pop\n      jump\t// out\n        /* \"#utility.yul\":1008:1365   */\n    tag_83:\n        /* \"#utility.yul\":1086:1089   */\n      0x00\n        /* \"#utility.yul\":1114:1153   */\n      tag_138\n        /* \"#utility.yul\":1147:1152   */\n      dup3\n        /* \"#utility.yul\":1114:1153   */\n      tag_79\n      jump\t// in\n    tag_138:\n        /* \"#utility.yul\":1169:1230   */\n      tag_139\n        /* \"#utility.yul\":1223:1229   */\n      dup2\n        /* \"#utility.yul\":1218:1221   */\n      dup6\n        /* \"#utility.yul\":1169:1230   */\n      tag_80\n      jump\t// in\n    tag_139:\n        /* \"#utility.yul\":1162:1230   */\n      swap4\n      pop\n        /* \"#utility.yul\":1239:1304   */\n      tag_140\n        /* \"#utility.yul\":1297:1303   */\n      dup2\n        /* \"#utility.yul\":1292:1295   */\n      dup6\n        /* \"#utility.yul\":1285:1289   */\n      0x20\n        /* \"#utility.yul\":1278:1283   */\n      dup7\n        /* \"#utility.yul\":1274:1290   */\n      add\n        /* \"#utility.yul\":1239:1304   */\n      tag_81\n      jump\t// in\n    tag_140:\n        /* \"#utility.yul\":1329:1358   */\n      tag_141\n        /* \"#utility.yul\":1351:1357   */\n      dup2\n        /* \"#utility.yul\":1329:1358   */\n      tag_82\n      jump\t// in\n    tag_141:\n        /* \"#utility.yul\":1324:1327   */\n      dup5\n        /* \"#utility.yul\":1320:1359   */\n      add\n        /* \"#utility.yul\":1313:1359   */\n      swap2\n      pop\n        /* \"#utility.yul\":1090:1365   */\n      pop\n        /* \"#utility.yul\":1008:1365   */\n      swap3\n      swap2\n      pop\n      pop\n      jump\t// out\n        /* \"#utility.yul\":1371:1567   */\n    tag_84:\n        /* \"#utility.yul\":1460:1470   */\n      0x00\n        /* \"#utility.yul\":1495:1561   */\n      tag_143\n        /* \"#utility.yul\":1557:1560   */\n      dup4\n        /* \"#utility.yul\":1549:1555   */\n      dup4\n        /* \"#utility.yul\":1495:1561   */\n      tag_83\n      jump\t// in\n    tag_143:\n        /* \"#utility.yul\":1481:1561   */\n      swap1\n      pop\n        /* \"#utility.yul\":1371:1567   */\n      swap3\n      swap2\n      pop\n      pop\n      jump\t// out\n        /* \"#utility.yul\":1573:1696   */\n    tag_85:\n        /* \"#utility.yul\":1653:1657   */\n      0x00\n        /* \"#utility.yul\":1685:1689   */\n      0x20\n        /* \"#utility.yul\":1680:1683   */\n      dup3\n        /* \"#utility.yul\":1676:1690   */\n      add\n        /* \"#utility.yul\":1668:1690   */\n      swap1\n      pop\n        /* \"#utility.yul\":1573:1696   */\n      swap2\n      swap1\n      pop\n      jump\t// out\n        /* \"#utility.yul\":1730:2721   */\n    tag_86:\n        /* \"#utility.yul\":1869:1872   */\n      0x00\n        /* \"#utility.yul\":1898:1962   */\n      tag_146\n        /* \"#utility.yul\":1956:1961   */\n      dup3\n        /* \"#utility.yul\":1898:1962   */\n      tag_76\n      jump\t// in\n    tag_146:\n        /* \"#utility.yul\":1978:2074   */\n      tag_147\n        /* \"#utility.yul\":2067:2073   */\n      dup2\n        /* \"#utility.yul\":2062:2065   */\n      dup6\n        /* \"#utility.yul\":1978:2074   */\n      tag_77\n      jump\t// in\n    tag_147:\n        /* \"#utility.yul\":1971:2074   */\n      swap4\n      pop\n        /* \"#utility.yul\":2100:2103   */\n      dup4\n        /* \"#utility.yul\":2145:2149   */\n      0x20\n        /* \"#utility.yul\":2137:2143   */\n      dup3\n        /* \"#utility.yul\":2133:2150   */\n      mul\n        /* \"#utility.yul\":2128:2131   */\n      dup6\n        /* \"#utility.yul\":2124:2151   */\n      add\n        /* \"#utility.yul\":2175:2241   */\n      tag_148\n        /* \"#utility.yul\":2235:2240   */\n      dup6\n        /* \"#utility.yul\":2175:2241   */\n      tag_78\n      jump\t// in\n    tag_148:\n        /* \"#utility.yul\":2264:2271   */\n      dup1\n        /* \"#utility.yul\":2295:2296   */\n      0x00\n        /* \"#utility.yul\":2280:2676   */\n    tag_149:\n        /* \"#utility.yul\":2305:2311   */\n      dup6\n        /* \"#utility.yul\":2302:2303   */\n      dup2\n        /* \"#utility.yul\":2299:2312   */\n      lt\n        /* \"#utility.yul\":2280:2676   */\n      iszero\n      tag_151\n      jumpi\n        /* \"#utility.yul\":2376:2385   */\n      dup5\n        /* \"#utility.yul\":2370:2374   */\n      dup5\n        /* \"#utility.yul\":2366:2386   */\n      sub\n        /* \"#utility.yul\":2361:2364   */\n      dup10\n        /* \"#utility.yul\":2354:2387   */\n      mstore\n        /* \"#utility.yul\":2427:2433   */\n      dup2\n        /* \"#utility.yul\":2421:2434   */\n      mload\n        /* \"#utility.yul\":2455:2539   */\n      tag_152\n        /* \"#utility.yul\":2534:2538   */\n      dup6\n        /* \"#utility.yul\":2519:2532   */\n      dup3\n        /* \"#utility.yul\":2455:2539   */\n      tag_84\n      jump\t// in\n    tag_152:\n        /* \"#utility.yul\":2447:2539   */\n      swap5\n      pop\n        /* \"#utility.yul\":2562:2632   */\n      tag_153\n        /* \"#utility.yul\":2625:2631   */\n      dup4\n        /* \"#utility.yul\":2562:2632   */\n      tag_85\n      jump\t// in\n    tag_153:\n        /* \"#utility.yul\":2552:2632   */\n      swap3\n      pop\n        /* \"#utility.yul\":2661:2665   */\n      0x20\n        /* \"#utility.yul\":2656:2659   */\n      dup11\n        /* \"#utility.yul\":2652:2666   */\n      add\n        /* \"#utility.yul\":2645:2666   */\n      swap10\n      pop\n        /* \"#utility.yul\":2340:2676   */\n      pop\n        /* \"#utility.yul\":2327:2328   */\n      0x01\n        /* \"#utility.yul\":2324:2325   */\n      dup2\n        /* \"#utility.yul\":2320:2329   */\n      add\n        /* \"#utility.yul\":2315:2329   */\n      swap1\n      pop\n        /* \"#utility.yul\":2280:2676   */\n      jump(tag_149)\n    tag_151:\n        /* \"#utility.yul\":2284:2298   */\n      pop\n        /* \"#utility.yul\":2692:2696   */\n      dup3\n        /* \"#utility.yul\":2685:2696   */\n      swap8\n      pop\n        /* \"#utility.yul\":2712:2715   */\n      dup8\n        /* \"#utility.yul\":2705:2715   */\n      swap6\n      pop\n        /* \"#utility.yul\":1874:2721   */\n      pop\n      pop\n      pop\n      pop\n      pop\n        /* \"#utility.yul\":1730:2721   */\n      swap3\n      swap2\n      pop\n      pop\n      jump\t// out\n        /* \"#utility.yul\":2727:3140   */\n    tag_12:\n        /* \"#utility.yul\":2890:2894   */\n      0x00\n        /* \"#utility.yul\":2928:2930   */\n      0x20\n        /* \"#utility.yul\":2917:2926   */\n      dup3\n        /* \"#utility.yul\":2913:2931   */\n      add\n        /* \"#utility.yul\":2905:2931   */\n      swap1\n      pop\n        /* \"#utility.yul\":2977:2986   */\n      dup2\n        /* \"#utility.yul\":2971:2975   */\n      dup2\n        /* \"#utility.yul\":2967:2987   */\n      sub\n        /* \"#utility.yul\":2963:2964   */\n      0x00\n        /* \"#utility.yul\":2952:2961   */\n      dup4\n        /* \"#utility.yul\":2948:2965   */\n      add\n        /* \"#utility.yul\":2941:2988   */\n      mstore\n        /* \"#utility.yul\":3005:3133   */\n      tag_155\n        /* \"#utility.yul\":3128:3132   */\n      dup2\n        /* \"#utility.yul\":3119:3125   */\n      dup5\n        /* \"#utility.yul\":3005:3133   */\n      tag_86\n      jump\t// in\n    tag_155:\n        /* \"#utility.yul\":2997:3133   */\n      swap1\n      pop\n        /* \"#utility.yul\":2727:3140   */\n      swap3\n      swap2\n      pop\n      pop\n      jump\t// out\n        /* \"#utility.yul\":3146:3221   */\n    tag_87:\n        /* \"#utility.yul\":3179:3185   */\n      0x00\n        /* \"#utility.yul\":3212:3214   */\n      0x40\n        /* \"#utility.yul\":3206:3215   */\n      mload\n        /* \"#utility.yul\":3196:3215   */\n      swap1\n      pop\n        /* \"#utility.yul\":3146:3221   */\n      swap1\n      jump\t// out\n        /* \"#utility.yul\":3227:3344   */\n    tag_88:\n        /* \"#utility.yul\":3336:3337   */\n      0x00\n        /* \"#utility.yul\":3333:3334   */\n      0x00\n        /* \"#utility.yul\":3326:3338   */\n      revert\n        /* \"#utility.yul\":3350:3467   */\n    tag_89:\n        /* \"#utility.yul\":3459:3460   */\n      0x00\n        /* \"#utility.yul\":3456:3457   */\n      0x00\n        /* \"#utility.yul\":3449:3461   */\n      revert\n        /* \"#utility.yul\":3473:3550   */\n    tag_90:\n        /* \"#utility.yul\":3510:3517   */\n      0x00\n        /* \"#utility.yul\":3539:3544   */\n      dup2\n        /* \"#utility.yul\":3528:3544   */\n      swap1\n      pop\n        /* \"#utility.yul\":3473:3550   */\n      swap2\n      swap1\n      pop\n      jump\t// out\n        /* \"#utility.yul\":3556:3678   */\n    tag_91:\n        /* \"#utility.yul\":3629:3653   */\n      tag_161\n        /* \"#utility.yul\":3647:3652   */\n      dup2\n        /* \"#utility.yul\":3629:3653   */\n      tag_90\n      jump\t// in\n    tag_161:\n        /* \"#utility.yul\":3622:3627   */\n      dup2\n        /* \"#utility.yul\":3619:3654   */\n      eq\n        /* \"#utility.yul\":3609:3672   */\n      tag_162\n      jumpi\n        /* \"#utility.yul\":3668:3669   */\n      0x00\n        /* \"#utility.yul\":3665:3666   */\n      0x00\n        /* \"#utility.yul\":3658:3670   */\n      revert\n        /* \"#utility.yul\":3609:3672   */\n    tag_162:\n        /* \"#utility.yul\":3556:3678   */\n      pop\n      jump\t// out\n        /* \"#utility.yul\":3684:3823   */\n    tag_92:\n        /* \"#utility.yul\":3730:3735   */\n      0x00\n        /* \"#utility.yul\":3768:3774   */\n      dup2\n        /* \"#utility.yul\":3755:3775   */\n      calldataload\n        /* \"#utility.yul\":3746:3775   */\n      swap1\n      pop\n        /* \"#utility.yul\":3784:3817   */\n      tag_164\n        /* \"#utility.yul\":3811:3816   */\n      dup2\n        /* \"#utility.yul\":3784:3817   */\n      tag_91\n      jump\t// in\n    tag_164:\n        /* \"#utility.yul\":3684:3823   */\n      swap3\n      swap2\n      pop\n      pop\n      jump\t// out\n        /* \"#utility.yul\":3829:4158   */\n    tag_15:\n        /* \"#utility.yul\":3888:3894   */\n      0x00\n        /* \"#utility.yul\":3937:3939   */\n      0x20\n        /* \"#utility.yul\":3925:3934   */\n      dup3\n        /* \"#utility.yul\":3916:3923   */\n      dup5\n        /* \"#utility.yul\":3912:3935   */\n      sub\n        /* \"#utility.yul\":3908:3940   */\n      slt\n        /* \"#utility.yul\":3905:4024   */\n      iszero\n      tag_166\n      jumpi\n        /* \"#utility.yul\":3943:4022   */\n      tag_167\n      tag_88\n      jump\t// in\n    tag_167:\n        /* \"#utility.yul\":3905:4024   */\n    tag_166:\n        /* \"#utility.yul\":4063:4064   */\n      0x00\n        /* \"#utility.yul\":4088:4141   */\n      tag_168\n        /* \"#utility.yul\":4133:4140   */\n      dup5\n        /* \"#utility.yul\":4124:4130   */\n      dup3\n        /* \"#utility.yul\":4113:4122   */\n      dup6\n        /* \"#utility.yul\":4109:4131   */\n      add\n        /* \"#utility.yul\":4088:4141   */\n      tag_92\n      jump\t// in\n    tag_168:\n        /* \"#utility.yul\":4078:4141   */\n      swap2\n      pop\n        /* \"#utility.yul\":4034:4151   */\n      pop\n        /* \"#utility.yul\":3829:4158   */\n      swap3\n      swap2\n      pop\n      pop\n      jump\t// out\n        /* \"#utility.yul\":4164:4333   */\n    tag_93:\n        /* \"#utility.yul\":4248:4259   */\n      0x00\n        /* \"#utility.yul\":4282:4288   */\n      dup3\n        /* \"#utility.yul\":4277:4280   */\n      dup3\n        /* \"#utility.yul\":4270:4289   */\n      mstore\n        /* \"#utility.yul\":4322:4326   */\n      0x20\n        /* \"#utility.yul\":4317:4320   */\n      dup3\n        /* \"#utility.yul\":4313:4327   */\n      add\n        /* \"#utility.yul\":4298:4327   */\n      swap1\n      pop\n        /* \"#utility.yul\":4164:4333   */\n      swap3\n      swap2\n      pop\n      pop\n      jump\t// out\n        /* \"#utility.yul\":4339:4716   */\n    tag_94:\n        /* \"#utility.yul\":4427:4430   */\n      0x00\n        /* \"#utility.yul\":4455:4494   */\n      tag_171\n        /* \"#utility.yul\":4488:4493   */\n      dup3\n        /* \"#utility.yul\":4455:4494   */\n      tag_79\n      jump\t// in\n    tag_171:\n        /* \"#utility.yul\":4510:4581   */\n      tag_172\n        /* \"#utility.yul\":4574:4580   */\n      dup2\n        /* \"#utility.yul\":4569:4572   */\n      dup6\n        /* \"#utility.yul\":4510:4581   */\n      tag_93\n      jump\t// in\n    tag_172:\n        /* \"#utility.yul\":4503:4581   */\n      swap4\n      pop\n        /* \"#utility.yul\":4590:4655   */\n      tag_173\n        /* \"#utility.yul\":4648:4654   */\n      dup2\n        /* \"#utility.yul\":4643:4646   */\n      dup6\n        /* \"#utility.yul\":4636:4640   */\n      0x20\n        /* \"#utility.yul\":4629:4634   */\n      dup7\n        /* \"#utility.yul\":4625:4641   */\n      add\n        /* \"#utility.yul\":4590:4655   */\n      tag_81\n      jump\t// in\n    tag_173:\n        /* \"#utility.yul\":4680:4709   */\n      tag_174\n        /* \"#utility.yul\":4702:4708   */\n      dup2\n        /* \"#utility.yul\":4680:4709   */\n      tag_82\n      jump\t// in\n    tag_174:\n        /* \"#utility.yul\":4675:4678   */\n      dup5\n        /* \"#utility.yul\":4671:4710   */\n      add\n        /* \"#utility.yul\":4664:4710   */\n      swap2\n      pop\n        /* \"#utility.yul\":4431:4716   */\n      pop\n        /* \"#utility.yul\":4339:4716   */\n      swap3\n      swap2\n      pop\n      pop\n      jump\t// out\n        /* \"#utility.yul\":4722:5035   */\n    tag_18:\n        /* \"#utility.yul\":4835:4839   */\n      0x00\n        /* \"#utility.yul\":4873:4875   */\n      0x20\n        /* \"#utility.yul\":4862:4871   */\n      dup3\n        /* \"#utility.yul\":4858:4876   */\n      add\n        /* \"#utility.yul\":4850:4876   */\n      swap1\n      pop\n        /* \"#utility.yul\":4922:4931   */\n      dup2\n        /* \"#utility.yul\":4916:4920   */\n      dup2\n        /* \"#utility.yul\":4912:4932   */\n      sub\n        /* \"#utility.yul\":4908:4909   */\n      0x00\n        /* \"#utility.yul\":4897:4906   */\n      dup4\n        /* \"#utility.yul\":4893:4910   */\n      add\n        /* \"#utility.yul\":4886:4933   */\n      mstore\n        /* \"#utility.yul\":4950:5028   */\n      tag_176\n        /* \"#utility.yul\":5023:5027   */\n      dup2\n        /* \"#utility.yul\":5014:5020   */\n      dup5\n        /* \"#utility.yul\":4950:5028   */\n      tag_94\n      jump\t// in\n    tag_176:\n        /* \"#utility.yul\":4942:5028   */\n      swap1\n      pop\n        /* \"#utility.yul\":4722:5035   */\n      swap3\n      swap2\n      pop\n      pop\n      jump\t// out\n        /* \"#utility.yul\":5041:5158   */\n    tag_95:\n        /* \"#utility.yul\":5150:5151   */\n      0x00\n        /* \"#utility.yul\":5147:5148   */\n      0x00\n        /* \"#utility.yul\":5140:5152   */\n      revert\n        /* \"#utility.yul\":5164:5281   */\n    tag_96:\n        /* \"#utility.yul\":5273:5274   */\n      0x00\n        /* \"#utility.yul\":5270:5271   */\n      0x00\n        /* \"#utility.yul\":5263:5275   */\n      revert\n        /* \"#utility.yul\":5287:5467   */\n    tag_97:\n        /* \"#utility.yul\":5335:5412   */\n      0x4e487b7100000000000000000000000000000000000000000000000000000000\n        /* \"#utility.yul\":5332:5333   */\n      0x00\n        /* \"#utility.yul\":5325:5413   */\n      mstore\n        /* \"#utility.yul\":5432:5436   */\n      0x41\n        /* \"#utility.yul\":5429:5430   */\n      0x04\n        /* \"#utility.yul\":5422:5437   */\n      mstore\n        /* \"#utility.yul\":5456:5460   */\n      0x24\n        /* \"#utility.yul\":5453:5454   */\n      0x00\n        /* \"#utility.yul\":5446:5461   */\n      revert\n        /* \"#utility.yul\":5473:5754   */\n    tag_98:\n        /* \"#utility.yul\":5556:5583   */\n      tag_181\n        /* \"#utility.yul\":5578:5582   */\n      dup3\n        /* \"#utility.yul\":5556:5583   */\n      tag_82\n      jump\t// in\n    tag_181:\n        /* \"#utility.yul\":5548:5554   */\n      dup2\n        /* \"#utility.yul\":5544:5584   */\n      add\n        /* \"#utility.yul\":5686:5692   */\n      dup2\n        /* \"#utility.yul\":5674:5684   */\n      dup2\n        /* \"#utility.yul\":5671:5693   */\n      lt\n        /* \"#utility.yul\":5650:5668   */\n      0xffffffffffffffff\n        /* \"#utility.yul\":5638:5648   */\n      dup3\n        /* \"#utility.yul\":5635:5669   */\n      gt\n        /* \"#utility.yul\":5632:5694   */\n      or\n        /* \"#utility.yul\":5629:5717   */\n      iszero\n      tag_182\n      jumpi\n        /* \"#utility.yul\":5697:5715   */\n      tag_183\n      tag_97\n      jump\t// in\n    tag_183:\n        /* \"#utility.yul\":5629:5717   */\n    tag_182:\n        /* \"#utility.yul\":5737:5747   */\n      dup1\n        /* \"#utility.yul\":5733:5735   */\n      0x40\n        /* \"#utility.yul\":5726:5748   */\n      mstore\n        /* \"#utility.yul\":5516:5754   */\n      pop\n        /* \"#utility.yul\":5473:5754   */\n      pop\n      pop\n      jump\t// out\n        /* \"#utility.yul\":5760:5889   */\n    tag_99:\n        /* \"#utility.yul\":5794:5800   */\n      0x00\n        /* \"#utility.yul\":5821:5841   */\n      tag_185\n      tag_87\n      jump\t// in\n    tag_185:\n        /* \"#utility.yul\":5811:5841   */\n      swap1\n      pop\n        /* \"#utility.yul\":5850:5883   */\n      tag_186\n        /* \"#utility.yul\":5878:5882   */\n      dup3\n        /* \"#utility.yul\":5870:5876   */\n      dup3\n        /* \"#utility.yul\":5850:5883   */\n      tag_98\n      jump\t// in\n    tag_186:\n        /* \"#utility.yul\":5760:5889   */\n      swap2\n      swap1\n      pop\n      jump\t// out\n        /* \"#utility.yul\":5895:6203   */\n    tag_100:\n        /* \"#utility.yul\":5957:5961   */\n      0x00\n        /* \"#utility.yul\":6047:6065   */\n      0xffffffffffffffff\n        /* \"#utility.yul\":6039:6045   */\n      dup3\n        /* \"#utility.yul\":6036:6066   */\n      gt\n        /* \"#utility.yul\":6033:6089   */\n      iszero\n      tag_188\n      jumpi\n        /* \"#utility.yul\":6069:6087   */\n      tag_189\n      tag_97\n      jump\t// in\n    tag_189:\n        /* \"#utility.yul\":6033:6089   */\n    tag_188:\n        /* \"#utility.yul\":6107:6136   */\n      tag_190\n        /* \"#utility.yul\":6129:6135   */\n      dup3\n        /* \"#utility.yul\":6107:6136   */\n      tag_82\n      jump\t// in\n    tag_190:\n        /* \"#utility.yul\":6099:6136   */\n      swap1\n      pop\n        /* \"#utility.yul\":6191:6195   */\n      0x20\n        /* \"#utility.yul\":6185:6189   */\n      dup2\n        /* \"#utility.yul\":6181:6196   */\n      add\n        /* \"#utility.yul\":6173:6196   */\n      swap1\n      pop\n        /* \"#utility.yul\":5895:6203   */\n      swap2\n      swap1\n      pop\n      jump\t// out\n        /* \"#utility.yul\":6209:6357   */\n    tag_101:\n        /* \"#utility.yul\":6307:6313   */\n      dup3\n        /* \"#utility.yul\":6302:6305   */\n      dup2\n        /* \"#utility.yul\":6297:6300   */\n      dup4\n        /* \"#utility.yul\":6284:6314   */\n      calldatacopy\n        /* \"#utility.yul\":6348:6349   */\n      0x00\n        /* \"#utility.yul\":6339:6345   */\n      dup4\n        /* \"#utility.yul\":6334:6337   */\n      dup4\n        /* \"#utility.yul\":6330:6346   */\n      add\n        /* \"#utility.yul\":6323:6350   */\n      mstore\n        /* \"#utility.yul\":6209:6357   */\n      pop\n      pop\n      pop\n      jump\t// out\n        /* \"#utility.yul\":6363:6788   */\n    tag_102:\n        /* \"#utility.yul\":6441:6446   */\n      0x00\n        /* \"#utility.yul\":6466:6532   */\n      tag_193\n        /* \"#utility.yul\":6482:6531   */\n      tag_194\n        /* \"#utility.yul\":6524:6530   */\n      dup5\n        /* \"#utility.yul\":6482:6531   */\n      tag_100\n      jump\t// in\n    tag_194:\n        /* \"#utility.yul\":6466:6532   */\n      tag_99\n      jump\t// in\n    tag_193:\n        /* \"#utility.yul\":6457:6532   */\n      swap1\n      pop\n        /* \"#utility.yul\":6555:6561   */\n      dup3\n        /* \"#utility.yul\":6548:6553   */\n      dup2\n        /* \"#utility.yul\":6541:6562   */\n      mstore\n        /* \"#utility.yul\":6593:6597   */\n      0x20\n        /* \"#utility.yul\":6586:6591   */\n      dup2\n        /* \"#utility.yul\":6582:6598   */\n      add\n        /* \"#utility.yul\":6631:6634   */\n      dup5\n        /* \"#utility.yul\":6622:6628   */\n      dup5\n        /* \"#utility.yul\":6617:6620   */\n      dup5\n        /* \"#utility.yul\":6613:6629   */\n      add\n        /* \"#utility.yul\":6610:6635   */\n      gt\n        /* \"#utility.yul\":6607:6719   */\n      iszero\n      tag_195\n      jumpi\n        /* \"#utility.yul\":6638:6717   */\n      tag_196\n      tag_96\n      jump\t// in\n    tag_196:\n        /* \"#utility.yul\":6607:6719   */\n    tag_195:\n        /* \"#utility.yul\":6728:6782   */\n      tag_197\n        /* \"#utility.yul\":6775:6781   */\n      dup5\n        /* \"#utility.yul\":6770:6773   */\n      dup3\n        /* \"#utility.yul\":6765:6768   */\n      dup6\n        /* \"#utility.yul\":6728:6782   */\n      tag_101\n      jump\t// in\n    tag_197:\n        /* \"#utility.yul\":6447:6788   */\n      pop\n        /* \"#utility.yul\":6363:6788   */\n      swap4\n      swap3\n      pop\n      pop\n      pop\n      jump\t// out\n        /* \"#utility.yul\":6808:7148   */\n    tag_103:\n        /* \"#utility.yul\":6864:6869   */\n      0x00\n        /* \"#utility.yul\":6913:6916   */\n      dup3\n        /* \"#utility.yul\":6906:6910   */\n      0x1f\n        /* \"#utility.yul\":6898:6904   */\n      dup4\n        /* \"#utility.yul\":6894:6911   */\n      add\n        /* \"#utility.yul\":6890:6917   */\n      slt\n        /* \"#utility.yul\":6880:7002   */\n      tag_199\n      jumpi\n        /* \"#utility.yul\":6921:7000   */\n      tag_200\n      tag_95\n      jump\t// in\n    tag_200:\n        /* \"#utility.yul\":6880:7002   */\n    tag_199:\n        /* \"#utility.yul\":7038:7044   */\n      dup2\n        /* \"#utility.yul\":7025:7045   */\n      calldataload\n        /* \"#utility.yul\":7063:7142   */\n      tag_201\n        /* \"#utility.yul\":7138:7141   */\n      dup5\n        /* \"#utility.yul\":7130:7136   */\n      dup3\n        /* \"#utility.yul\":7123:7127   */\n      0x20\n        /* \"#utility.yul\":7115:7121   */\n      dup7\n        /* \"#utility.yul\":7111:7128   */\n      add\n        /* \"#utility.yul\":7063:7142   */\n      tag_102\n      jump\t// in\n    tag_201:\n        /* \"#utility.yul\":7054:7142   */\n      swap2\n      pop\n        /* \"#utility.yul\":6870:7148   */\n      pop\n        /* \"#utility.yul\":6808:7148   */\n      swap3\n      swap2\n      pop\n      pop\n      jump\t// out\n        /* \"#utility.yul\":7154:7663   */\n    tag_21:\n        /* \"#utility.yul\":7223:7229   */\n      0x00\n        /* \"#utility.yul\":7272:7274   */\n      0x20\n        /* \"#utility.yul\":7260:7269   */\n      dup3\n        /* \"#utility.yul\":7251:7258   */\n      dup5\n        /* \"#utility.yul\":7247:7270   */\n      sub\n        /* \"#utility.yul\":7243:7275   */\n      slt\n        /* \"#utility.yul\":7240:7359   */\n      iszero\n      tag_203\n      jumpi\n        /* \"#utility.yul\":7278:7357   */\n      tag_204\n      tag_88\n      jump\t// in\n    tag_204:\n        /* \"#utility.yul\":7240:7359   */\n    tag_203:\n        /* \"#utility.yul\":7426:7427   */\n      0x00\n        /* \"#utility.yul\":7415:7424   */\n      dup3\n        /* \"#utility.yul\":7411:7428   */\n      add\n        /* \"#utility.yul\":7398:7429   */\n      calldataload\n        /* \"#utility.yul\":7456:7474   */\n      0xffffffffffffffff\n        /* \"#utility.yul\":7448:7454   */\n      dup2\n        /* \"#utility.yul\":7445:7475   */\n      gt\n        /* \"#utility.yul\":7442:7559   */\n      iszero\n      tag_205\n      jumpi\n        /* \"#utility.yul\":7478:7557   */\n      tag_206\n      tag_89\n      jump\t// in\n    tag_206:\n        /* \"#utility.yul\":7442:7559   */\n    tag_205:\n        /* \"#utility.yul\":7583:7646   */\n      tag_207\n        /* \"#utility.yul\":7638:7645   */\n      dup5\n        /* \"#utility.yul\":7629:7635   */\n      dup3\n        /* \"#utility.yul\":7618:7627   */\n      dup6\n        /* \"#utility.yul\":7614:7636   */\n      add\n        /* \"#utility.yul\":7583:7646   */\n      tag_103\n      jump\t// in\n    tag_207:\n        /* \"#utility.yul\":7573:7646   */\n      swap2\n      pop\n        /* \"#utility.yul\":7369:7656   */\n      pop\n        /* \"#utility.yul\":7154:7663   */\n      swap3\n      swap2\n      pop\n      pop\n      jump\t// out\n        /* \"#utility.yul\":7669:7787   */\n    tag_104:\n        /* \"#utility.yul\":7756:7780   */\n      tag_209\n        /* \"#utility.yul\":7774:7779   */\n      dup2\n        /* \"#utility.yul\":7756:7780   */\n      tag_90\n      jump\t// in\n    tag_209:\n        /* \"#utility.yul\":7751:7754   */\n      dup3\n        /* \"#utility.yul\":7744:7781   */\n      mstore\n        /* \"#utility.yul\":7669:7787   */\n      pop\n      pop\n      jump\t// out\n        /* \"#utility.yul\":7793:8015   */\n    tag_27:\n        /* \"#utility.yul\":7886:7890   */\n      0x00\n        /* \"#utility.yul\":7924:7926   */\n      0x20\n        /* \"#utility.yul\":7913:7922   */\n      dup3\n        /* \"#utility.yul\":7909:7927   */\n      add\n        /* \"#utility.yul\":7901:7927   */\n      swap1\n      pop\n        /* \"#utility.yul\":7937:8008   */\n      tag_211\n        /* \"#utility.yul\":8005:8006   */\n      0x00\n        /* \"#utility.yul\":7994:8003   */\n      dup4\n        /* \"#utility.yul\":7990:8007   */\n      add\n        /* \"#utility.yul\":7981:7987   */\n      dup5\n        /* \"#utility.yul\":7937:8008   */\n      tag_104\n      jump\t// in\n    tag_211:\n        /* \"#utility.yul\":7793:8015   */\n      swap3\n      swap2\n      pop\n      pop\n      jump\t// out\n        /* \"#utility.yul\":8021:8201   */\n    tag_105:\n        /* \"#utility.yul\":8069:8146   */\n      0x4e487b7100000000000000000000000000000000000000000000000000000000\n        /* \"#utility.yul\":8066:8067   */\n      0x00\n        /* \"#utility.yul\":8059:8147   */\n      mstore\n        /* \"#utility.yul\":8166:8170   */\n      0x22\n        /* \"#utility.yul\":8163:8164   */\n      0x04\n        /* \"#utility.yul\":8156:8171   */\n      mstore\n        /* \"#utility.yul\":8190:8194   */\n      0x24\n        /* \"#utility.yul\":8187:8188   */\n      0x00\n        /* \"#utility.yul\":8180:8195   */\n      revert\n        /* \"#utility.yul\":8207:8527   */\n    tag_40:\n        /* \"#utility.yul\":8251:8257   */\n      0x00\n        /* \"#utility.yul\":8288:8289   */\n      0x02\n        /* \"#utility.yul\":8282:8286   */\n      dup3\n        /* \"#utility.yul\":8278:8290   */\n      div\n        /* \"#utility.yul\":8268:8290   */\n      swap1\n      pop\n        /* \"#utility.yul\":8335:8336   */\n      0x01\n        /* \"#utility.yul\":8329:8333   */\n      dup3\n        /* \"#utility.yul\":8325:8337   */\n      and\n        /* \"#utility.yul\":8356:8374   */\n      dup1\n        /* \"#utility.yul\":8346:8427   */\n      tag_214\n      jumpi\n        /* \"#utility.yul\":8412:8416   */\n      0x7f\n        /* \"#utility.yul\":8404:8410   */\n      dup3\n        /* \"#utility.yul\":8400:8417   */\n      and\n        /* \"#utility.yul\":8390:8417   */\n      swap2\n      pop\n        /* \"#utility.yul\":8346:8427   */\n    tag_214:\n        /* \"#utility.yul\":8474:8476   */\n      0x20\n        /* \"#utility.yul\":8466:8472   */\n      dup3\n        /* \"#utility.yul\":8463:8477   */\n      lt\n        /* \"#utility.yul\":8443:8461   */\n      dup2\n        /* \"#utility.yul\":8440:8478   */\n      sub\n        /* \"#utility.yul\":8437:8521   */\n      tag_215\n      jumpi\n        /* \"#utility.yul\":8493:8511   */\n      tag_216\n      tag_105\n      jump\t// in\n    tag_216:\n        /* \"#utility.yul\":8437:8521   */\n    tag_215:\n        /* \"#utility.yul\":8258:8527   */\n      pop\n        /* \"#utility.yul\":8207:8527   */\n      swap2\n      swap1\n      pop\n      jump\t// out\n        /* \"#utility.yul\":8533:8674   */\n    tag_106:\n        /* \"#utility.yul\":8582:8586   */\n      0x00\n        /* \"#utility.yul\":8605:8608   */\n      dup2\n        /* \"#utility.yul\":8597:8608   */\n      swap1\n      pop\n        /* \"#utility.yul\":8628:8631   */\n      dup2\n        /* \"#utility.yul\":8625:8626   */\n      0x00\n        /* \"#utility.yul\":8618:8632   */\n      mstore\n        /* \"#utility.yul\":8662:8666   */\n      0x20\n        /* \"#utility.yul\":8659:8660   */\n      0x00\n        /* \"#utility.yul\":8649:8667   */\n      keccak256\n        /* \"#utility.yul\":8641:8667   */\n      swap1\n      pop\n        /* \"#utility.yul\":8533:8674   */\n      swap2\n      swap1\n      pop\n      jump\t// out\n        /* \"#utility.yul\":8680:8773   */\n    tag_107:\n        /* \"#utility.yul\":8717:8723   */\n      0x00\n        /* \"#utility.yul\":8764:8766   */\n      0x20\n        /* \"#utility.yul\":8759:8761   */\n      0x1f\n        /* \"#utility.yul\":8752:8757   */\n      dup4\n        /* \"#utility.yul\":8748:8762   */\n      add\n        /* \"#utility.yul\":8744:8767   */\n      div\n        /* \"#utility.yul\":8734:8767   */\n      swap1\n      pop\n        /* \"#utility.yul\":8680:8773   */\n      swap2\n      swap1\n      pop\n      jump\t// out\n        /* \"#utility.yul\":8779:8886   */\n    tag_108:\n        /* \"#utility.yul\":8823:8831   */\n      0x00\n        /* \"#utility.yul\":8873:8878   */\n      dup3\n        /* \"#utility.yul\":8867:8871   */\n      dup3\n        /* \"#utility.yul\":8863:8879   */\n      shl\n        /* \"#utility.yul\":8842:8879   */\n      swap1\n      pop\n        /* \"#utility.yul\":8779:8886   */\n      swap3\n      swap2\n      pop\n      pop\n      jump\t// out\n        /* \"#utility.yul\":8892:9285   */\n    tag_109:\n        /* \"#utility.yul\":8961:8967   */\n      0x00\n        /* \"#utility.yul\":9011:9012   */\n      0x08\n        /* \"#utility.yul\":8999:9009   */\n      dup4\n        /* \"#utility.yul\":8995:9013   */\n      mul\n        /* \"#utility.yul\":9034:9131   */\n      tag_221\n        /* \"#utility.yul\":9064:9130   */\n      0xffffffffffffffffffffffffffffffffffffffffffffffffffffffffffffffff\n        /* \"#utility.yul\":9053:9062   */\n      dup3\n        /* \"#utility.yul\":9034:9131   */\n      tag_108\n      jump\t// in\n    tag_221:\n        /* \"#utility.yul\":9152:9191   */\n      tag_222\n        /* \"#utility.yul\":9182:9190   */\n      dup7\n        /* \"#utility.yul\":9171:9180   */\n      dup4\n        /* \"#utility.yul\":9152:9191   */\n      tag_108\n      jump\t// in\n    tag_222:\n        /* \"#utility.yul\":9140:9191   */\n      swap6\n      pop\n        /* \"#utility.yul\":9224:9228   */\n      dup1\n        /* \"#utility.yul\":9220:9229   */\n      not\n        /* \"#utility.yul\":9213:9218   */\n      dup5\n        /* \"#utility.yul\":9209:9230   */\n      and\n        /* \"#utility.yul\":9200:9230   */\n      swap4\n      pop\n        /* \"#utility.yul\":9273:9277   */\n      dup1\n        /* \"#utility.yul\":9263:9271   */\n      dup7\n        /* \"#utility.yul\":9259:9278   */\n      and\n        /* \"#utility.yul\":9252:9257   */\n      dup5\n        /* \"#utility.yul\":9249:9279   */\n      or\n        /* \"#utility.yul\":9239:9279   */\n      swap3\n      pop\n        /* \"#utility.yul\":8968:9285   */\n      pop\n      pop\n        /* \"#utility.yul\":8892:9285   */\n      swap4\n      swap3\n      pop\n      pop\n      pop\n      jump\t// out\n        /* \"#utility.yul\":9291:9351   */\n    tag_110:\n        /* \"#utility.yul\":9319:9322   */\n      0x00\n        /* \"#utility.yul\":9340:9345   */\n      dup2\n        /* \"#utility.yul\":9333:9345   */\n      swap1\n      pop\n        /* \"#utility.yul\":9291:9351   */\n      swap2\n      swap1\n      pop\n      jump\t// out\n        /* \"#utility.yul\":9357:9499   */\n    tag_111:\n        /* \"#utility.yul\":9407:9416   */\n      0x00\n        /* \"#utility.yul\":9440:9493   */\n      tag_225\n        /* \"#utility.yul\":9458:9492   */\n      tag_226\n        /* \"#utility.yul\":9467:9491   */\n      tag_227\n        /* \"#utility.yul\":9485:9490   */\n      dup5\n        /* \"#utility.yul\":9467:9491   */\n      tag_90\n      jump\t// in\n    tag_227:\n        /* \"#utility.yul\":9458:9492   */\n      tag_110\n      jump\t// in\n    tag_226:\n        /* \"#utility.yul\":9440:9493   */\n      tag_90\n      jump\t// in\n    tag_225:\n        /* \"#utility.yul\":9427:9493   */\n      swap1\n      pop\n        /* \"#utility.yul\":9357:9499   */\n      swap2\n      swap1\n      pop\n      jump\t// out\n        /* \"#utility.yul\":9505:9580   */\n    tag_112:\n        /* \"#utility.yul\":9548:9551   */\n      0x00\n        /* \"#utility.yul\":9569:9574   */\n      dup2\n        /* \"#utility.yul\":9562:9574   */\n      swap1\n      pop\n        /* \"#utility.yul\":9505:9580   */\n      swap2\n      swap1\n      pop\n      jump\t// out\n        /* \"#utility.yul\":9586:9855   */\n    tag_113:\n        /* \"#utility.yul\":9696:9735   */\n      tag_230\n        /* \"#utility.yul\":9727:9734   */\n      dup4\n        /* \"#utility.yul\":9696:9735   */\n      tag_111\n      jump\t// in\n    tag_230:\n        /* \"#utility.yul\":9757:9848   */\n      tag_231\n        /* \"#utility.yul\":9806:9847   */\n      tag_232\n        /* \"#utility.yul\":9830:9846   */\n      dup3\n        /* \"#utility.yul\":9806:9847   */\n      tag_112\n      jump\t// in\n    tag_232:\n        /* \"#utility.yul\":9798:9804   */\n      dup5\n        /* \"#utility.yul\":9791:9795   */\n      dup5\n        /* \"#utility.yul\":9785:9796   */\n      sload\n        /* \"#utility.yul\":9757:9848   */\n      tag_109\n      jump\t// in\n    tag_231:\n        /* \"#utility.yul\":9751:9755   */\n      dup3\n        /* \"#utility.yul\":9744:9849   */\n      sstore\n        /* \"#utility.yul\":9662:9855   */\n      pop\n        /* \"#utility.yul\":9586:9855   */\n      pop\n      pop\n      pop\n      jump\t// out\n        /* \"#utility.yul\":9861:9934   */\n    tag_114:\n        /* \"#utility.yul\":9906:9909   */\n      0x00\n        /* \"#utility.yul\":9927:9928   */\n      0x00\n        /* \"#utility.yul\":9920:9928   */\n      swap1\n      pop\n        /* \"#utility.yul\":9861:9934   */\n      swap1\n      jump\t// out\n        /* \"#utility.yul\":9940:10129   */\n    tag_115:\n        /* \"#utility.yul\":10017:10049   */\n      tag_235\n      tag_114\n      jump\t// in\n    tag_235:\n        /* \"#utility.yul\":10058:10123   */\n      tag_236\n        /* \"#utility.yul\":10116:10122   */\n      dup2\n        /* \"#utility.yul\":10108:10114   */\n      dup5\n        /* \"#utility.yul\":10102:10106   */\n      dup5\n        /* \"#utility.yul\":10058:10123   */\n      tag_113\n      jump\t// in\n    tag_236:\n        /* \"#utility.yul\":9993:10129   */\n      pop\n        /* \"#utility.yul\":9940:10129   */\n      pop\n      pop\n      jump\t// out\n        /* \"#utility.yul\":10135:10321   */\n    tag_116:\n        /* \"#utility.yul\":10195:10315   */\n    tag_238:\n        /* \"#utility.yul\":10212:10215   */\n      dup2\n        /* \"#utility.yul\":10205:10210   */\n      dup2\n        /* \"#utility.yul\":10202:10216   */\n      lt\n        /* \"#utility.yul\":10195:10315   */\n      iszero\n      tag_240\n      jumpi\n        /* \"#utility.yul\":10266:10305   */\n      tag_241\n        /* \"#utility.yul\":10303:10304   */\n      0x00\n        /* \"#utility.yul\":10296:10301   */\n      dup3\n        /* \"#utility.yul\":10266:10305   */\n      tag_115\n      jump\t// in\n    tag_241:\n        /* \"#utility.yul\":10239:10240   */\n      0x01\n        /* \"#utility.yul\":10232:10237   */\n      dup2\n        /* \"#utility.yul\":10228:10241   */\n      add\n        /* \"#utility.yul\":10219:10241   */\n      swap1\n      pop\n        /* \"#utility.yul\":10195:10315   */\n      jump(tag_238)\n    tag_240:\n        /* \"#utility.yul\":10135:10321   */\n      pop\n      pop\n      jump\t// out\n        /* \"#utility.yul\":10327:10870   */\n    tag_117:\n        /* \"#utility.yul\":10428:10430   */\n      0x1f\n        /* \"#utility.yul\":10423:10426   */\n      dup3\n        /* \"#utility.yul\":10420:10431   */\n      gt\n        /* \"#utility.yul\":10417:10863   */\n      iszero\n      tag_243\n      jumpi\n        /* \"#utility.yul\":10462:10500   */\n      tag_244\n        /* \"#utility.yul\":10494:10499   */\n      dup2\n        /* \"#utility.yul\":10462:10500   */\n      tag_106\n      jump\t// in\n    tag_244:\n        /* \"#utility.yul\":10546:10575   */\n      tag_245\n        /* \"#utility.yul\":10564:10574   */\n      dup5\n        /* \"#utility.yul\":10546:10575   */\n      tag_107\n      jump\t// in\n    tag_245:\n        /* \"#utility.yul\":10536:10544   */\n      dup2\n        /* \"#utility.yul\":10532:10576   */\n      add\n        /* \"#utility.yul\":10729:10731   */\n      0x20\n        /* \"#utility.yul\":10717:10727   */\n      dup6\n        /* \"#utility.yul\":10714:10732   */\n      lt\n        /* \"#utility.yul\":10711:10760   */\n      iszero\n      tag_246\n      jumpi\n        /* \"#utility.yul\":10750:10758   */\n      dup2\n        /* \"#utility.yul\":10735:10758   */\n      swap1\n      pop\n        /* \"#utility.yul\":10711:10760   */\n    tag_246:\n        /* \"#utility.yul\":10773:10853   */\n      tag_247\n        /* \"#utility.yul\":10829:10851   */\n      tag_248\n        /* \"#utility.yul\":10847:10850   */\n      dup6\n        /* \"#utility.yul\":10829:10851   */\n      tag_107\n      jump\t// in\n    tag_248:\n        /* \"#utility.yul\":10819:10827   */\n      dup4\n        /* \"#utility.yul\":10815:10852   */\n      add\n        /* \"#utility.yul\":10802:10813   */\n      dup3\n        /* \"#utility.yul\":10773:10853   */\n      tag_116\n      jump\t// in\n    tag_247:\n        /* \"#utility.yul\":10432:10863   */\n      pop\n      pop\n        /* \"#utility.yul\":10417:10863   */\n    tag_243:\n        /* \"#utility.yul\":10327:10870   */\n      pop\n      pop\n      pop\n      jump\t// out\n        /* \"#utility.yul\":10876:10993   */\n    tag_118:\n        /* \"#utility.yul\":10930:10938   */\n      0x00\n        /* \"#utility.yul\":10980:10985   */\n      dup3\n        /* \"#utility.yul\":10974:10978   */\n      dup3\n        /* \"#utility.yul\":10970:10986   */\n      shr\n        /* \"#utility.yul\":10949:10986   */\n      swap1\n      pop\n        /* \"#utility.yul\":10876:10993   */\n      swap3\n      swap2\n      pop\n      pop\n      jump\t// out\n        /* \"#utility.yul\":10999:11168   */\n    tag_119:\n        /* \"#utility.yul\":11043:11049   */\n      0x00\n        /* \"#utility.yul\":11076:11127   */\n      tag_251\n        /* \"#utility.yul\":11124:11125   */\n      0x00\n        /* \"#utility.yul\":11120:11126   */\n      not\n        /* \"#utility.yul\":11112:11117   */\n      dup5\n        /* \"#utility.yul\":11109:11110   */\n      0x08\n        /* \"#utility.yul\":11105:11118   */\n      mul\n        /* \"#utility.yul\":11076:11127   */\n      tag_118\n      jump\t// in\n    tag_251:\n        /* \"#utility.yul\":11072:11128   */\n      not\n        /* \"#utility.yul\":11157:11161   */\n      dup1\n        /* \"#utility.yul\":11151:11155   */\n      dup4\n        /* \"#utility.yul\":11147:11162   */\n      and\n        /* \"#utility.yul\":11137:11162   */\n      swap2\n      pop\n        /* \"#utility.yul\":11050:11168   */\n      pop\n        /* \"#utility.yul\":10999:11168   */\n      swap3\n      swap2\n      pop\n      pop\n      jump\t// out\n        /* \"#utility.yul\":11173:11468   */\n    tag_120:\n        /* \"#utility.yul\":11249:11253   */\n      0x00\n        /* \"#utility.yul\":11395:11424   */\n      tag_253\n        /* \"#utility.yul\":11420:11423   */\n      dup4\n        /* \"#utility.yul\":11414:11418   */\n      dup4\n        /* \"#utility.yul\":11395:11424   */\n      tag_119\n      jump\t// in\n    tag_253:\n        /* \"#utility.yul\":11387:11424   */\n      swap2\n      pop\n        /* \"#utility.yul\":11457:11460   */\n      dup3\n        /* \"#utility.yul\":11454:11455   */\n      0x02\n        /* \"#utility.yul\":11450:11461   */\n      mul\n        /* \"#utility.yul\":11444:11448   */\n      dup3\n        /* \"#utility.yul\":11441:11462   */\n      or\n        /* \"#utility.yul\":11433:11462   */\n      swap1\n      pop\n        /* \"#utility.yul\":11173:11468   */\n      swap3\n      swap2\n      pop\n      pop\n      jump\t// out\n        /* \"#utility.yul\":11473:12868   */\n    tag_55:\n        /* \"#utility.yul\":11590:11627   */\n      tag_255\n        /* \"#utility.yul\":11623:11626   */\n      dup3\n        /* \"#utility.yul\":11590:11627   */\n      tag_79\n      jump\t// in\n    tag_255:\n        /* \"#utility.yul\":11692:11710   */\n      0xffffffffffffffff\n        /* \"#utility.yul\":11684:11690   */\n      dup2\n        /* \"#utility.yul\":11681:11711   */\n      gt\n        /* \"#utility.yul\":11678:11734   */\n      iszero\n      tag_256\n      jumpi\n        /* \"#utility.yul\":11714:11732   */\n      tag_257\n      tag_97\n      jump\t// in\n    tag_257:\n        /* \"#utility.yul\":11678:11734   */\n    tag_256:\n        /* \"#utility.yul\":11758:11796   */\n      tag_258\n        /* \"#utility.yul\":11790:11794   */\n      dup3\n        /* \"#utility.yul\":11784:11795   */\n      sload\n        /* \"#utility.yul\":11758:11796   */\n      tag_40\n      jump\t// in\n    tag_258:\n        /* \"#utility.yul\":11843:11910   */\n      tag_259\n        /* \"#utility.yul\":11903:11909   */\n      dup3\n        /* \"#utility.yul\":11895:11901   */\n      dup3\n        /* \"#utility.yul\":11889:11893   */\n      dup6\n        /* \"#utility.yul\":11843:11910   */\n      tag_117\n      jump\t// in\n    tag_259:\n        /* \"#utility.yul\":11937:11938   */\n      0x00\n        /* \"#utility.yul\":11961:11965   */\n      0x20\n        /* \"#utility.yul\":11948:11965   */\n      swap1\n      pop\n        /* \"#utility.yul\":11993:11995   */\n      0x1f\n        /* \"#utility.yul\":11985:11991   */\n      dup4\n        /* \"#utility.yul\":11982:11996   */\n      gt\n        /* \"#utility.yul\":12010:12011   */\n      0x01\n        /* \"#utility.yul\":12005:12623   */\n      dup2\n      eq\n      tag_261\n      jumpi\n        /* \"#utility.yul\":12667:12668   */\n      0x00\n        /* \"#utility.yul\":12684:12690   */\n      dup5\n        /* \"#utility.yul\":12681:12758   */\n      iszero\n      tag_262\n      jumpi\n        /* \"#utility.yul\":12733:12742   */\n      dup3\n        /* \"#utility.yul\":12728:12731   */\n      dup8\n        /* \"#utility.yul\":12724:12743   */\n      add\n        /* \"#utility.yul\":12718:12744   */\n      mload\n        /* \"#utility.yul\":12709:12744   */\n      swap1\n      pop\n        /* \"#utility.yul\":12681:12758   */\n    tag_262:\n        /* \"#utility.yul\":12784:12851   */\n      tag_263\n        /* \"#utility.yul\":12844:12850   */\n      dup6\n        /* \"#utility.yul\":12837:12842   */\n      dup3\n        /* \"#utility.yul\":12784:12851   */\n      tag_120\n      jump\t// in\n    tag_263:\n        /* \"#utility.yul\":12778:12782   */\n      dup7\n        /* \"#utility.yul\":12771:12852   */\n      sstore\n        /* \"#utility.yul\":12640:12862   */\n      pop\n        /* \"#utility.yul\":11975:12862   */\n      jump(tag_260)\n        /* \"#utility.yul\":12005:12623   */\n    tag_261:\n        /* \"#utility.yul\":12057:12061   */\n      0x1f\n        /* \"#utility.yul\":12053:12062   */\n      not\n        /* \"#utility.yul\":12045:12051   */\n      dup5\n        /* \"#utility.yul\":12041:12063   */\n      and\n        /* \"#utility.yul\":12091:12128   */\n      tag_264\n        /* \"#utility.yul\":12123:12127   */\n      dup7\n        /* \"#utility.yul\":12091:12128   */\n      tag_106\n      jump\t// in\n    tag_264:\n        /* \"#utility.yul\":12150:12151   */\n      0x00\n        /* \"#utility.yul\":12164:12372   */\n    tag_265:\n        /* \"#utility.yul\":12178:12185   */\n      dup3\n        /* \"#utility.yul\":12175:12176   */\n      dup2\n        /* \"#utility.yul\":12172:12186   */\n      lt\n        /* \"#utility.yul\":12164:12372   */\n      iszero\n      tag_267\n      jumpi\n        /* \"#utility.yul\":12257:12266   */\n      dup5\n        /* \"#utility.yul\":12252:12255   */\n      dup10\n        /* \"#utility.yul\":12248:12267   */\n      add\n        /* \"#utility.yul\":12242:12268   */\n      mload\n        /* \"#utility.yul\":12234:12240   */\n      dup3\n        /* \"#utility.yul\":12227:12269   */\n      sstore\n        /* \"#utility.yul\":12308:12309   */\n      0x01\n        /* \"#utility.yul\":12300:12306   */\n      dup3\n        /* \"#utility.yul\":12296:12310   */\n      add\n        /* \"#utility.yul\":12286:12310   */\n      swap2\n      pop\n        /* \"#utility.yul\":12355:12357   */\n      0x20\n        /* \"#utility.yul\":12344:12353   */\n      dup6\n        /* \"#utility.yul\":12340:12358   */\n      add\n        /* \"#utility.yul\":12327:12358   */\n      swap5\n      pop\n        /* \"#utility.yul\":12201:12205   */\n      0x20\n        /* \"#utility.yul\":12198:12199   */\n      dup2\n        /* \"#utility.yul\":12194:12206   */\n      add\n        /* \"#utility.yul\":12189:12206   */\n      swap1\n      pop\n        /* \"#utility.yul\":12164:12372   */\n      jump(tag_265)\n    tag_267:\n        /* \"#utility.yul\":12400:12406   */\n      dup7\n        /* \"#utility.yul\":12391:12398   */\n      dup4\n        /* \"#utility.yul\":12388:12407   */\n      lt\n        /* \"#utility.yul\":12385:12564   */\n      iszero\n      tag_268\n      jumpi\n        /* \"#utility.yul\":12458:12467   */\n      dup5\n        /* \"#utility.yul\":12453:12456   */\n      dup10\n        /* \"#utility.yul\":12449:12468   */\n      add\n        /* \"#utility.yul\":12443:12469   */\n      mload\n        /* \"#utility.yul\":12501:12549   */\n      tag_269\n        /* \"#utility.yul\":12543:12547   */\n      0x1f\n        /* \"#utility.yul\":12535:12541   */\n      dup10\n        /* \"#utility.yul\":12531:12548   */\n      and\n        /* \"#utility.yul\":12520:12529   */\n      dup3\n        /* \"#utility.yul\":12501:12549   */\n      tag_119\n      jump\t// in\n    tag_269:\n        /* \"#utility.yul\":12493:12499   */\n      dup4\n        /* \"#utility.yul\":12486:12550   */\n      sstore\n        /* \"#utility.yul\":12408:12564   */\n      pop\n        /* \"#utility.yul\":12385:12564   */\n    tag_268:\n        /* \"#utility.yul\":12610:12611   */\n      0x01\n        /* \"#utility.yul\":12606:12607   */\n      0x02\n        /* \"#utility.yul\":12598:12604   */\n      dup9\n        /* \"#utility.yul\":12594:12608   */\n      mul\n        /* \"#utility.yul\":12590:12612   */\n      add\n        /* \"#utility.yul\":12584:12588   */\n      dup9\n        /* \"#utility.yul\":12577:12613   */\n      sstore\n        /* \"#utility.yul\":12012:12623   */\n      pop\n      pop\n      pop\n        /* \"#utility.yul\":11975:12862   */\n    tag_260:\n      pop\n        /* \"#utility.yul\":11565:12868   */\n      pop\n      pop\n      pop\n        /* \"#utility.yul\":11473:12868   */\n      pop\n      pop\n      jump\t// out\n        /* \"#utility.yul\":12874:13022   */\n    tag_121:\n        /* \"#utility.yul\":12976:12987   */\n      0x00\n        /* \"#utility.yul\":13013:13016   */\n      dup2\n        /* \"#utility.yul\":12998:13016   */\n      swap1\n      pop\n        /* \"#utility.yul\":12874:13022   */\n      swap3\n      swap2\n      pop\n      pop\n      jump\t// out\n        /* \"#utility.yul\":13028:13418   */\n    tag_122:\n        /* \"#utility.yul\":13134:13137   */\n      0x00\n        /* \"#utility.yul\":13162:13201   */\n      tag_272\n        /* \"#utility.yul\":13195:13200   */\n      dup3\n        /* \"#utility.yul\":13162:13201   */\n      tag_79\n      jump\t// in\n    tag_272:\n        /* \"#utility.yul\":13217:13306   */\n      tag_273\n        /* \"#utility.yul\":13299:13305   */\n      dup2\n        /* \"#utility.yul\":13294:13297   */\n      dup6\n        /* \"#utility.yul\":13217:13306   */\n      tag_121\n      jump\t// in\n    tag_273:\n        /* \"#utility.yul\":13210:13306   */\n      swap4\n      pop\n        /* \"#utility.yul\":13315:13380   */\n      tag_274\n        /* \"#utility.yul\":13373:13379   */\n      dup2\n        /* \"#utility.yul\":13368:13371   */\n      dup6\n        /* \"#utility.yul\":13361:13365   */\n      0x20\n        /* \"#utility.yul\":13354:13359   */\n      dup7\n        /* \"#utility.yul\":13350:13366   */\n      add\n        /* \"#utility.yul\":13315:13380   */\n      tag_81\n      jump\t// in\n    tag_274:\n        /* \"#utility.yul\":13405:13411   */\n      dup1\n        /* \"#utility.yul\":13400:13403   */\n      dup5\n        /* \"#utility.yul\":13396:13412   */\n      add\n        /* \"#utility.yul\":13389:13412   */\n      swap2\n      pop\n        /* \"#utility.yul\":13138:13418   */\n      pop\n        /* \"#utility.yul\":13028:13418   */\n      swap3\n      swap2\n      pop\n      pop\n      jump\t// out\n        /* \"#utility.yul\":13424:13699   */\n    tag_58:\n        /* \"#utility.yul\":13556:13559   */\n      0x00\n        /* \"#utility.yul\":13578:13673   */\n      tag_276\n        /* \"#utility.yul\":13669:13672   */\n      dup3\n        /* \"#utility.yul\":13660:13666   */\n      dup5\n        /* \"#utility.yul\":13578:13673   */\n      tag_122\n      jump\t// in\n    tag_276:\n        /* \"#utility.yul\":13571:13673   */\n      swap2\n      pop\n        /* \"#utility.yul\":13690:13693   */\n      dup2\n        /* \"#utility.yul\":13683:13693   */\n      swap1\n      pop\n        /* \"#utility.yul\":13424:13699   */\n      swap3\n      swap2\n      pop\n      pop\n      jump\t// out\n        /* \"#utility.yul\":13705:13885   */\n    tag_65:\n        /* \"#utility.yul\":13753:13830   */\n      0x4e487b7100000000000000000000000000000000000000000000000000000000\n        /* \"#utility.yul\":13750:13751   */\n      0x00\n        /* \"#utility.yul\":13743:13831   */\n      mstore\n        /* \"#utility.yul\":13850:13854   */\n      0x32\n        /* \"#utility.yul\":13847:13848   */\n      0x04\n        /* \"#utility.yul\":13840:13855   */\n      mstore\n        /* \"#utility.yul\":13874:13878   */\n      0x24\n        /* \"#utility.yul\":13871:13872   */\n      0x00\n        /* \"#utility.yul\":13864:13879   */\n      revert\n        /* \"#utility.yul\":13891:14038   */\n    tag_123:\n        /* \"#utility.yul\":13992:14003   */\n      0x00\n        /* \"#utility.yul\":14029:14032   */\n      dup2\n        /* \"#utility.yul\":14014:14032   */\n      swap1\n      pop\n        /* \"#utility.yul\":13891:14038   */\n      swap3\n      swap2\n      pop\n      pop\n      jump\t// out\n        /* \"#utility.yul\":14044:14188   */\n    tag_124:\n        /* \"#utility.yul\":14096:14100   */\n      0x00\n        /* \"#utility.yul\":14119:14122   */\n      dup2\n        /* \"#utility.yul\":14111:14122   */\n      swap1\n      pop\n        /* \"#utility.yul\":14142:14145   */\n      dup2\n        /* \"#utility.yul\":14139:14140   */\n      0x00\n        /* \"#utility.yul\":14132:14146   */\n      mstore\n        /* \"#utility.yul\":14176:14180   */\n      0x20\n        /* \"#utility.yul\":14173:14174   */\n      0x00\n        /* \"#utility.yul\":14163:14181   */\n      keccak256\n        /* \"#utility.yul\":14155:14181   */\n      swap1\n      pop\n        /* \"#utility.yul\":14044:14188   */\n      swap2\n      swap1\n      pop\n      jump\t// out\n        /* \"#utility.yul\":14216:15094   */\n    tag_125:\n        /* \"#utility.yul\":14321:14324   */\n      0x00\n        /* \"#utility.yul\":14358:14363   */\n      dup2\n        /* \"#utility.yul\":14352:14364   */\n      sload\n        /* \"#utility.yul\":14387:14423   */\n      tag_281\n        /* \"#utility.yul\":14413:14422   */\n      dup2\n        /* \"#utility.yul\":14387:14423   */\n      tag_40\n      jump\t// in\n    tag_281:\n        /* \"#utility.yul\":14439:14527   */\n      tag_282\n        /* \"#utility.yul\":14520:14526   */\n      dup2\n        /* \"#utility.yul\":14515:14518   */\n      dup7\n        /* \"#utility.yul\":14439:14527   */\n      tag_123\n      jump\t// in\n    tag_282:\n        /* \"#utility.yul\":14432:14527   */\n      swap5\n      pop\n        /* \"#utility.yul\":14558:14559   */\n      0x01\n        /* \"#utility.yul\":14547:14556   */\n      dup3\n        /* \"#utility.yul\":14543:14560   */\n      and\n        /* \"#utility.yul\":14574:14575   */\n      0x00\n        /* \"#utility.yul\":14569:14735   */\n      dup2\n      eq\n      tag_284\n      jumpi\n        /* \"#utility.yul\":14749:14750   */\n      0x01\n        /* \"#utility.yul\":14744:15088   */\n      dup2\n      eq\n      tag_285\n      jumpi\n        /* \"#utility.yul\":14536:15088   */\n      jump(tag_283)\n        /* \"#utility.yul\":14569:14735   */\n    tag_284:\n        /* \"#utility.yul\":14653:14657   */\n      0xff\n        /* \"#utility.yul\":14649:14658   */\n      not\n        /* \"#utility.yul\":14638:14647   */\n      dup4\n        /* \"#utility.yul\":14634:14659   */\n      and\n        /* \"#utility.yul\":14629:14632   */\n      dup7\n        /* \"#utility.yul\":14622:14660   */\n      mstore\n        /* \"#utility.yul\":14715:14721   */\n      dup2\n        /* \"#utility.yul\":14708:14722   */\n      iszero\n        /* \"#utility.yul\":14701:14723   */\n      iszero\n        /* \"#utility.yul\":14693:14699   */\n      dup3\n        /* \"#utility.yul\":14689:14724   */\n      mul\n        /* \"#utility.yul\":14684:14687   */\n      dup7\n        /* \"#utility.yul\":14680:14725   */\n      add\n        /* \"#utility.yul\":14673:14725   */\n      swap4\n      pop\n        /* \"#utility.yul\":14569:14735   */\n      jump(tag_283)\n        /* \"#utility.yul\":14744:15088   */\n    tag_285:\n        /* \"#utility.yul\":14811:14852   */\n      tag_286\n        /* \"#utility.yul\":14846:14851   */\n      dup6\n        /* \"#utility.yul\":14811:14852   */\n      tag_124\n      jump\t// in\n    tag_286:\n        /* \"#utility.yul\":14874:14875   */\n      0x00\n        /* \"#utility.yul\":14888:15042   */\n    tag_287:\n        /* \"#utility.yul\":14902:14908   */\n      dup4\n        /* \"#utility.yul\":14899:14900   */\n      dup2\n        /* \"#utility.yul\":14896:14909   */\n      lt\n        /* \"#utility.yul\":14888:15042   */\n      iszero\n      tag_289\n      jumpi\n        /* \"#utility.yul\":14976:14983   */\n      dup2\n        /* \"#utility.yul\":14970:14984   */\n      sload\n        /* \"#utility.yul\":14966:14967   */\n      dup2\n        /* \"#utility.yul\":14961:14964   */\n      dup10\n        /* \"#utility.yul\":14957:14968   */\n      add\n        /* \"#utility.yul\":14950:14985   */\n      mstore\n        /* \"#utility.yul\":15026:15027   */\n      0x01\n        /* \"#utility.yul\":15017:15024   */\n      dup3\n        /* \"#utility.yul\":15013:15028   */\n      add\n        /* \"#utility.yul\":15002:15028   */\n      swap2\n      pop\n        /* \"#utility.yul\":14924:14928   */\n      0x20\n        /* \"#utility.yul\":14921:14922   */\n      dup2\n        /* \"#utility.yul\":14917:14929   */\n      add\n        /* \"#utility.yul\":14912:14929   */\n      swap1\n      pop\n        /* \"#utility.yul\":14888:15042   */\n      jump(tag_287)\n    tag_289:\n        /* \"#utility.yul\":15071:15077   */\n      dup4\n        /* \"#utility.yul\":15066:15069   */\n      dup9\n        /* \"#utility.yul\":15062:15078   */\n      add\n        /* \"#utility.yul\":15055:15078   */\n      swap6\n      pop\n        /* \"#utility.yul\":14751:15088   */\n      pop\n      pop\n        /* \"#utility.yul\":14536:15088   */\n    tag_283:\n      pop\n        /* \"#utility.yul\":14325:15094   */\n      pop\n      pop\n        /* \"#utility.yul\":14216:15094   */\n      swap3\n      swap2\n      pop\n      pop\n      jump\t// out\n        /* \"#utility.yul\":15100:15373   */\n    tag_68:\n        /* \"#utility.yul\":15231:15234   */\n      0x00\n        /* \"#utility.yul\":15253:15347   */\n      tag_291\n        /* \"#utility.yul\":15343:15346   */\n      dup3\n        /* \"#utility.yul\":15334:15340   */\n      dup5\n        /* \"#utility.yul\":15253:15347   */\n      tag_125\n      jump\t// in\n    tag_291:\n        /* \"#utility.yul\":15246:15347   */\n      swap2\n      pop\n        /* \"#utility.yul\":15364:15367   */\n      dup2\n        /* \"#utility.yul\":15357:15367   */\n      swap1\n      pop\n        /* \"#utility.yul\":15100:15373   */\n      swap3\n      swap2\n      pop\n      pop\n      jump\t// out\n        /* \"#utility.yul\":15379:15548   */\n    tag_126:\n        /* \"#utility.yul\":15519:15540   */\n      0x43616e646964617465206e6f7420666f756e6400000000000000000000000000\n        /* \"#utility.yul\":15515:15516   */\n      0x00\n        /* \"#utility.yul\":15507:15513   */\n      dup3\n        /* \"#utility.yul\":15503:15517   */\n      add\n        /* \"#utility.yul\":15496:15541   */\n      mstore\n        /* \"#utility.yul\":15379:15548   */\n      pop\n      jump\t// out\n        /* \"#utility.yul\":15554:15920   */\n    tag_127:\n        /* \"#utility.yul\":15696:15699   */\n      0x00\n        /* \"#utility.yul\":15717:15784   */\n      tag_294\n        /* \"#utility.yul\":15781:15783   */\n      0x13\n        /* \"#utility.yul\":15776:15779   */\n      dup4\n        /* \"#utility.yul\":15717:15784   */\n      tag_93\n      jump\t// in\n    tag_294:\n        /* \"#utility.yul\":15710:15784   */\n      swap2\n      pop\n        /* \"#utility.yul\":15793:15886   */\n      tag_295\n        /* \"#utility.yul\":15882:15885   */\n      dup3\n        /* \"#utility.yul\":15793:15886   */\n      tag_126\n      jump\t// in\n    tag_295:\n        /* \"#utility.yul\":15911:15913   */\n      0x20\n        /* \"#utility.yul\":15906:15909   */\n      dup3\n        /* \"#utility.yul\":15902:15914   */\n      add\n        /* \"#utility.yul\":15895:15914   */\n      swap1\n      pop\n        /* \"#utility.yul\":15554:15920   */\n      swap2\n      swap1\n      pop\n      jump\t// out\n        /* \"#utility.yul\":15926:16345   */\n    tag_72:\n        /* \"#utility.yul\":16092:16096   */\n      0x00\n        /* \"#utility.yul\":16130:16132   */\n      0x20\n        /* \"#utility.yul\":16119:16128   */\n      dup3\n        /* \"#utility.yul\":16115:16133   */\n      add\n        /* \"#utility.yul\":16107:16133   */\n      swap1\n      pop\n        /* \"#utility.yul\":16179:16188   */\n      dup2\n        /* \"#utility.yul\":16173:16177   */\n      dup2\n        /* \"#utility.yul\":16169:16189   */\n      sub\n        /* \"#utility.yul\":16165:16166   */\n      0x00\n        /* \"#utility.yul\":16154:16163   */\n      dup4\n        /* \"#utility.yul\":16150:16167   */\n      add\n        /* \"#utility.yul\":16143:16190   */\n      mstore\n        /* \"#utility.yul\":16207:16338   */\n      tag_297\n        /* \"#utility.yul\":16333:16337   */\n      dup2\n        /* \"#utility.yul\":16207:16338   */\n      tag_127\n      jump\t// in\n    tag_297:\n        /* \"#utility.yul\":16199:16338   */\n      swap1\n      pop\n        /* \"#utility.yul\":15926:16345   */\n      swap2\n      swap1\n      pop\n      jump\t// out\n        /* \"#utility.yul\":16351:16531   */\n    tag_128:\n        /* \"#utility.yul\":16399:16476   */\n      0x4e487b7100000000000000000000000000000000000000000000000000000000\n        /* \"#utility.yul\":16396:16397   */\n      0x00\n        /* \"#utility.yul\":16389:16477   */\n      mstore\n        /* \"#utility.yul\":16496:16500   */\n      0x11\n        /* \"#utility.yul\":16493:16494   */\n      0x04\n        /* \"#utility.yul\":16486:16501   */\n      mstore\n        /* \"#utility.yul\":16520:16524   */\n      0x24\n        /* \"#utility.yul\":16517:16518   */\n      0x00\n        /* \"#utility.yul\":16510:16525   */\n      revert\n        /* \"#utility.yul\":16537:16728   */\n    tag_75:\n        /* \"#utility.yul\":16577:16580   */\n      0x00\n        /* \"#utility.yul\":16596:16616   */\n      tag_300\n        /* \"#utility.yul\":16614:16615   */\n      dup3\n        /* \"#utility.yul\":16596:16616   */\n      tag_90\n      jump\t// in\n    tag_300:\n        /* \"#utility.yul\":16591:16616   */\n      swap2\n      pop\n        /* \"#utility.yul\":16630:16650   */\n      tag_301\n        /* \"#utility.yul\":16648:16649   */\n      dup4\n        /* \"#utility.yul\":16630:16650   */\n      tag_90\n      jump\t// in\n    tag_301:\n        /* \"#utility.yul\":16625:16650   */\n      swap3\n      pop\n        /* \"#utility.yul\":16673:16674   */\n      dup3\n        /* \"#utility.yul\":16670:16671   */\n      dup3\n        /* \"#utility.yul\":16666:16675   */\n      add\n        /* \"#utility.yul\":16659:16675   */\n      swap1\n      pop\n        /* \"#utility.yul\":16694:16697   */\n      dup1\n        /* \"#utility.yul\":16691:16692   */\n      dup3\n        /* \"#utility.yul\":16688:16698   */\n      gt\n        /* \"#utility.yul\":16685:16721   */\n      iszero\n      tag_302\n      jumpi\n        /* \"#utility.yul\":16701:16719   */\n      tag_303\n      tag_128\n      jump\t// in\n    tag_303:\n        /* \"#utility.yul\":16685:16721   */\n    tag_302:\n        /* \"#utility.yul\":16537:16728   */\n      swap3\n      swap2\n      pop\n      pop\n      jump\t// out\n\n    auxdata: 0xa264697066735822122096cacee855319097b64d095cbb7b6a1aece6b13295fcfe679911d24bcb71530264736f6c634300081e0033\n}\n",
				"bytecode": {
					"linkReferences": {},
					"object": "608060405260405180606001604052806040518060400160405280600481526020017f416c65780000000000000000000000000000000000000000000000000000000081525081526020016040518060400160405280600381526020017f426f62000000000000000000000000000000000000000000000000000000000081525081526020016040518060400160405280600881526020017f53616d616e7468610000000000000000000000000000000000000000000000008152508152505f9060036100cd9291906100df565b503480156100d9575f5ffd5b506104bd565b828054828255905f5260205f20908101928215610125579160200282015b8281111561012457825182908161011491906103ee565b50916020019190600101906100fd565b5b5090506101329190610136565b5090565b5b80821115610155575f818161014c9190610159565b50600101610137565b5090565b50805461016590610215565b5f825580601f106101765750610193565b601f0160209004905f5260205f20908101906101929190610196565b5b50565b5b808211156101ad575f815f905550600101610197565b5090565b5f81519050919050565b7f4e487b71000000000000000000000000000000000000000000000000000000005f52604160045260245ffd5b7f4e487b71000000000000000000000000000000000000000000000000000000005f52602260045260245ffd5b5f600282049050600182168061022c57607f821691505b60208210810361023f5761023e6101e8565b5b50919050565b5f819050815f5260205f209050919050565b5f6020601f8301049050919050565b5f82821b905092915050565b5f600883026102a17fffffffffffffffffffffffffffffffffffffffffffffffffffffffffffffffff82610266565b6102ab8683610266565b95508019841693508086168417925050509392505050565b5f819050919050565b5f819050919050565b5f6102ef6102ea6102e5846102c3565b6102cc565b6102c3565b9050919050565b5f819050919050565b610308836102d5565b61031c610314826102f6565b848454610272565b825550505050565b5f5f905090565b610333610324565b61033e8184846102ff565b505050565b5b81811015610361576103565f8261032b565b600181019050610344565b5050565b601f8211156103a65761037781610245565b61038084610257565b8101602085101561038f578190505b6103a361039b85610257565b830182610343565b50505b505050565b5f82821c905092915050565b5f6103c65f19846008026103ab565b1980831691505092915050565b5f6103de83836103b7565b9150826002028217905092915050565b6103f7826101b1565b67ffffffffffffffff8111156104105761040f6101bb565b5b61041a8254610215565b610425828285610365565b5f60209050601f831160018114610456575f8415610444578287015190505b61044e85826103d3565b8655506104b5565b601f19841661046486610245565b5f5b8281101561048b57848901518255600182019150602085019450602081019050610466565b868310156104a857848901516104a4601f8916826103b7565b8355505b6001600288020188555050505b505050505050565b610ce1806104ca5f395ff3fe608060405234801561000f575f5ffd5b5060043610610060575f3560e01c806306a49fce146100645780633477ee2e14610082578063462e91ec146100b2578063805265e5146100ce578063b99ef1fa146100fe578063fc36e15b1461012e575b5f5ffd5b61006c61014a565b6040516100799190610556565b60405180910390f35b61009c600480360381019061009791906105ba565b61021d565b6040516100a9919061062d565b60405180910390f35b6100cc60048036038101906100c79190610779565b6102c2565b005b6100e860048036038101906100e39190610779565b6102f6565b6040516100f591906107cf565b60405180910390f35b61011860048036038101906101139190610779565b61031d565b60405161012591906107cf565b60405180910390f35b61014860048036038101906101439190610779565b61034a565b005b60605f805480602002602001604051908101604052809291908181526020015f905b82821015610214578382905f5260205f2001805461018990610815565b80601f01602080910402602001604051908101604052809291908181526020018280546101b590610815565b80156102005780601f106101d757610100808354040283529160200191610200565b820191905f5260205f20905b8154815290600101906020018083116101e357829003601f168201915b50505050508152602001906001019061016c565b50505050905090565b5f818154811061022b575f80fd5b905f5260205f20015f91509050805461024390610815565b80601f016020809104026020016040519081016040528092919081815260200182805461026f90610815565b80156102ba5780601f10610291576101008083540402835291602001916102ba565b820191905f5260205f20905b81548152906001019060200180831161029d57829003601f168201915b505050505081565b5f81908060018154018082558091505060019003905f5260205f20015f9091909190915090816102f291906109e5565b5050565b5f6001826040516103079190610aee565b9081526020016040518091039020549050919050565b6001818051602081018201805184825260208301602085012081835280955050505050505f915090505481565b5f5f90505f5f90505b5f805490508110156103b25782805190602001205f828154811061037a57610379610b04565b5b905f5260205f200160405161038f9190610bcd565b6040518091039020036103a557600191506103b2565b8080600101915050610353565b50806103f3576040517f08c379a00000000000000000000000000000000000000000000000000000000081526004016103ea90610c2d565b60405180910390fd5b600180836040516104049190610aee565b90815260200160405180910390205f8282546104209190610c78565b925050819055505050565b5f81519050919050565b5f82825260208201905092915050565b5f819050602082019050919050565b5f81519050919050565b5f82825260208201905092915050565b8281835e5f83830152505050565b5f601f19601f8301169050919050565b5f61049682610454565b6104a0818561045e565b93506104b081856020860161046e565b6104b98161047c565b840191505092915050565b5f6104cf838361048c565b905092915050565b5f602082019050919050565b5f6104ed8261042b565b6104f78185610435565b93508360208202850161050985610445565b805f5b85811015610544578484038952815161052585826104c4565b9450610530836104d7565b925060208a0199505060018101905061050c565b50829750879550505050505092915050565b5f6020820190508181035f83015261056e81846104e3565b905092915050565b5f604051905090565b5f5ffd5b5f5ffd5b5f819050919050565b61059981610587565b81146105a3575f5ffd5b50565b5f813590506105b481610590565b92915050565b5f602082840312156105cf576105ce61057f565b5b5f6105dc848285016105a6565b91505092915050565b5f82825260208201905092915050565b5f6105ff82610454565b61060981856105e5565b935061061981856020860161046e565b6106228161047c565b840191505092915050565b5f6020820190508181035f83015261064581846105f5565b905092915050565b5f5ffd5b5f5ffd5b7f4e487b71000000000000000000000000000000000000000000000000000000005f52604160045260245ffd5b61068b8261047c565b810181811067ffffffffffffffff821117156106aa576106a9610655565b5b80604052505050565b5f6106bc610576565b90506106c88282610682565b919050565b5f67ffffffffffffffff8211156106e7576106e6610655565b5b6106f08261047c565b9050602081019050919050565b828183375f83830152505050565b5f61071d610718846106cd565b6106b3565b90508281526020810184848401111561073957610738610651565b5b6107448482856106fd565b509392505050565b5f82601f8301126107605761075f61064d565b5b813561077084826020860161070b565b91505092915050565b5f6020828403121561078e5761078d61057f565b5b5f82013567ffffffffffffffff8111156107ab576107aa610583565b5b6107b78482850161074c565b91505092915050565b6107c981610587565b82525050565b5f6020820190506107e25f8301846107c0565b92915050565b7f4e487b71000000000000000000000000000000000000000000000000000000005f52602260045260245ffd5b5f600282049050600182168061082c57607f821691505b60208210810361083f5761083e6107e8565b5b50919050565b5f819050815f5260205f209050919050565b5f6020601f8301049050919050565b5f82821b905092915050565b5f600883026108a17fffffffffffffffffffffffffffffffffffffffffffffffffffffffffffffffff82610866565b6108ab8683610866565b95508019841693508086168417925050509392505050565b5f819050919050565b5f6108e66108e16108dc84610587565b6108c3565b610587565b9050919050565b5f819050919050565b6108ff836108cc565b61091361090b826108ed565b848454610872565b825550505050565b5f5f905090565b61092a61091b565b6109358184846108f6565b505050565b5b818110156109585761094d5f82610922565b60018101905061093b565b5050565b601f82111561099d5761096e81610845565b61097784610857565b81016020851015610986578190505b61099a61099285610857565b83018261093a565b50505b505050565b5f82821c905092915050565b5f6109bd5f19846008026109a2565b1980831691505092915050565b5f6109d583836109ae565b9150826002028217905092915050565b6109ee82610454565b67ffffffffffffffff811115610a0757610a06610655565b5b610a118254610815565b610a1c82828561095c565b5f60209050601f831160018114610a4d575f8415610a3b578287015190505b610a4585826109ca565b865550610aac565b601f198416610a5b86610845565b5f5b82811015610a8257848901518255600182019150602085019450602081019050610a5d565b86831015610a9f5784890151610a9b601f8916826109ae565b8355505b6001600288020188555050505b505050505050565b5f81905092915050565b5f610ac882610454565b610ad28185610ab4565b9350610ae281856020860161046e565b80840191505092915050565b5f610af98284610abe565b915081905092915050565b7f4e487b71000000000000000000000000000000000000000000000000000000005f52603260045260245ffd5b5f81905092915050565b5f819050815f5260205f209050919050565b5f8154610b5981610815565b610b638186610b31565b9450600182165f8114610b7d5760018114610b9257610bc4565b60ff1983168652811515820286019350610bc4565b610b9b85610b3b565b5f5b83811015610bbc57815481890152600182019150602081019050610b9d565b838801955050505b50505092915050565b5f610bd88284610b4d565b915081905092915050565b7f43616e646964617465206e6f7420666f756e64000000000000000000000000005f82015250565b5f610c176013836105e5565b9150610c2282610be3565b602082019050919050565b5f6020820190508181035f830152610c4481610c0b565b9050919050565b7f4e487b71000000000000000000000000000000000000000000000000000000005f52601160045260245ffd5b5f610c8282610587565b9150610c8d83610587565b9250828201905080821115610ca557610ca4610c4b565b5b9291505056fea264697066735822122096cacee855319097b64d095cbb7b6a1aece6b13295fcfe679911d24bcb71530264736f6c634300081e0033",
					"opcodes": "PUSH1 0x80 PUSH1 0x40 MSTORE PUSH1 0x40 MLOAD DUP1 PUSH1 0x60 ADD PUSH1 0x40 MSTORE DUP1 PUSH1 0x40 MLOAD DUP1 PUSH1 0x40 ADD PUSH1 0x40 MSTORE DUP1 PUSH1 0x4 DUP2 MSTORE PUSH1 0x20 ADD PUSH32 0x416C657800000000000000000000000000000000000000000000000000000000 DUP2 MSTORE POP DUP2 MSTORE PUSH1 0x20 ADD PUSH1 0x40 MLOAD DUP1 PUSH1 0x40 ADD PUSH1 0x40 MSTORE DUP1 PUSH1 0x3 DUP2 MSTORE PUSH1 0x20 ADD PUSH32 0x426F620000000000000000000000000000000000000000000000000000000000 DUP2 MSTORE POP DUP2 MSTORE PUSH1 0x20 ADD PUSH1 0x40 MLOAD DUP1 PUSH1 0x40 ADD PUSH1 0x40 MSTORE DUP1 PUSH1 0x8 DUP2 MSTORE PUSH1 0x20 ADD PUSH32 0x53616D616E746861000000000000000000000000000000000000000000000000 DUP2 MSTORE POP DUP2 MSTORE POP PUSH0 SWAP1 PUSH1 0x3 PUSH2 0xCD SWAP3 SWAP2 SWAP1 PUSH2 0xDF JUMP JUMPDEST POP CALLVALUE DUP1 ISZERO PUSH2 0xD9 JUMPI PUSH0 PUSH0 REVERT JUMPDEST POP PUSH2 0x4BD JUMP JUMPDEST DUP3 DUP1 SLOAD DUP3 DUP3 SSTORE SWAP1 PUSH0 MSTORE PUSH1 0x20 PUSH0 KECCAK256 SWAP1 DUP2 ADD SWAP3 DUP3 ISZERO PUSH2 0x125 JUMPI SWAP2 PUSH1 0x20 MUL DUP3 ADD JUMPDEST DUP3 DUP2 GT ISZERO PUSH2 0x124 JUMPI DUP3 MLOAD DUP3 SWAP1 DUP2 PUSH2 0x114 SWAP2 SWAP1 PUSH2 0x3EE JUMP JUMPDEST POP SWAP2 PUSH1 0x20 ADD SWAP2 SWAP1 PUSH1 0x1 ADD SWAP1 PUSH2 0xFD JUMP JUMPDEST JUMPDEST POP SWAP1 POP PUSH2 0x132 SWAP2 SWAP1 PUSH2 0x136 JUMP JUMPDEST POP SWAP1 JUMP JUMPDEST JUMPDEST DUP1 DUP3 GT ISZERO PUSH2 0x155 JUMPI PUSH0 DUP2 DUP2 PUSH2 0x14C SWAP2 SWAP1 PUSH2 0x159 JUMP JUMPDEST POP PUSH1 0x1 ADD PUSH2 0x137 JUMP JUMPDEST POP SWAP1 JUMP JUMPDEST POP DUP1 SLOAD PUSH2 0x165 SWAP1 PUSH2 0x215 JUMP JUMPDEST PUSH0 DUP3 SSTORE DUP1 PUSH1 0x1F LT PUSH2 0x176 JUMPI POP PUSH2 0x193 JUMP JUMPDEST PUSH1 0x1F ADD PUSH1 0x20 SWAP1 DIV SWAP1 PUSH0 MSTORE PUSH1 0x20 PUSH0 KECCAK256 SWAP1 DUP2 ADD SWAP1 PUSH2 0x192 SWAP2 SWAP1 PUSH2 0x196 JUMP JUMPDEST JUMPDEST POP JUMP JUMPDEST JUMPDEST DUP1 DUP3 GT ISZERO PUSH2 0x1AD JUMPI PUSH0 DUP2 PUSH0 SWAP1 SSTORE POP PUSH1 0x1 ADD PUSH2 0x197 JUMP JUMPDEST POP SWAP1 JUMP JUMPDEST PUSH0 DUP2 MLOAD SWAP1 POP SWAP2 SWAP1 POP JUMP JUMPDEST PUSH32 0x4E487B7100000000000000000000000000000000000000000000000000000000 PUSH0 MSTORE PUSH1 0x41 PUSH1 0x4 MSTORE PUSH1 0x24 PUSH0 REVERT JUMPDEST PUSH32 0x4E487B7100000000000000000000000000000000000000000000000000000000 PUSH0 MSTORE PUSH1 0x22 PUSH1 0x4 MSTORE PUSH1 0x24 PUSH0 REVERT JUMPDEST PUSH0 PUSH1 0x2 DUP3 DIV SWAP1 POP PUSH1 0x1 DUP3 AND DUP1 PUSH2 0x22C JUMPI PUSH1 0x7F DUP3 AND SWAP2 POP JUMPDEST PUSH1 0x20 DUP3 LT DUP2 SUB PUSH2 0x23F JUMPI PUSH2 0x23E PUSH2 0x1E8 JUMP JUMPDEST JUMPDEST POP SWAP2 SWAP1 POP JUMP JUMPDEST PUSH0 DUP2 SWAP1 POP DUP2 PUSH0 MSTORE PUSH1 0x20 PUSH0 KECCAK256 SWAP1 POP SWAP2 SWAP1 POP JUMP JUMPDEST PUSH0 PUSH1 0x20 PUSH1 0x1F DUP4 ADD DIV SWAP1 POP SWAP2 SWAP1 POP JUMP JUMPDEST PUSH0 DUP3 DUP3 SHL SWAP1 POP SWAP3 SWAP2 POP POP JUMP JUMPDEST PUSH0 PUSH1 0x8 DUP4 MUL PUSH2 0x2A1 PUSH32 0xFFFFFFFFFFFFFFFFFFFFFFFFFFFFFFFFFFFFFFFFFFFFFFFFFFFFFFFFFFFFFFFF DUP3 PUSH2 0x266 JUMP JUMPDEST PUSH2 0x2AB DUP7 DUP4 PUSH2 0x266 JUMP JUMPDEST SWAP6 POP DUP1 NOT DUP5 AND SWAP4 POP DUP1 DUP7 AND DUP5 OR SWAP3 POP POP POP SWAP4 SWAP3 POP POP POP JUMP JUMPDEST PUSH0 DUP2 SWAP1 POP SWAP2 SWAP1 POP JUMP JUMPDEST PUSH0 DUP2 SWAP1 POP SWAP2 SWAP1 POP JUMP JUMPDEST PUSH0 PUSH2 0x2EF PUSH2 0x2EA PUSH2 0x2E5 DUP5 PUSH2 0x2C3 JUMP JUMPDEST PUSH2 0x2CC JUMP JUMPDEST PUSH2 0x2C3 JUMP JUMPDEST SWAP1 POP SWAP2 SWAP1 POP JUMP JUMPDEST PUSH0 DUP2 SWAP1 POP SWAP2 SWAP1 POP JUMP JUMPDEST PUSH2 0x308 DUP4 PUSH2 0x2D5 JUMP JUMPDEST PUSH2 0x31C PUSH2 0x314 DUP3 PUSH2 0x2F6 JUMP JUMPDEST DUP5 DUP5 SLOAD PUSH2 0x272 JUMP JUMPDEST DUP3 SSTORE POP POP POP POP JUMP JUMPDEST PUSH0 PUSH0 SWAP1 POP SWAP1 JUMP JUMPDEST PUSH2 0x333 PUSH2 0x324 JUMP JUMPDEST PUSH2 0x33E DUP2 DUP5 DUP5 PUSH2 0x2FF JUMP JUMPDEST POP POP POP JUMP JUMPDEST JUMPDEST DUP2 DUP2 LT ISZERO PUSH2 0x361 JUMPI PUSH2 0x356 PUSH0 DUP3 PUSH2 0x32B JUMP JUMPDEST PUSH1 0x1 DUP2 ADD SWAP1 POP PUSH2 0x344 JUMP JUMPDEST POP POP JUMP JUMPDEST PUSH1 0x1F DUP3 GT ISZERO PUSH2 0x3A6 JUMPI PUSH2 0x377 DUP2 PUSH2 0x245 JUMP JUMPDEST PUSH2 0x380 DUP5 PUSH2 0x257 JUMP JUMPDEST DUP2 ADD PUSH1 0x20 DUP6 LT ISZERO PUSH2 0x38F JUMPI DUP2 SWAP1 POP JUMPDEST PUSH2 0x3A3 PUSH2 0x39B DUP6 PUSH2 0x257 JUMP JUMPDEST DUP4 ADD DUP3 PUSH2 0x343 JUMP JUMPDEST POP POP JUMPDEST POP POP POP JUMP JUMPDEST PUSH0 DUP3 DUP3 SHR SWAP1 POP SWAP3 SWAP2 POP POP JUMP JUMPDEST PUSH0 PUSH2 0x3C6 PUSH0 NOT DUP5 PUSH1 0x8 MUL PUSH2 0x3AB JUMP JUMPDEST NOT DUP1 DUP4 AND SWAP2 POP POP SWAP3 SWAP2 POP POP JUMP JUMPDEST PUSH0 PUSH2 0x3DE DUP4 DUP4 PUSH2 0x3B7 JUMP JUMPDEST SWAP2 POP DUP3 PUSH1 0x2 MUL DUP3 OR SWAP1 POP SWAP3 SWAP2 POP POP JUMP JUMPDEST PUSH2 0x3F7 DUP3 PUSH2 0x1B1 JUMP JUMPDEST PUSH8 0xFFFFFFFFFFFFFFFF DUP2 GT ISZERO PUSH2 0x410 JUMPI PUSH2 0x40F PUSH2 0x1BB JUMP JUMPDEST JUMPDEST PUSH2 0x41A DUP3 SLOAD PUSH2 0x215 JUMP JUMPDEST PUSH2 0x425 DUP3 DUP3 DUP6 PUSH2 0x365 JUMP JUMPDEST PUSH0 PUSH1 0x20 SWAP1 POP PUSH1 0x1F DUP4 GT PUSH1 0x1 DUP2 EQ PUSH2 0x456 JUMPI PUSH0 DUP5 ISZERO PUSH2 0x444 JUMPI DUP3 DUP8 ADD MLOAD SWAP1 POP JUMPDEST PUSH2 0x44E DUP6 DUP3 PUSH2 0x3D3 JUMP JUMPDEST DUP7 SSTORE POP PUSH2 0x4B5 JUMP JUMPDEST PUSH1 0x1F NOT DUP5 AND PUSH2 0x464 DUP7 PUSH2 0x245 JUMP JUMPDEST PUSH0 JUMPDEST DUP3 DUP2 LT ISZERO PUSH2 0x48B JUMPI DUP5 DUP10 ADD MLOAD DUP3 SSTORE PUSH1 0x1 DUP3 ADD SWAP2 POP PUSH1 0x20 DUP6 ADD SWAP5 POP PUSH1 0x20 DUP2 ADD SWAP1 POP PUSH2 0x466 JUMP JUMPDEST DUP7 DUP4 LT ISZERO PUSH2 0x4A8 JUMPI DUP5 DUP10 ADD MLOAD PUSH2 0x4A4 PUSH1 0x1F DUP10 AND DUP3 PUSH2 0x3B7 JUMP JUMPDEST DUP4 SSTORE POP JUMPDEST PUSH1 0x1 PUSH1 0x2 DUP9 MUL ADD DUP9 SSTORE POP POP POP JUMPDEST POP POP POP POP POP POP JUMP JUMPDEST PUSH2 0xCE1 DUP1 PUSH2 0x4CA PUSH0 CODECOPY PUSH0 RETURN INVALID PUSH1 0x80 PUSH1 0x40 MSTORE CALLVALUE DUP1 ISZERO PUSH2 0xF JUMPI PUSH0 PUSH0 REVERT JUMPDEST POP PUSH1 0x4 CALLDATASIZE LT PUSH2 0x60 JUMPI PUSH0 CALLDATALOAD PUSH1 0xE0 SHR DUP1 PUSH4 0x6A49FCE EQ PUSH2 0x64 JUMPI DUP1 PUSH4 0x3477EE2E EQ PUSH2 0x82 JUMPI DUP1 PUSH4 0x462E91EC EQ PUSH2 0xB2 JUMPI DUP1 PUSH4 0x805265E5 EQ PUSH2 0xCE JUMPI DUP1 PUSH4 0xB99EF1FA EQ PUSH2 0xFE JUMPI DUP1 PUSH4 0xFC36E15B EQ PUSH2 0x12E JUMPI JUMPDEST PUSH0 PUSH0 REVERT JUMPDEST PUSH2 0x6C PUSH2 0x14A JUMP JUMPDEST PUSH1 0x40 MLOAD PUSH2 0x79 SWAP2 SWAP1 PUSH2 0x556 JUMP JUMPDEST PUSH1 0x40 MLOAD DUP1 SWAP2 SUB SWAP1 RETURN JUMPDEST PUSH2 0x9C PUSH1 0x4 DUP1 CALLDATASIZE SUB DUP2 ADD SWAP1 PUSH2 0x97 SWAP2 SWAP1 PUSH2 0x5BA JUMP JUMPDEST PUSH2 0x21D JUMP JUMPDEST PUSH1 0x40 MLOAD PUSH2 0xA9 SWAP2 SWAP1 PUSH2 0x62D JUMP JUMPDEST PUSH1 0x40 MLOAD DUP1 SWAP2 SUB SWAP1 RETURN JUMPDEST PUSH2 0xCC PUSH1 0x4 DUP1 CALLDATASIZE SUB DUP2 ADD SWAP1 PUSH2 0xC7 SWAP2 SWAP1 PUSH2 0x779 JUMP JUMPDEST PUSH2 0x2C2 JUMP JUMPDEST STOP JUMPDEST PUSH2 0xE8 PUSH1 0x4 DUP1 CALLDATASIZE SUB DUP2 ADD SWAP1 PUSH2 0xE3 SWAP2 SWAP1 PUSH2 0x779 JUMP JUMPDEST PUSH2 0x2F6 JUMP JUMPDEST PUSH1 0x40 MLOAD PUSH2 0xF5 SWAP2 SWAP1 PUSH2 0x7CF JUMP JUMPDEST PUSH1 0x40 MLOAD DUP1 SWAP2 SUB SWAP1 RETURN JUMPDEST PUSH2 0x118 PUSH1 0x4 DUP1 CALLDATASIZE SUB DUP2 ADD SWAP1 PUSH2 0x113 SWAP2 SWAP1 PUSH2 0x779 JUMP JUMPDEST PUSH2 0x31D JUMP JUMPDEST PUSH1 0x40 MLOAD PUSH2 0x125 SWAP2 SWAP1 PUSH2 0x7CF JUMP JUMPDEST PUSH1 0x40 MLOAD DUP1 SWAP2 SUB SWAP1 RETURN JUMPDEST PUSH2 0x148 PUSH1 0x4 DUP1 CALLDATASIZE SUB DUP2 ADD SWAP1 PUSH2 0x143 SWAP2 SWAP1 PUSH2 0x779 JUMP JUMPDEST PUSH2 0x34A JUMP JUMPDEST STOP JUMPDEST PUSH1 0x60 PUSH0 DUP1 SLOAD DUP1 PUSH1 0x20 MUL PUSH1 0x20 ADD PUSH1 0x40 MLOAD SWAP1 DUP2 ADD PUSH1 0x40 MSTORE DUP1 SWAP3 SWAP2 SWAP1 DUP2 DUP2 MSTORE PUSH1 0x20 ADD PUSH0 SWAP1 JUMPDEST DUP3 DUP3 LT ISZERO PUSH2 0x214 JUMPI DUP4 DUP3 SWAP1 PUSH0 MSTORE PUSH1 0x20 PUSH0 KECCAK256 ADD DUP1 SLOAD PUSH2 0x189 SWAP1 PUSH2 0x815 JUMP JUMPDEST DUP1 PUSH1 0x1F ADD PUSH1 0x20 DUP1 SWAP2 DIV MUL PUSH1 0x20 ADD PUSH1 0x40 MLOAD SWAP1 DUP2 ADD PUSH1 0x40 MSTORE DUP1 SWAP3 SWAP2 SWAP1 DUP2 DUP2 MSTORE PUSH1 0x20 ADD DUP3 DUP1 SLOAD PUSH2 0x1B5 SWAP1 PUSH2 0x815 JUMP JUMPDEST DUP1 ISZERO PUSH2 0x200 JUMPI DUP1 PUSH1 0x1F LT PUSH2 0x1D7 JUMPI PUSH2 0x100 DUP1 DUP4 SLOAD DIV MUL DUP4 MSTORE SWAP2 PUSH1 0x20 ADD SWAP2 PUSH2 0x200 JUMP JUMPDEST DUP3 ADD SWAP2 SWAP1 PUSH0 MSTORE PUSH1 0x20 PUSH0 KECCAK256 SWAP1 JUMPDEST DUP2 SLOAD DUP2 MSTORE SWAP1 PUSH1 0x1 ADD SWAP1 PUSH1 0x20 ADD DUP1 DUP4 GT PUSH2 0x1E3 JUMPI DUP3 SWAP1 SUB PUSH1 0x1F AND DUP3 ADD SWAP2 JUMPDEST POP POP POP POP POP DUP2 MSTORE PUSH1 0x20 ADD SWAP1 PUSH1 0x1 ADD SWAP1 PUSH2 0x16C JUMP JUMPDEST POP POP POP POP SWAP1 POP SWAP1 JUMP JUMPDEST PUSH0 DUP2 DUP2 SLOAD DUP2 LT PUSH2 0x22B JUMPI PUSH0 DUP1 REVERT JUMPDEST SWAP1 PUSH0 MSTORE PUSH1 0x20 PUSH0 KECCAK256 ADD PUSH0 SWAP2 POP SWAP1 POP DUP1 SLOAD PUSH2 0x243 SWAP1 PUSH2 0x815 JUMP JUMPDEST DUP1 PUSH1 0x1F ADD PUSH1 0x20 DUP1 SWAP2 DIV MUL PUSH1 0x20 ADD PUSH1 0x40 MLOAD SWAP1 DUP2 ADD PUSH1 0x40 MSTORE DUP1 SWAP3 SWAP2 SWAP1 DUP2 DUP2 MSTORE PUSH1 0x20 ADD DUP3 DUP1 SLOAD PUSH2 0x26F SWAP1 PUSH2 0x815 JUMP JUMPDEST DUP1 ISZERO PUSH2 0x2BA JUMPI DUP1 PUSH1 0x1F LT PUSH2 0x291 JUMPI PUSH2 0x100 DUP1 DUP4 SLOAD DIV MUL DUP4 MSTORE SWAP2 PUSH1 0x20 ADD SWAP2 PUSH2 0x2BA JUMP JUMPDEST DUP3 ADD SWAP2 SWAP1 PUSH0 MSTORE PUSH1 0x20 PUSH0 KECCAK256 SWAP1 JUMPDEST DUP2 SLOAD DUP2 MSTORE SWAP1 PUSH1 0x1 ADD SWAP1 PUSH1 0x20 ADD DUP1 DUP4 GT PUSH2 0x29D JUMPI DUP3 SWAP1 SUB PUSH1 0x1F AND DUP3 ADD SWAP2 JUMPDEST POP POP POP POP POP DUP2 JUMP JUMPDEST PUSH0 DUP2 SWAP1 DUP1 PUSH1 0x1 DUP2 SLOAD ADD DUP1 DUP3 SSTORE DUP1 SWAP2 POP POP PUSH1 0x1 SWAP1 SUB SWAP1 PUSH0 MSTORE PUSH1 0x20 PUSH0 KECCAK256 ADD PUSH0 SWAP1 SWAP2 SWAP1 SWAP2 SWAP1 SWAP2 POP SWAP1 DUP2 PUSH2 0x2F2 SWAP2 SWAP1 PUSH2 0x9E5 JUMP JUMPDEST POP POP JUMP JUMPDEST PUSH0 PUSH1 0x1 DUP3 PUSH1 0x40 MLOAD PUSH2 0x307 SWAP2 SWAP1 PUSH2 0xAEE JUMP JUMPDEST SWAP1 DUP2 MSTORE PUSH1 0x20 ADD PUSH1 0x40 MLOAD DUP1 SWAP2 SUB SWAP1 KECCAK256 SLOAD SWAP1 POP SWAP2 SWAP1 POP JUMP JUMPDEST PUSH1 0x1 DUP2 DUP1 MLOAD PUSH1 0x20 DUP2 ADD DUP3 ADD DUP1 MLOAD DUP5 DUP3 MSTORE PUSH1 0x20 DUP4 ADD PUSH1 0x20 DUP6 ADD KECCAK256 DUP2 DUP4 MSTORE DUP1 SWAP6 POP POP POP POP POP POP PUSH0 SWAP2 POP SWAP1 POP SLOAD DUP2 JUMP JUMPDEST PUSH0 PUSH0 SWAP1 POP PUSH0 PUSH0 SWAP1 POP JUMPDEST PUSH0 DUP1 SLOAD SWAP1 POP DUP2 LT ISZERO PUSH2 0x3B2 JUMPI DUP3 DUP1 MLOAD SWAP1 PUSH1 0x20 ADD KECCAK256 PUSH0 DUP3 DUP2 SLOAD DUP2 LT PUSH2 0x37A JUMPI PUSH2 0x379 PUSH2 0xB04 JUMP JUMPDEST JUMPDEST SWAP1 PUSH0 MSTORE PUSH1 0x20 PUSH0 KECCAK256 ADD PUSH1 0x40 MLOAD PUSH2 0x38F SWAP2 SWAP1 PUSH2 0xBCD JUMP JUMPDEST PUSH1 0x40 MLOAD DUP1 SWAP2 SUB SWAP1 KECCAK256 SUB PUSH2 0x3A5 JUMPI PUSH1 0x1 SWAP2 POP PUSH2 0x3B2 JUMP JUMPDEST DUP1 DUP1 PUSH1 0x1 ADD SWAP2 POP POP PUSH2 0x353 JUMP JUMPDEST POP DUP1 PUSH2 0x3F3 JUMPI PUSH1 0x40 MLOAD PUSH32 0x8C379A000000000000000000000000000000000000000000000000000000000 DUP2 MSTORE PUSH1 0x4 ADD PUSH2 0x3EA SWAP1 PUSH2 0xC2D JUMP JUMPDEST PUSH1 0x40 MLOAD DUP1 SWAP2 SUB SWAP1 REVERT JUMPDEST PUSH1 0x1 DUP1 DUP4 PUSH1 0x40 MLOAD PUSH2 0x404 SWAP2 SWAP1 PUSH2 0xAEE JUMP JUMPDEST SWAP1 DUP2 MSTORE PUSH1 0x20 ADD PUSH1 0x40 MLOAD DUP1 SWAP2 SUB SWAP1 KECCAK256 PUSH0 DUP3 DUP3 SLOAD PUSH2 0x420 SWAP2 SWAP1 PUSH2 0xC78 JUMP JUMPDEST SWAP3 POP POP DUP2 SWAP1 SSTORE POP POP POP JUMP JUMPDEST PUSH0 DUP2 MLOAD SWAP1 POP SWAP2 SWAP1 POP JUMP JUMPDEST PUSH0 DUP3 DUP3 MSTORE PUSH1 0x20 DUP3 ADD SWAP1 POP SWAP3 SWAP2 POP POP JUMP JUMPDEST PUSH0 DUP2 SWAP1 POP PUSH1 0x20 DUP3 ADD SWAP1 POP SWAP2 SWAP1 POP JUMP JUMPDEST PUSH0 DUP2 MLOAD SWAP1 POP SWAP2 SWAP1 POP JUMP JUMPDEST PUSH0 DUP3 DUP3 MSTORE PUSH1 0x20 DUP3 ADD SWAP1 POP SWAP3 SWAP2 POP POP JUMP JUMPDEST DUP3 DUP2 DUP4 MCOPY PUSH0 DUP4 DUP4 ADD MSTORE POP POP POP JUMP JUMPDEST PUSH0 PUSH1 0x1F NOT PUSH1 0x1F DUP4 ADD AND SWAP1 POP SWAP2 SWAP1 POP JUMP JUMPDEST PUSH0 PUSH2 0x496 DUP3 PUSH2 0x454 JUMP JUMPDEST PUSH2 0x4A0 DUP2 DUP6 PUSH2 0x45E JUMP JUMPDEST SWAP4 POP PUSH2 0x4B0 DUP2 DUP6 PUSH1 0x20 DUP7 ADD PUSH2 0x46E JUMP JUMPDEST PUSH2 0x4B9 DUP2 PUSH2 0x47C JUMP JUMPDEST DUP5 ADD SWAP2 POP POP SWAP3 SWAP2 POP POP JUMP JUMPDEST PUSH0 PUSH2 0x4CF DUP4 DUP4 PUSH2 0x48C JUMP JUMPDEST SWAP1 POP SWAP3 SWAP2 POP POP JUMP JUMPDEST PUSH0 PUSH1 0x20 DUP3 ADD SWAP1 POP SWAP2 SWAP1 POP JUMP JUMPDEST PUSH0 PUSH2 0x4ED DUP3 PUSH2 0x42B JUMP JUMPDEST PUSH2 0x4F7 DUP2 DUP6 PUSH2 0x435 JUMP JUMPDEST SWAP4 POP DUP4 PUSH1 0x20 DUP3 MUL DUP6 ADD PUSH2 0x509 DUP6 PUSH2 0x445 JUMP JUMPDEST DUP1 PUSH0 JUMPDEST DUP6 DUP2 LT ISZERO PUSH2 0x544 JUMPI DUP5 DUP5 SUB DUP10 MSTORE DUP2 MLOAD PUSH2 0x525 DUP6 DUP3 PUSH2 0x4C4 JUMP JUMPDEST SWAP5 POP PUSH2 0x530 DUP4 PUSH2 0x4D7 JUMP JUMPDEST SWAP3 POP PUSH1 0x20 DUP11 ADD SWAP10 POP POP PUSH1 0x1 DUP2 ADD SWAP1 POP PUSH2 0x50C JUMP JUMPDEST POP DUP3 SWAP8 POP DUP8 SWAP6 POP POP POP POP POP POP SWAP3 SWAP2 POP POP JUMP JUMPDEST PUSH0 PUSH1 0x20 DUP3 ADD SWAP1 POP DUP2 DUP2 SUB PUSH0 DUP4 ADD MSTORE PUSH2 0x56E DUP2 DUP5 PUSH2 0x4E3 JUMP JUMPDEST SWAP1 POP SWAP3 SWAP2 POP POP JUMP JUMPDEST PUSH0 PUSH1 0x40 MLOAD SWAP1 POP SWAP1 JUMP JUMPDEST PUSH0 PUSH0 REVERT JUMPDEST PUSH0 PUSH0 REVERT JUMPDEST PUSH0 DUP2 SWAP1 POP SWAP2 SWAP1 POP JUMP JUMPDEST PUSH2 0x599 DUP2 PUSH2 0x587 JUMP JUMPDEST DUP2 EQ PUSH2 0x5A3 JUMPI PUSH0 PUSH0 REVERT JUMPDEST POP JUMP JUMPDEST PUSH0 DUP2 CALLDATALOAD SWAP1 POP PUSH2 0x5B4 DUP2 PUSH2 0x590 JUMP JUMPDEST SWAP3 SWAP2 POP POP JUMP JUMPDEST PUSH0 PUSH1 0x20 DUP3 DUP5 SUB SLT ISZERO PUSH2 0x5CF JUMPI PUSH2 0x5CE PUSH2 0x57F JUMP JUMPDEST JUMPDEST PUSH0 PUSH2 0x5DC DUP5 DUP3 DUP6 ADD PUSH2 0x5A6 JUMP JUMPDEST SWAP2 POP POP SWAP3 SWAP2 POP POP JUMP JUMPDEST PUSH0 DUP3 DUP3 MSTORE PUSH1 0x20 DUP3 ADD SWAP1 POP SWAP3 SWAP2 POP POP JUMP JUMPDEST PUSH0 PUSH2 0x5FF DUP3 PUSH2 0x454 JUMP JUMPDEST PUSH2 0x609 DUP2 DUP6 PUSH2 0x5E5 JUMP JUMPDEST SWAP4 POP PUSH2 0x619 DUP2 DUP6 PUSH1 0x20 DUP7 ADD PUSH2 0x46E JUMP JUMPDEST PUSH2 0x622 DUP2 PUSH2 0x47C JUMP JUMPDEST DUP5 ADD SWAP2 POP POP SWAP3 SWAP2 POP POP JUMP JUMPDEST PUSH0 PUSH1 0x20 DUP3 ADD SWAP1 POP DUP2 DUP2 SUB PUSH0 DUP4 ADD MSTORE PUSH2 0x645 DUP2 DUP5 PUSH2 0x5F5 JUMP JUMPDEST SWAP1 POP SWAP3 SWAP2 POP POP JUMP JUMPDEST PUSH0 PUSH0 REVERT JUMPDEST PUSH0 PUSH0 REVERT JUMPDEST PUSH32 0x4E487B7100000000000000000000000000000000000000000000000000000000 PUSH0 MSTORE PUSH1 0x41 PUSH1 0x4 MSTORE PUSH1 0x24 PUSH0 REVERT JUMPDEST PUSH2 0x68B DUP3 PUSH2 0x47C JUMP JUMPDEST DUP2 ADD DUP2 DUP2 LT PUSH8 0xFFFFFFFFFFFFFFFF DUP3 GT OR ISZERO PUSH2 0x6AA JUMPI PUSH2 0x6A9 PUSH2 0x655 JUMP JUMPDEST JUMPDEST DUP1 PUSH1 0x40 MSTORE POP POP POP JUMP JUMPDEST PUSH0 PUSH2 0x6BC PUSH2 0x576 JUMP JUMPDEST SWAP1 POP PUSH2 0x6C8 DUP3 DUP3 PUSH2 0x682 JUMP JUMPDEST SWAP2 SWAP1 POP JUMP JUMPDEST PUSH0 PUSH8 0xFFFFFFFFFFFFFFFF DUP3 GT ISZERO PUSH2 0x6E7 JUMPI PUSH2 0x6E6 PUSH2 0x655 JUMP JUMPDEST JUMPDEST PUSH2 0x6F0 DUP3 PUSH2 0x47C JUMP JUMPDEST SWAP1 POP PUSH1 0x20 DUP2 ADD SWAP1 POP SWAP2 SWAP1 POP JUMP JUMPDEST DUP3 DUP2 DUP4 CALLDATACOPY PUSH0 DUP4 DUP4 ADD MSTORE POP POP POP JUMP JUMPDEST PUSH0 PUSH2 0x71D PUSH2 0x718 DUP5 PUSH2 0x6CD JUMP JUMPDEST PUSH2 0x6B3 JUMP JUMPDEST SWAP1 POP DUP3 DUP2 MSTORE PUSH1 0x20 DUP2 ADD DUP5 DUP5 DUP5 ADD GT ISZERO PUSH2 0x739 JUMPI PUSH2 0x738 PUSH2 0x651 JUMP JUMPDEST JUMPDEST PUSH2 0x744 DUP5 DUP3 DUP6 PUSH2 0x6FD JUMP JUMPDEST POP SWAP4 SWAP3 POP POP POP JUMP JUMPDEST PUSH0 DUP3 PUSH1 0x1F DUP4 ADD SLT PUSH2 0x760 JUMPI PUSH2 0x75F PUSH2 0x64D JUMP JUMPDEST JUMPDEST DUP2 CALLDATALOAD PUSH2 0x770 DUP5 DUP3 PUSH1 0x20 DUP7 ADD PUSH2 0x70B JUMP JUMPDEST SWAP2 POP POP SWAP3 SWAP2 POP POP JUMP JUMPDEST PUSH0 PUSH1 0x20 DUP3 DUP5 SUB SLT ISZERO PUSH2 0x78E JUMPI PUSH2 0x78D PUSH2 0x57F JUMP JUMPDEST JUMPDEST PUSH0 DUP3 ADD CALLDATALOAD PUSH8 0xFFFFFFFFFFFFFFFF DUP2 GT ISZERO PUSH2 0x7AB JUMPI PUSH2 0x7AA PUSH2 0x583 JUMP JUMPDEST JUMPDEST PUSH2 0x7B7 DUP5 DUP3 DUP6 ADD PUSH2 0x74C JUMP JUMPDEST SWAP2 POP POP SWAP3 SWAP2 POP POP JUMP JUMPDEST PUSH2 0x7C9 DUP2 PUSH2 0x587 JUMP JUMPDEST DUP3 MSTORE POP POP JUMP JUMPDEST PUSH0 PUSH1 0x20 DUP3 ADD SWAP1 POP PUSH2 0x7E2 PUSH0 DUP4 ADD DUP5 PUSH2 0x7C0 JUMP JUMPDEST SWAP3 SWAP2 POP POP JUMP JUMPDEST PUSH32 0x4E487B7100000000000000000000000000000000000000000000000000000000 PUSH0 MSTORE PUSH1 0x22 PUSH1 0x4 MSTORE PUSH1 0x24 PUSH0 REVERT JUMPDEST PUSH0 PUSH1 0x2 DUP3 DIV SWAP1 POP PUSH1 0x1 DUP3 AND DUP1 PUSH2 0x82C JUMPI PUSH1 0x7F DUP3 AND SWAP2 POP JUMPDEST PUSH1 0x20 DUP3 LT DUP2 SUB PUSH2 0x83F JUMPI PUSH2 0x83E PUSH2 0x7E8 JUMP JUMPDEST JUMPDEST POP SWAP2 SWAP1 POP JUMP JUMPDEST PUSH0 DUP2 SWAP1 POP DUP2 PUSH0 MSTORE PUSH1 0x20 PUSH0 KECCAK256 SWAP1 POP SWAP2 SWAP1 POP JUMP JUMPDEST PUSH0 PUSH1 0x20 PUSH1 0x1F DUP4 ADD DIV SWAP1 POP SWAP2 SWAP1 POP JUMP JUMPDEST PUSH0 DUP3 DUP3 SHL SWAP1 POP SWAP3 SWAP2 POP POP JUMP JUMPDEST PUSH0 PUSH1 0x8 DUP4 MUL PUSH2 0x8A1 PUSH32 0xFFFFFFFFFFFFFFFFFFFFFFFFFFFFFFFFFFFFFFFFFFFFFFFFFFFFFFFFFFFFFFFF DUP3 PUSH2 0x866 JUMP JUMPDEST PUSH2 0x8AB DUP7 DUP4 PUSH2 0x866 JUMP JUMPDEST SWAP6 POP DUP1 NOT DUP5 AND SWAP4 POP DUP1 DUP7 AND DUP5 OR SWAP3 POP POP POP SWAP4 SWAP3 POP POP POP JUMP JUMPDEST PUSH0 DUP2 SWAP1 POP SWAP2 SWAP1 POP JUMP JUMPDEST PUSH0 PUSH2 0x8E6 PUSH2 0x8E1 PUSH2 0x8DC DUP5 PUSH2 0x587 JUMP JUMPDEST PUSH2 0x8C3 JUMP JUMPDEST PUSH2 0x587 JUMP JUMPDEST SWAP1 POP SWAP2 SWAP1 POP JUMP JUMPDEST PUSH0 DUP2 SWAP1 POP SWAP2 SWAP1 POP JUMP JUMPDEST PUSH2 0x8FF DUP4 PUSH2 0x8CC JUMP JUMPDEST PUSH2 0x913 PUSH2 0x90B DUP3 PUSH2 0x8ED JUMP JUMPDEST DUP5 DUP5 SLOAD PUSH2 0x872 JUMP JUMPDEST DUP3 SSTORE POP POP POP POP JUMP JUMPDEST PUSH0 PUSH0 SWAP1 POP SWAP1 JUMP JUMPDEST PUSH2 0x92A PUSH2 0x91B JUMP JUMPDEST PUSH2 0x935 DUP2 DUP5 DUP5 PUSH2 0x8F6 JUMP JUMPDEST POP POP POP JUMP JUMPDEST JUMPDEST DUP2 DUP2 LT ISZERO PUSH2 0x958 JUMPI PUSH2 0x94D PUSH0 DUP3 PUSH2 0x922 JUMP JUMPDEST PUSH1 0x1 DUP2 ADD SWAP1 POP PUSH2 0x93B JUMP JUMPDEST POP POP JUMP JUMPDEST PUSH1 0x1F DUP3 GT ISZERO PUSH2 0x99D JUMPI PUSH2 0x96E DUP2 PUSH2 0x845 JUMP JUMPDEST PUSH2 0x977 DUP5 PUSH2 0x857 JUMP JUMPDEST DUP2 ADD PUSH1 0x20 DUP6 LT ISZERO PUSH2 0x986 JUMPI DUP2 SWAP1 POP JUMPDEST PUSH2 0x99A PUSH2 0x992 DUP6 PUSH2 0x857 JUMP JUMPDEST DUP4 ADD DUP3 PUSH2 0x93A JUMP JUMPDEST POP POP JUMPDEST POP POP POP JUMP JUMPDEST PUSH0 DUP3 DUP3 SHR SWAP1 POP SWAP3 SWAP2 POP POP JUMP JUMPDEST PUSH0 PUSH2 0x9BD PUSH0 NOT DUP5 PUSH1 0x8 MUL PUSH2 0x9A2 JUMP JUMPDEST NOT DUP1 DUP4 AND SWAP2 POP POP SWAP3 SWAP2 POP POP JUMP JUMPDEST PUSH0 PUSH2 0x9D5 DUP4 DUP4 PUSH2 0x9AE JUMP JUMPDEST SWAP2 POP DUP3 PUSH1 0x2 MUL DUP3 OR SWAP1 POP SWAP3 SWAP2 POP POP JUMP JUMPDEST PUSH2 0x9EE DUP3 PUSH2 0x454 JUMP JUMPDEST PUSH8 0xFFFFFFFFFFFFFFFF DUP2 GT ISZERO PUSH2 0xA07 JUMPI PUSH2 0xA06 PUSH2 0x655 JUMP JUMPDEST JUMPDEST PUSH2 0xA11 DUP3 SLOAD PUSH2 0x815 JUMP JUMPDEST PUSH2 0xA1C DUP3 DUP3 DUP6 PUSH2 0x95C JUMP JUMPDEST PUSH0 PUSH1 0x20 SWAP1 POP PUSH1 0x1F DUP4 GT PUSH1 0x1 DUP2 EQ PUSH2 0xA4D JUMPI PUSH0 DUP5 ISZERO PUSH2 0xA3B JUMPI DUP3 DUP8 ADD MLOAD SWAP1 POP JUMPDEST PUSH2 0xA45 DUP6 DUP3 PUSH2 0x9CA JUMP JUMPDEST DUP7 SSTORE POP PUSH2 0xAAC JUMP JUMPDEST PUSH1 0x1F NOT DUP5 AND PUSH2 0xA5B DUP7 PUSH2 0x845 JUMP JUMPDEST PUSH0 JUMPDEST DUP3 DUP2 LT ISZERO PUSH2 0xA82 JUMPI DUP5 DUP10 ADD MLOAD DUP3 SSTORE PUSH1 0x1 DUP3 ADD SWAP2 POP PUSH1 0x20 DUP6 ADD SWAP5 POP PUSH1 0x20 DUP2 ADD SWAP1 POP PUSH2 0xA5D JUMP JUMPDEST DUP7 DUP4 LT ISZERO PUSH2 0xA9F JUMPI DUP5 DUP10 ADD MLOAD PUSH2 0xA9B PUSH1 0x1F DUP10 AND DUP3 PUSH2 0x9AE JUMP JUMPDEST DUP4 SSTORE POP JUMPDEST PUSH1 0x1 PUSH1 0x2 DUP9 MUL ADD DUP9 SSTORE POP POP POP JUMPDEST POP POP POP POP POP POP JUMP JUMPDEST PUSH0 DUP2 SWAP1 POP SWAP3 SWAP2 POP POP JUMP JUMPDEST PUSH0 PUSH2 0xAC8 DUP3 PUSH2 0x454 JUMP JUMPDEST PUSH2 0xAD2 DUP2 DUP6 PUSH2 0xAB4 JUMP JUMPDEST SWAP4 POP PUSH2 0xAE2 DUP2 DUP6 PUSH1 0x20 DUP7 ADD PUSH2 0x46E JUMP JUMPDEST DUP1 DUP5 ADD SWAP2 POP POP SWAP3 SWAP2 POP POP JUMP JUMPDEST PUSH0 PUSH2 0xAF9 DUP3 DUP5 PUSH2 0xABE JUMP JUMPDEST SWAP2 POP DUP2 SWAP1 POP SWAP3 SWAP2 POP POP JUMP JUMPDEST PUSH32 0x4E487B7100000000000000000000000000000000000000000000000000000000 PUSH0 MSTORE PUSH1 0x32 PUSH1 0x4 MSTORE PUSH1 0x24 PUSH0 REVERT JUMPDEST PUSH0 DUP2 SWAP1 POP SWAP3 SWAP2 POP POP JUMP JUMPDEST PUSH0 DUP2 SWAP1 POP DUP2 PUSH0 MSTORE PUSH1 0x20 PUSH0 KECCAK256 SWAP1 POP SWAP2 SWAP1 POP JUMP JUMPDEST PUSH0 DUP2 SLOAD PUSH2 0xB59 DUP2 PUSH2 0x815 JUMP JUMPDEST PUSH2 0xB63 DUP2 DUP7 PUSH2 0xB31 JUMP JUMPDEST SWAP5 POP PUSH1 0x1 DUP3 AND PUSH0 DUP2 EQ PUSH2 0xB7D JUMPI PUSH1 0x1 DUP2 EQ PUSH2 0xB92 JUMPI PUSH2 0xBC4 JUMP JUMPDEST PUSH1 0xFF NOT DUP4 AND DUP7 MSTORE DUP2 ISZERO ISZERO DUP3 MUL DUP7 ADD SWAP4 POP PUSH2 0xBC4 JUMP JUMPDEST PUSH2 0xB9B DUP6 PUSH2 0xB3B JUMP JUMPDEST PUSH0 JUMPDEST DUP4 DUP2 LT ISZERO PUSH2 0xBBC JUMPI DUP2 SLOAD DUP2 DUP10 ADD MSTORE PUSH1 0x1 DUP3 ADD SWAP2 POP PUSH1 0x20 DUP2 ADD SWAP1 POP PUSH2 0xB9D JUMP JUMPDEST DUP4 DUP9 ADD SWAP6 POP POP POP JUMPDEST POP POP POP SWAP3 SWAP2 POP POP JUMP JUMPDEST PUSH0 PUSH2 0xBD8 DUP3 DUP5 PUSH2 0xB4D JUMP JUMPDEST SWAP2 POP DUP2 SWAP1 POP SWAP3 SWAP2 POP POP JUMP JUMPDEST PUSH32 0x43616E646964617465206E6F7420666F756E6400000000000000000000000000 PUSH0 DUP3 ADD MSTORE POP JUMP JUMPDEST PUSH0 PUSH2 0xC17 PUSH1 0x13 DUP4 PUSH2 0x5E5 JUMP JUMPDEST SWAP2 POP PUSH2 0xC22 DUP3 PUSH2 0xBE3 JUMP JUMPDEST PUSH1 0x20 DUP3 ADD SWAP1 POP SWAP2 SWAP1 POP JUMP JUMPDEST PUSH0 PUSH1 0x20 DUP3 ADD SWAP1 POP DUP2 DUP2 SUB PUSH0 DUP4 ADD MSTORE PUSH2 0xC44 DUP2 PUSH2 0xC0B JUMP JUMPDEST SWAP1 POP SWAP2 SWAP1 POP JUMP JUMPDEST PUSH32 0x4E487B7100000000000000000000000000000000000000000000000000000000 PUSH0 MSTORE PUSH1 0x11 PUSH1 0x4 MSTORE PUSH1 0x24 PUSH0 REVERT JUMPDEST PUSH0 PUSH2 0xC82 DUP3 PUSH2 0x587 JUMP JUMPDEST SWAP2 POP PUSH2 0xC8D DUP4 PUSH2 0x587 JUMP JUMPDEST SWAP3 POP DUP3 DUP3 ADD SWAP1 POP DUP1 DUP3 GT ISZERO PUSH2 0xCA5 JUMPI PUSH2 0xCA4 PUSH2 0xC4B JUMP JUMPDEST JUMPDEST SWAP3 SWAP2 POP POP JUMP INVALID LOG2 PUSH5 0x6970667358 0x22 SLT KECCAK256 SWAP7 0xCA 0xCE 0xE8 SSTORE BALANCE SWAP1 SWAP8 0xB6 0x4D MULMOD TLOAD 0xBB PUSH28 0x6A1AECE6B13295FCFE679911D24BCB71530264736F6C634300081E00 CALLER "
				},
				"gasEstimates": {
					"creation": {
						"codeDepositCost": "659400",
						"executionCost": "infinite",
						"totalCost": "infinite"
					},
					"external": {
						"addCandidate(string)": "infinite",
						"candidates(uint256)": "infinite",
						"getCandidates()": "infinite",
						"getVotes(string)": "infinite",
						"vote(string)": "infinite",
						"votes(string)": "infinite"
					}
				},
				"methodIdentifiers": {
					"addCandidate(string)": "462e91ec",
					"candidates(uint256)": "3477ee2e",
					"getCandidates()": "06a49fce",
					"getVotes(string)": "805265e5",
					"vote(string)": "fc36e15b",
					"votes(string)": "b99ef1fa"
				}
			},
			"storageLayout": {
				"storage": [
					{
						"astId": 8,
						"contract": "contracts/Voting.sol:Voting",
						"label": "candidates",
						"offset": 0,
						"slot": "0",
						"type": "t_array(t_string_storage)dyn_storage"
					},
					{
						"astId": 12,
						"contract": "contracts/Voting.sol:Voting",
						"label": "votes",
						"offset": 0,
						"slot": "1",
						"type": "t_mapping(t_string_memory_ptr,t_uint256)"
					}
				],
				"types": {
					"t_array(t_string_storage)dyn_storage": {
						"base": "t_string_storage",
						"encoding": "dynamic_array",
						"label": "string[]",
						"numberOfBytes": "32"
					},
					"t_mapping(t_string_memory_ptr,t_uint256)": {
						"encoding": "mapping",
						"key": "t_string_memory_ptr",
						"label": "mapping(string => uint256)",
						"numberOfBytes": "32",
						"value": "t_uint256"
					},
					"t_string_memory_ptr": {
						"encoding": "bytes",
						"label": "string",
						"numberOfBytes": "32"
					},
					"t_string_storage": {
						"encoding": "bytes",
						"label": "string",
						"numberOfBytes": "32"
					},
					"t_uint256": {
						"encoding": "inplace",
						"label": "uint256",
						"numberOfBytes": "32"
					}
				}
			},
			"userdoc": {
				"kind": "user",
				"methods": {},
				"version": 1
			}
		}
	}
}