{
	"contracts/ProductStore.sol": {
		"ProductStore": {
			"abi": [
				{
					"inputs": [
						{
							"internalType": "string",
							"name": "name",
							"type": "string"
						},
						{
							"internalType": "uint256",
							"name": "price",
							"type": "uint256"
						}
					],
					"name": "addProduct",
					"outputs": [],
					"stateMutability": "nonpayable",
					"type": "function"
				},
				{
					"inputs": [
						{
							"internalType": "uint256",
							"name": "index",
							"type": "uint256"
						}
					],
					"name": "buyProduct",
					"outputs": [],
					"stateMutability": "payable",
					"type": "function"
				},
				{
					"inputs": [],
					"name": "getProducts",
					"outputs": [
						{
							"components": [
								{
									"internalType": "string",
									"name": "name",
									"type": "string"
								},
								{
									"internalType": "uint256",
									"name": "price",
									"type": "uint256"
								}
							],
							"internalType": "struct ProductStore.Product[]",
							"name": "",
							"type": "tuple[]"
						}
					],
					"stateMutability": "view",
					"type": "function"
				},
				{
					"inputs": [
						{
							"internalType": "uint256",
							"name": "",
							"type": "uint256"
						}
					],
					"name": "products",
					"outputs": [
						{
							"internalType": "string",
							"name": "name",
							"type": "string"
						},
						{
							"internalType": "uint256",
							"name": "price",
							"type": "uint256"
						}
					],
					"stateMutability": "view",
					"type": "function"
				}
			],
			"devdoc": {
				"kind": "dev",
				"methods": {},
				"version": 1
			},
			"evm": {
				"assembly": "    /* \"contracts/ProductStore.sol\":72:828  contract ProductStore {... */\n  mstore(0x40, 0x80)\n  callvalue\n  dup1\n  iszero\n  tag_1\n  jumpi\n  revert(0x00, 0x00)\ntag_1:\n  pop\n  dataSize(sub_0)\n  dup1\n  dataOffset(sub_0)\n  0x00\n  codecopy\n  0x00\n  return\nstop\n\nsub_0: assembly {\n        /* \"contracts/ProductStore.sol\":72:828  contract ProductStore {... */\n      mstore(0x40, 0x80)\n      jumpi(tag_1, lt(calldatasize, 0x04))\n      shr(0xe0, calldataload(0x00))\n      dup1\n      0x7acc0b20\n      eq\n      tag_2\n      jumpi\n      dup1\n      0x8642269e\n      eq\n      tag_3\n      jumpi\n      dup1\n      0xb15247d9\n      eq\n      tag_4\n      jumpi\n      dup1\n      0xc29b2f20\n      eq\n      tag_5\n      jumpi\n    tag_1:\n      revert(0x00, 0x00)\n        /* \"contracts/ProductStore.sol\":183:208  Product[] public products */\n    tag_2:\n      callvalue\n      dup1\n      iszero\n      tag_6\n      jumpi\n      revert(0x00, 0x00)\n    tag_6:\n      pop\n      tag_7\n      0x04\n      dup1\n      calldatasize\n      sub\n      dup2\n      add\n      swap1\n      tag_8\n      swap2\n      swap1\n      tag_9\n      jump\t// in\n    tag_8:\n      tag_10\n      jump\t// in\n    tag_7:\n      mload(0x40)\n      tag_11\n      swap3\n      swap2\n      swap1\n      tag_12\n      jump\t// in\n    tag_11:\n      mload(0x40)\n      dup1\n      swap2\n      sub\n      swap1\n      return\n        /* \"contracts/ProductStore.sol\":338:725  function buyProduct (uint index) public payable {... */\n    tag_3:\n      tag_13\n      0x04\n      dup1\n      calldatasize\n      sub\n      dup2\n      add\n      swap1\n      tag_14\n      swap2\n      swap1\n      tag_9\n      jump\t// in\n    tag_14:\n      tag_15\n      jump\t// in\n    tag_13:\n      stop\n        /* \"contracts/ProductStore.sol\":217:332  function addProduct (string memory name, uint256 price) public{... */\n    tag_4:\n      callvalue\n      dup1\n      iszero\n      tag_16\n      jumpi\n      revert(0x00, 0x00)\n    tag_16:\n      pop\n      tag_17\n      0x04\n      dup1\n      calldatasize\n      sub\n      dup2\n      add\n      swap1\n      tag_18\n      swap2\n      swap1\n      tag_19\n      jump\t// in\n    tag_18:\n      tag_20\n      jump\t// in\n    tag_17:\n      stop\n        /* \"contracts/ProductStore.sol\":731:825  function getProducts() view public returns(Product[] memory){... */\n    tag_5:\n      callvalue\n      dup1\n      iszero\n      tag_21\n      jumpi\n      revert(0x00, 0x00)\n    tag_21:\n      pop\n      tag_22\n      tag_23\n      jump\t// in\n    tag_22:\n      mload(0x40)\n      tag_24\n      swap2\n      swap1\n      tag_25\n      jump\t// in\n    tag_24:\n      mload(0x40)\n      dup1\n      swap2\n      sub\n      swap1\n      return\n        /* \"contracts/ProductStore.sol\":183:208  Product[] public products */\n    tag_10:\n      0x00\n      dup2\n      dup2\n      sload\n      dup2\n      lt\n      tag_26\n      jumpi\n      0x00\n      dup1\n      revert\n    tag_26:\n      swap1\n      0x00\n      mstore\n      keccak256(0x00, 0x20)\n      swap1\n      0x02\n      mul\n      add\n      0x00\n      swap2\n      pop\n      swap1\n      pop\n      dup1\n      0x00\n      add\n      dup1\n      sload\n      tag_28\n      swap1\n      tag_29\n      jump\t// in\n    tag_28:\n      dup1\n      0x1f\n      add\n      0x20\n      dup1\n      swap2\n      div\n      mul\n      0x20\n      add\n      mload(0x40)\n      swap1\n      dup2\n      add\n      0x40\n      mstore\n      dup1\n      swap3\n      swap2\n      swap1\n      dup2\n      dup2\n      mstore\n      0x20\n      add\n      dup3\n      dup1\n      sload\n      tag_30\n      swap1\n      tag_29\n      jump\t// in\n    tag_30:\n      dup1\n      iszero\n      tag_31\n      jumpi\n      dup1\n      0x1f\n      lt\n      tag_32\n      jumpi\n      0x0100\n      dup1\n      dup4\n      sload\n      div\n      mul\n      dup4\n      mstore\n      swap2\n      0x20\n      add\n      swap2\n      jump(tag_31)\n    tag_32:\n      dup3\n      add\n      swap2\n      swap1\n      0x00\n      mstore\n      keccak256(0x00, 0x20)\n      swap1\n    tag_33:\n      dup2\n      sload\n      dup2\n      mstore\n      swap1\n      0x01\n      add\n      swap1\n      0x20\n      add\n      dup1\n      dup4\n      gt\n      tag_33\n      jumpi\n      dup3\n      swap1\n      sub\n      0x1f\n      and\n      dup3\n      add\n      swap2\n    tag_31:\n      pop\n      pop\n      pop\n      pop\n      pop\n      swap1\n      dup1\n      0x01\n      add\n      sload\n      swap1\n      pop\n      dup3\n      jump\t// out\n        /* \"contracts/ProductStore.sol\":338:725  function buyProduct (uint index) public payable {... */\n    tag_15:\n        /* \"contracts/ProductStore.sol\":413:421  products */\n      0x00\n        /* \"contracts/ProductStore.sol\":413:428  products.length */\n      dup1\n      sload\n      swap1\n      pop\n        /* \"contracts/ProductStore.sol\":405:410  index */\n      dup2\n        /* \"contracts/ProductStore.sol\":405:428  index < products.length */\n      lt\n        /* \"contracts/ProductStore.sol\":397:454  require(index < products.length, \"Invalid product index\") */\n      tag_35\n      jumpi\n      mload(0x40)\n      0x08c379a000000000000000000000000000000000000000000000000000000000\n      dup2\n      mstore\n      0x04\n      add\n      tag_36\n      swap1\n      tag_37\n      jump\t// in\n    tag_36:\n      mload(0x40)\n      dup1\n      swap2\n      sub\n      swap1\n      revert\n    tag_35:\n        /* \"contracts/ProductStore.sol\":465:487  Product memory product */\n      0x00\n        /* \"contracts/ProductStore.sol\":490:498  products */\n      0x00\n        /* \"contracts/ProductStore.sol\":499:504  index */\n      dup3\n        /* \"contracts/ProductStore.sol\":490:505  products[index] */\n      dup2\n      sload\n      dup2\n      lt\n      tag_38\n      jumpi\n      tag_39\n      tag_40\n      jump\t// in\n    tag_39:\n    tag_38:\n      swap1\n      0x00\n      mstore\n      keccak256(0x00, 0x20)\n      swap1\n      0x02\n      mul\n      add\n        /* \"contracts/ProductStore.sol\":465:505  Product memory product = products[index] */\n      mload(0x40)\n      dup1\n      0x40\n      add\n      0x40\n      mstore\n      swap1\n      dup2\n      0x00\n      dup3\n      add\n      dup1\n      sload\n      tag_42\n      swap1\n      tag_29\n      jump\t// in\n    tag_42:\n      dup1\n      0x1f\n      add\n      0x20\n      dup1\n      swap2\n      div\n      mul\n      0x20\n      add\n      mload(0x40)\n      swap1\n      dup2\n      add\n      0x40\n      mstore\n      dup1\n      swap3\n      swap2\n      swap1\n      dup2\n      dup2\n      mstore\n      0x20\n      add\n      dup3\n      dup1\n      sload\n      tag_43\n      swap1\n      tag_29\n      jump\t// in\n    tag_43:\n      dup1\n      iszero\n      tag_44\n      jumpi\n      dup1\n      0x1f\n      lt\n      tag_45\n      jumpi\n      0x0100\n      dup1\n      dup4\n      sload\n      div\n      mul\n      dup4\n      mstore\n      swap2\n      0x20\n      add\n      swap2\n      jump(tag_44)\n    tag_45:\n      dup3\n      add\n      swap2\n      swap1\n      0x00\n      mstore\n      keccak256(0x00, 0x20)\n      swap1\n    tag_46:\n      dup2\n      sload\n      dup2\n      mstore\n      swap1\n      0x01\n      add\n      swap1\n      0x20\n      add\n      dup1\n      dup4\n      gt\n      tag_46\n      jumpi\n      dup3\n      swap1\n      sub\n      0x1f\n      and\n      dup3\n      add\n      swap2\n    tag_44:\n      pop\n      pop\n      pop\n      pop\n      pop\n      dup2\n      mstore\n      0x20\n      add\n      0x01\n      dup3\n      add\n      sload\n      dup2\n      mstore\n      pop\n      pop\n      swap1\n      pop\n        /* \"contracts/ProductStore.sol\":537:544  product */\n      dup1\n        /* \"contracts/ProductStore.sol\":537:550  product.price */\n      0x20\n      add\n      mload\n        /* \"contracts/ProductStore.sol\":524:533  msg.value */\n      callvalue\n        /* \"contracts/ProductStore.sol\":524:550  msg.value >= product.price */\n      lt\n      iszero\n        /* \"contracts/ProductStore.sol\":516:574  require(msg.value >= product.price, \"Not enough ETH sent\") */\n      tag_47\n      jumpi\n      mload(0x40)\n      0x08c379a000000000000000000000000000000000000000000000000000000000\n      dup2\n      mstore\n      0x04\n      add\n      tag_48\n      swap1\n      tag_49\n      jump\t// in\n    tag_48:\n      mload(0x40)\n      dup1\n      swap2\n      sub\n      swap1\n      revert\n    tag_47:\n        /* \"contracts/ProductStore.sol\":611:618  product */\n      dup1\n        /* \"contracts/ProductStore.sol\":611:624  product.price */\n      0x20\n      add\n      mload\n        /* \"contracts/ProductStore.sol\":599:608  msg.value */\n      callvalue\n        /* \"contracts/ProductStore.sol\":599:624  msg.value > product.price */\n      gt\n        /* \"contracts/ProductStore.sol\":595:718  if (msg.value > product.price)... */\n      iszero\n      tag_50\n      jumpi\n        /* \"contracts/ProductStore.sol\":658:668  msg.sender */\n      caller\n        /* \"contracts/ProductStore.sol\":650:678  payable(msg.sender).transfer */\n      0xffffffffffffffffffffffffffffffffffffffff\n      and\n        /* \"contracts/ProductStore.sol\":650:706  payable(msg.sender).transfer (msg.value - product.price) */\n      0x08fc\n        /* \"contracts/ProductStore.sol\":692:699  product */\n      dup3\n        /* \"contracts/ProductStore.sol\":692:705  product.price */\n      0x20\n      add\n      mload\n        /* \"contracts/ProductStore.sol\":680:689  msg.value */\n      callvalue\n        /* \"contracts/ProductStore.sol\":680:705  msg.value - product.price */\n      tag_51\n      swap2\n      swap1\n      tag_52\n      jump\t// in\n    tag_51:\n        /* \"contracts/ProductStore.sol\":650:706  payable(msg.sender).transfer (msg.value - product.price) */\n      swap1\n      dup2\n      iszero\n      mul\n      swap1\n      mload(0x40)\n      0x00\n      mload(0x40)\n      dup1\n      dup4\n      sub\n      dup2\n      dup6\n      dup9\n      dup9\n      call\n      swap4\n      pop\n      pop\n      pop\n      pop\n      iszero\n      dup1\n      iszero\n      tag_54\n      jumpi\n      returndatacopy(0x00, 0x00, returndatasize)\n      revert(0x00, returndatasize)\n    tag_54:\n      pop\n        /* \"contracts/ProductStore.sol\":595:718  if (msg.value > product.price)... */\n    tag_50:\n        /* \"contracts/ProductStore.sol\":386:725  {... */\n      pop\n        /* \"contracts/ProductStore.sol\":338:725  function buyProduct (uint index) public payable {... */\n      pop\n      jump\t// out\n        /* \"contracts/ProductStore.sol\":217:332  function addProduct (string memory name, uint256 price) public{... */\n    tag_20:\n        /* \"contracts/ProductStore.sol\":290:298  products */\n      0x00\n        /* \"contracts/ProductStore.sol\":304:323  Product(name,price) */\n      mload(0x40)\n      dup1\n      0x40\n      add\n      0x40\n      mstore\n      dup1\n        /* \"contracts/ProductStore.sol\":312:316  name */\n      dup5\n        /* \"contracts/ProductStore.sol\":304:323  Product(name,price) */\n      dup2\n      mstore\n      0x20\n      add\n        /* \"contracts/ProductStore.sol\":317:322  price */\n      dup4\n        /* \"contracts/ProductStore.sol\":304:323  Product(name,price) */\n      dup2\n      mstore\n      pop\n        /* \"contracts/ProductStore.sol\":290:324  products.push(Product(name,price)) */\n      swap1\n      dup1\n      0x01\n      dup2\n      sload\n      add\n      dup1\n      dup3\n      sstore\n      dup1\n      swap2\n      pop\n      pop\n      0x01\n      swap1\n      sub\n      swap1\n      0x00\n      mstore\n      keccak256(0x00, 0x20)\n      swap1\n      0x02\n      mul\n      add\n      0x00\n      swap1\n      swap2\n      swap1\n      swap2\n      swap1\n      swap2\n      pop\n      0x00\n      dup3\n      add\n      mload\n      dup2\n      0x00\n      add\n      swap1\n      dup2\n      tag_57\n      swap2\n      swap1\n      tag_58\n      jump\t// in\n    tag_57:\n      pop\n      0x20\n      dup3\n      add\n      mload\n      dup2\n      0x01\n      add\n      sstore\n      pop\n      pop\n        /* \"contracts/ProductStore.sol\":217:332  function addProduct (string memory name, uint256 price) public{... */\n      pop\n      pop\n      jump\t// out\n        /* \"contracts/ProductStore.sol\":731:825  function getProducts() view public returns(Product[] memory){... */\n    tag_23:\n        /* \"contracts/ProductStore.sol\":774:790  Product[] memory */\n      0x60\n        /* \"contracts/ProductStore.sol\":809:817  products */\n      0x00\n        /* \"contracts/ProductStore.sol\":802:817  return products */\n      dup1\n      sload\n      dup1\n      0x20\n      mul\n      0x20\n      add\n      mload(0x40)\n      swap1\n      dup2\n      add\n      0x40\n      mstore\n      dup1\n      swap3\n      swap2\n      swap1\n      dup2\n      dup2\n      mstore\n      0x20\n      add\n      0x00\n      swap1\n    tag_60:\n      dup3\n      dup3\n      lt\n      iszero\n      tag_61\n      jumpi\n      dup4\n      dup3\n      swap1\n      0x00\n      mstore\n      keccak256(0x00, 0x20)\n      swap1\n      0x02\n      mul\n      add\n      mload(0x40)\n      dup1\n      0x40\n      add\n      0x40\n      mstore\n      swap1\n      dup2\n      0x00\n      dup3\n      add\n      dup1\n      sload\n      tag_63\n      swap1\n      tag_29\n      jump\t// in\n    tag_63:\n      dup1\n      0x1f\n      add\n      0x20\n      dup1\n      swap2\n      div\n      mul\n      0x20\n      add\n      mload(0x40)\n      swap1\n      dup2\n      add\n      0x40\n      mstore\n      dup1\n      swap3\n      swap2\n      swap1\n      dup2\n      dup2\n      mstore\n      0x20\n      add\n      dup3\n      dup1\n      sload\n      tag_64\n      swap1\n      tag_29\n      jump\t// in\n    tag_64:\n      dup1\n      iszero\n      tag_65\n      jumpi\n      dup1\n      0x1f\n      lt\n      tag_66\n      jumpi\n      0x0100\n      dup1\n      dup4\n      sload\n      div\n      mul\n      dup4\n      mstore\n      swap2\n      0x20\n      add\n      swap2\n      jump(tag_65)\n    tag_66:\n      dup3\n      add\n      swap2\n      swap1\n      0x00\n      mstore\n      keccak256(0x00, 0x20)\n      swap1\n    tag_67:\n      dup2\n      sload\n      dup2\n      mstore\n      swap1\n      0x01\n      add\n      swap1\n      0x20\n      add\n      dup1\n      dup4\n      gt\n      tag_67\n      jumpi\n      dup3\n      swap1\n      sub\n      0x1f\n      and\n      dup3\n      add\n      swap2\n    tag_65:\n      pop\n      pop\n      pop\n      pop\n      pop\n      dup2\n      mstore\n      0x20\n      add\n      0x01\n      dup3\n      add\n      sload\n      dup2\n      mstore\n      pop\n      pop\n      dup2\n      mstore\n      0x20\n      add\n      swap1\n      0x01\n      add\n      swap1\n      jump(tag_60)\n    tag_61:\n      pop\n      pop\n      pop\n      pop\n      swap1\n      pop\n        /* \"contracts/ProductStore.sol\":731:825  function getProducts() view public returns(Product[] memory){... */\n      swap1\n      jump\t// out\n        /* \"#utility.yul\":7:82   */\n    tag_68:\n        /* \"#utility.yul\":40:46   */\n      0x00\n        /* \"#utility.yul\":73:75   */\n      0x40\n        /* \"#utility.yul\":67:76   */\n      mload\n        /* \"#utility.yul\":57:76   */\n      swap1\n      pop\n        /* \"#utility.yul\":7:82   */\n      swap1\n      jump\t// out\n        /* \"#utility.yul\":88:205   */\n    tag_69:\n        /* \"#utility.yul\":197:198   */\n      0x00\n        /* \"#utility.yul\":194:195   */\n      0x00\n        /* \"#utility.yul\":187:199   */\n      revert\n        /* \"#utility.yul\":211:328   */\n    tag_70:\n        /* \"#utility.yul\":320:321   */\n      0x00\n        /* \"#utility.yul\":317:318   */\n      0x00\n        /* \"#utility.yul\":310:322   */\n      revert\n        /* \"#utility.yul\":334:411   */\n    tag_71:\n        /* \"#utility.yul\":371:378   */\n      0x00\n        /* \"#utility.yul\":400:405   */\n      dup2\n        /* \"#utility.yul\":389:405   */\n      swap1\n      pop\n        /* \"#utility.yul\":334:411   */\n      swap2\n      swap1\n      pop\n      jump\t// out\n        /* \"#utility.yul\":417:539   */\n    tag_72:\n        /* \"#utility.yul\":490:514   */\n      tag_126\n        /* \"#utility.yul\":508:513   */\n      dup2\n        /* \"#utility.yul\":490:514   */\n      tag_71\n      jump\t// in\n    tag_126:\n        /* \"#utility.yul\":483:488   */\n      dup2\n        /* \"#utility.yul\":480:515   */\n      eq\n        /* \"#utility.yul\":470:533   */\n      tag_127\n      jumpi\n        /* \"#utility.yul\":529:530   */\n      0x00\n        /* \"#utility.yul\":526:527   */\n      0x00\n        /* \"#utility.yul\":519:531   */\n      revert\n        /* \"#utility.yul\":470:533   */\n    tag_127:\n        /* \"#utility.yul\":417:539   */\n      pop\n      jump\t// out\n        /* \"#utility.yul\":545:684   */\n    tag_73:\n        /* \"#utility.yul\":591:596   */\n      0x00\n        /* \"#utility.yul\":629:635   */\n      dup2\n        /* \"#utility.yul\":616:636   */\n      calldataload\n        /* \"#utility.yul\":607:636   */\n      swap1\n      pop\n        /* \"#utility.yul\":645:678   */\n      tag_129\n        /* \"#utility.yul\":672:677   */\n      dup2\n        /* \"#utility.yul\":645:678   */\n      tag_72\n      jump\t// in\n    tag_129:\n        /* \"#utility.yul\":545:684   */\n      swap3\n      swap2\n      pop\n      pop\n      jump\t// out\n        /* \"#utility.yul\":690:1019   */\n    tag_9:\n        /* \"#utility.yul\":749:755   */\n      0x00\n        /* \"#utility.yul\":798:800   */\n      0x20\n        /* \"#utility.yul\":786:795   */\n      dup3\n        /* \"#utility.yul\":777:784   */\n      dup5\n        /* \"#utility.yul\":773:796   */\n      sub\n        /* \"#utility.yul\":769:801   */\n      slt\n        /* \"#utility.yul\":766:885   */\n      iszero\n      tag_131\n      jumpi\n        /* \"#utility.yul\":804:883   */\n      tag_132\n      tag_69\n      jump\t// in\n    tag_132:\n        /* \"#utility.yul\":766:885   */\n    tag_131:\n        /* \"#utility.yul\":924:925   */\n      0x00\n        /* \"#utility.yul\":949:1002   */\n      tag_133\n        /* \"#utility.yul\":994:1001   */\n      dup5\n        /* \"#utility.yul\":985:991   */\n      dup3\n        /* \"#utility.yul\":974:983   */\n      dup6\n        /* \"#utility.yul\":970:992   */\n      add\n        /* \"#utility.yul\":949:1002   */\n      tag_73\n      jump\t// in\n    tag_133:\n        /* \"#utility.yul\":939:1002   */\n      swap2\n      pop\n        /* \"#utility.yul\":895:1012   */\n      pop\n        /* \"#utility.yul\":690:1019   */\n      swap3\n      swap2\n      pop\n      pop\n      jump\t// out\n        /* \"#utility.yul\":1025:1124   */\n    tag_74:\n        /* \"#utility.yul\":1077:1083   */\n      0x00\n        /* \"#utility.yul\":1111:1116   */\n      dup2\n        /* \"#utility.yul\":1105:1117   */\n      mload\n        /* \"#utility.yul\":1095:1117   */\n      swap1\n      pop\n        /* \"#utility.yul\":1025:1124   */\n      swap2\n      swap1\n      pop\n      jump\t// out\n        /* \"#utility.yul\":1130:1299   */\n    tag_75:\n        /* \"#utility.yul\":1214:1225   */\n      0x00\n        /* \"#utility.yul\":1248:1254   */\n      dup3\n        /* \"#utility.yul\":1243:1246   */\n      dup3\n        /* \"#utility.yul\":1236:1255   */\n      mstore\n        /* \"#utility.yul\":1288:1292   */\n      0x20\n        /* \"#utility.yul\":1283:1286   */\n      dup3\n        /* \"#utility.yul\":1279:1293   */\n      add\n        /* \"#utility.yul\":1264:1293   */\n      swap1\n      pop\n        /* \"#utility.yul\":1130:1299   */\n      swap3\n      swap2\n      pop\n      pop\n      jump\t// out\n        /* \"#utility.yul\":1305:1444   */\n    tag_76:\n        /* \"#utility.yul\":1394:1400   */\n      dup3\n        /* \"#utility.yul\":1389:1392   */\n      dup2\n        /* \"#utility.yul\":1384:1387   */\n      dup4\n        /* \"#utility.yul\":1378:1401   */\n      mcopy\n        /* \"#utility.yul\":1435:1436   */\n      0x00\n        /* \"#utility.yul\":1426:1432   */\n      dup4\n        /* \"#utility.yul\":1421:1424   */\n      dup4\n        /* \"#utility.yul\":1417:1433   */\n      add\n        /* \"#utility.yul\":1410:1437   */\n      mstore\n        /* \"#utility.yul\":1305:1444   */\n      pop\n      pop\n      pop\n      jump\t// out\n        /* \"#utility.yul\":1450:1552   */\n    tag_77:\n        /* \"#utility.yul\":1491:1497   */\n      0x00\n        /* \"#utility.yul\":1542:1544   */\n      0x1f\n        /* \"#utility.yul\":1538:1545   */\n      not\n        /* \"#utility.yul\":1533:1535   */\n      0x1f\n        /* \"#utility.yul\":1526:1531   */\n      dup4\n        /* \"#utility.yul\":1522:1536   */\n      add\n        /* \"#utility.yul\":1518:1546   */\n      and\n        /* \"#utility.yul\":1508:1546   */\n      swap1\n      pop\n        /* \"#utility.yul\":1450:1552   */\n      swap2\n      swap1\n      pop\n      jump\t// out\n        /* \"#utility.yul\":1558:1935   */\n    tag_78:\n        /* \"#utility.yul\":1646:1649   */\n      0x00\n        /* \"#utility.yul\":1674:1713   */\n      tag_139\n        /* \"#utility.yul\":1707:1712   */\n      dup3\n        /* \"#utility.yul\":1674:1713   */\n      tag_74\n      jump\t// in\n    tag_139:\n        /* \"#utility.yul\":1729:1800   */\n      tag_140\n        /* \"#utility.yul\":1793:1799   */\n      dup2\n        /* \"#utility.yul\":1788:1791   */\n      dup6\n        /* \"#utility.yul\":1729:1800   */\n      tag_75\n      jump\t// in\n    tag_140:\n        /* \"#utility.yul\":1722:1800   */\n      swap4\n      pop\n        /* \"#utility.yul\":1809:1874   */\n      tag_141\n        /* \"#utility.yul\":1867:1873   */\n      dup2\n        /* \"#utility.yul\":1862:1865   */\n      dup6\n        /* \"#utility.yul\":1855:1859   */\n      0x20\n        /* \"#utility.yul\":1848:1853   */\n      dup7\n        /* \"#utility.yul\":1844:1860   */\n      add\n        /* \"#utility.yul\":1809:1874   */\n      tag_76\n      jump\t// in\n    tag_141:\n        /* \"#utility.yul\":1899:1928   */\n      tag_142\n        /* \"#utility.yul\":1921:1927   */\n      dup2\n        /* \"#utility.yul\":1899:1928   */\n      tag_77\n      jump\t// in\n    tag_142:\n        /* \"#utility.yul\":1894:1897   */\n      dup5\n        /* \"#utility.yul\":1890:1929   */\n      add\n        /* \"#utility.yul\":1883:1929   */\n      swap2\n      pop\n        /* \"#utility.yul\":1650:1935   */\n      pop\n        /* \"#utility.yul\":1558:1935   */\n      swap3\n      swap2\n      pop\n      pop\n      jump\t// out\n        /* \"#utility.yul\":1941:2059   */\n    tag_79:\n        /* \"#utility.yul\":2028:2052   */\n      tag_144\n        /* \"#utility.yul\":2046:2051   */\n      dup2\n        /* \"#utility.yul\":2028:2052   */\n      tag_71\n      jump\t// in\n    tag_144:\n        /* \"#utility.yul\":2023:2026   */\n      dup3\n        /* \"#utility.yul\":2016:2053   */\n      mstore\n        /* \"#utility.yul\":1941:2059   */\n      pop\n      pop\n      jump\t// out\n        /* \"#utility.yul\":2065:2488   */\n    tag_12:\n        /* \"#utility.yul\":2206:2210   */\n      0x00\n        /* \"#utility.yul\":2244:2246   */\n      0x40\n        /* \"#utility.yul\":2233:2242   */\n      dup3\n        /* \"#utility.yul\":2229:2247   */\n      add\n        /* \"#utility.yul\":2221:2247   */\n      swap1\n      pop\n        /* \"#utility.yul\":2293:2302   */\n      dup2\n        /* \"#utility.yul\":2287:2291   */\n      dup2\n        /* \"#utility.yul\":2283:2303   */\n      sub\n        /* \"#utility.yul\":2279:2280   */\n      0x00\n        /* \"#utility.yul\":2268:2277   */\n      dup4\n        /* \"#utility.yul\":2264:2281   */\n      add\n        /* \"#utility.yul\":2257:2304   */\n      mstore\n        /* \"#utility.yul\":2321:2399   */\n      tag_146\n        /* \"#utility.yul\":2394:2398   */\n      dup2\n        /* \"#utility.yul\":2385:2391   */\n      dup6\n        /* \"#utility.yul\":2321:2399   */\n      tag_78\n      jump\t// in\n    tag_146:\n        /* \"#utility.yul\":2313:2399   */\n      swap1\n      pop\n        /* \"#utility.yul\":2409:2481   */\n      tag_147\n        /* \"#utility.yul\":2477:2479   */\n      0x20\n        /* \"#utility.yul\":2466:2475   */\n      dup4\n        /* \"#utility.yul\":2462:2480   */\n      add\n        /* \"#utility.yul\":2453:2459   */\n      dup5\n        /* \"#utility.yul\":2409:2481   */\n      tag_79\n      jump\t// in\n    tag_147:\n        /* \"#utility.yul\":2065:2488   */\n      swap4\n      swap3\n      pop\n      pop\n      pop\n      jump\t// out\n        /* \"#utility.yul\":2494:2611   */\n    tag_80:\n        /* \"#utility.yul\":2603:2604   */\n      0x00\n        /* \"#utility.yul\":2600:2601   */\n      0x00\n        /* \"#utility.yul\":2593:2605   */\n      revert\n        /* \"#utility.yul\":2617:2734   */\n    tag_81:\n        /* \"#utility.yul\":2726:2727   */\n      0x00\n        /* \"#utility.yul\":2723:2724   */\n      0x00\n        /* \"#utility.yul\":2716:2728   */\n      revert\n        /* \"#utility.yul\":2740:2920   */\n    tag_82:\n        /* \"#utility.yul\":2788:2865   */\n      0x4e487b7100000000000000000000000000000000000000000000000000000000\n        /* \"#utility.yul\":2785:2786   */\n      0x00\n        /* \"#utility.yul\":2778:2866   */\n      mstore\n        /* \"#utility.yul\":2885:2889   */\n      0x41\n        /* \"#utility.yul\":2882:2883   */\n      0x04\n        /* \"#utility.yul\":2875:2890   */\n      mstore\n        /* \"#utility.yul\":2909:2913   */\n      0x24\n        /* \"#utility.yul\":2906:2907   */\n      0x00\n        /* \"#utility.yul\":2899:2914   */\n      revert\n        /* \"#utility.yul\":2926:3207   */\n    tag_83:\n        /* \"#utility.yul\":3009:3036   */\n      tag_152\n        /* \"#utility.yul\":3031:3035   */\n      dup3\n        /* \"#utility.yul\":3009:3036   */\n      tag_77\n      jump\t// in\n    tag_152:\n        /* \"#utility.yul\":3001:3007   */\n      dup2\n        /* \"#utility.yul\":2997:3037   */\n      add\n        /* \"#utility.yul\":3139:3145   */\n      dup2\n        /* \"#utility.yul\":3127:3137   */\n      dup2\n        /* \"#utility.yul\":3124:3146   */\n      lt\n        /* \"#utility.yul\":3103:3121   */\n      0xffffffffffffffff\n        /* \"#utility.yul\":3091:3101   */\n      dup3\n        /* \"#utility.yul\":3088:3122   */\n      gt\n        /* \"#utility.yul\":3085:3147   */\n      or\n        /* \"#utility.yul\":3082:3170   */\n      iszero\n      tag_153\n      jumpi\n        /* \"#utility.yul\":3150:3168   */\n      tag_154\n      tag_82\n      jump\t// in\n    tag_154:\n        /* \"#utility.yul\":3082:3170   */\n    tag_153:\n        /* \"#utility.yul\":3190:3200   */\n      dup1\n        /* \"#utility.yul\":3186:3188   */\n      0x40\n        /* \"#utility.yul\":3179:3201   */\n      mstore\n        /* \"#utility.yul\":2969:3207   */\n      pop\n        /* \"#utility.yul\":2926:3207   */\n      pop\n      pop\n      jump\t// out\n        /* \"#utility.yul\":3213:3342   */\n    tag_84:\n        /* \"#utility.yul\":3247:3253   */\n      0x00\n        /* \"#utility.yul\":3274:3294   */\n      tag_156\n      tag_68\n      jump\t// in\n    tag_156:\n        /* \"#utility.yul\":3264:3294   */\n      swap1\n      pop\n        /* \"#utility.yul\":3303:3336   */\n      tag_157\n        /* \"#utility.yul\":3331:3335   */\n      dup3\n        /* \"#utility.yul\":3323:3329   */\n      dup3\n        /* \"#utility.yul\":3303:3336   */\n      tag_83\n      jump\t// in\n    tag_157:\n        /* \"#utility.yul\":3213:3342   */\n      swap2\n      swap1\n      pop\n      jump\t// out\n        /* \"#utility.yul\":3348:3656   */\n    tag_85:\n        /* \"#utility.yul\":3410:3414   */\n      0x00\n        /* \"#utility.yul\":3500:3518   */\n      0xffffffffffffffff\n        /* \"#utility.yul\":3492:3498   */\n      dup3\n        /* \"#utility.yul\":3489:3519   */\n      gt\n        /* \"#utility.yul\":3486:3542   */\n      iszero\n      tag_159\n      jumpi\n        /* \"#utility.yul\":3522:3540   */\n      tag_160\n      tag_82\n      jump\t// in\n    tag_160:\n        /* \"#utility.yul\":3486:3542   */\n    tag_159:\n        /* \"#utility.yul\":3560:3589   */\n      tag_161\n        /* \"#utility.yul\":3582:3588   */\n      dup3\n        /* \"#utility.yul\":3560:3589   */\n      tag_77\n      jump\t// in\n    tag_161:\n        /* \"#utility.yul\":3552:3589   */\n      swap1\n      pop\n        /* \"#utility.yul\":3644:3648   */\n      0x20\n        /* \"#utility.yul\":3638:3642   */\n      dup2\n        /* \"#utility.yul\":3634:3649   */\n      add\n        /* \"#utility.yul\":3626:3649   */\n      swap1\n      pop\n        /* \"#utility.yul\":3348:3656   */\n      swap2\n      swap1\n      pop\n      jump\t// out\n        /* \"#utility.yul\":3662:3810   */\n    tag_86:\n        /* \"#utility.yul\":3760:3766   */\n      dup3\n        /* \"#utility.yul\":3755:3758   */\n      dup2\n        /* \"#utility.yul\":3750:3753   */\n      dup4\n        /* \"#utility.yul\":3737:3767   */\n      calldatacopy\n        /* \"#utility.yul\":3801:3802   */\n      0x00\n        /* \"#utility.yul\":3792:3798   */\n      dup4\n        /* \"#utility.yul\":3787:3790   */\n      dup4\n        /* \"#utility.yul\":3783:3799   */\n      add\n        /* \"#utility.yul\":3776:3803   */\n      mstore\n        /* \"#utility.yul\":3662:3810   */\n      pop\n      pop\n      pop\n      jump\t// out\n        /* \"#utility.yul\":3816:4241   */\n    tag_87:\n        /* \"#utility.yul\":3894:3899   */\n      0x00\n        /* \"#utility.yul\":3919:3985   */\n      tag_164\n        /* \"#utility.yul\":3935:3984   */\n      tag_165\n        /* \"#utility.yul\":3977:3983   */\n      dup5\n        /* \"#utility.yul\":3935:3984   */\n      tag_85\n      jump\t// in\n    tag_165:\n        /* \"#utility.yul\":3919:3985   */\n      tag_84\n      jump\t// in\n    tag_164:\n        /* \"#utility.yul\":3910:3985   */\n      swap1\n      pop\n        /* \"#utility.yul\":4008:4014   */\n      dup3\n        /* \"#utility.yul\":4001:4006   */\n      dup2\n        /* \"#utility.yul\":3994:4015   */\n      mstore\n        /* \"#utility.yul\":4046:4050   */\n      0x20\n        /* \"#utility.yul\":4039:4044   */\n      dup2\n        /* \"#utility.yul\":4035:4051   */\n      add\n        /* \"#utility.yul\":4084:4087   */\n      dup5\n        /* \"#utility.yul\":4075:4081   */\n      dup5\n        /* \"#utility.yul\":4070:4073   */\n      dup5\n        /* \"#utility.yul\":4066:4082   */\n      add\n        /* \"#utility.yul\":4063:4088   */\n      gt\n        /* \"#utility.yul\":4060:4172   */\n      iszero\n      tag_166\n      jumpi\n        /* \"#utility.yul\":4091:4170   */\n      tag_167\n      tag_81\n      jump\t// in\n    tag_167:\n        /* \"#utility.yul\":4060:4172   */\n    tag_166:\n        /* \"#utility.yul\":4181:4235   */\n      tag_168\n        /* \"#utility.yul\":4228:4234   */\n      dup5\n        /* \"#utility.yul\":4223:4226   */\n      dup3\n        /* \"#utility.yul\":4218:4221   */\n      dup6\n        /* \"#utility.yul\":4181:4235   */\n      tag_86\n      jump\t// in\n    tag_168:\n        /* \"#utility.yul\":3900:4241   */\n      pop\n        /* \"#utility.yul\":3816:4241   */\n      swap4\n      swap3\n      pop\n      pop\n      pop\n      jump\t// out\n        /* \"#utility.yul\":4261:4601   */\n    tag_88:\n        /* \"#utility.yul\":4317:4322   */\n      0x00\n        /* \"#utility.yul\":4366:4369   */\n      dup3\n        /* \"#utility.yul\":4359:4363   */\n      0x1f\n        /* \"#utility.yul\":4351:4357   */\n      dup4\n        /* \"#utility.yul\":4347:4364   */\n      add\n        /* \"#utility.yul\":4343:4370   */\n      slt\n        /* \"#utility.yul\":4333:4455   */\n      tag_170\n      jumpi\n        /* \"#utility.yul\":4374:4453   */\n      tag_171\n      tag_80\n      jump\t// in\n    tag_171:\n        /* \"#utility.yul\":4333:4455   */\n    tag_170:\n        /* \"#utility.yul\":4491:4497   */\n      dup2\n        /* \"#utility.yul\":4478:4498   */\n      calldataload\n        /* \"#utility.yul\":4516:4595   */\n      tag_172\n        /* \"#utility.yul\":4591:4594   */\n      dup5\n        /* \"#utility.yul\":4583:4589   */\n      dup3\n        /* \"#utility.yul\":4576:4580   */\n      0x20\n        /* \"#utility.yul\":4568:4574   */\n      dup7\n        /* \"#utility.yul\":4564:4581   */\n      add\n        /* \"#utility.yul\":4516:4595   */\n      tag_87\n      jump\t// in\n    tag_172:\n        /* \"#utility.yul\":4507:4595   */\n      swap2\n      pop\n        /* \"#utility.yul\":4323:4601   */\n      pop\n        /* \"#utility.yul\":4261:4601   */\n      swap3\n      swap2\n      pop\n      pop\n      jump\t// out\n        /* \"#utility.yul\":4607:5261   */\n    tag_19:\n        /* \"#utility.yul\":4685:4691   */\n      0x00\n        /* \"#utility.yul\":4693:4699   */\n      0x00\n        /* \"#utility.yul\":4742:4744   */\n      0x40\n        /* \"#utility.yul\":4730:4739   */\n      dup4\n        /* \"#utility.yul\":4721:4728   */\n      dup6\n        /* \"#utility.yul\":4717:4740   */\n      sub\n        /* \"#utility.yul\":4713:4745   */\n      slt\n        /* \"#utility.yul\":4710:4829   */\n      iszero\n      tag_174\n      jumpi\n        /* \"#utility.yul\":4748:4827   */\n      tag_175\n      tag_69\n      jump\t// in\n    tag_175:\n        /* \"#utility.yul\":4710:4829   */\n    tag_174:\n        /* \"#utility.yul\":4896:4897   */\n      0x00\n        /* \"#utility.yul\":4885:4894   */\n      dup4\n        /* \"#utility.yul\":4881:4898   */\n      add\n        /* \"#utility.yul\":4868:4899   */\n      calldataload\n        /* \"#utility.yul\":4926:4944   */\n      0xffffffffffffffff\n        /* \"#utility.yul\":4918:4924   */\n      dup2\n        /* \"#utility.yul\":4915:4945   */\n      gt\n        /* \"#utility.yul\":4912:5029   */\n      iszero\n      tag_176\n      jumpi\n        /* \"#utility.yul\":4948:5027   */\n      tag_177\n      tag_70\n      jump\t// in\n    tag_177:\n        /* \"#utility.yul\":4912:5029   */\n    tag_176:\n        /* \"#utility.yul\":5053:5116   */\n      tag_178\n        /* \"#utility.yul\":5108:5115   */\n      dup6\n        /* \"#utility.yul\":5099:5105   */\n      dup3\n        /* \"#utility.yul\":5088:5097   */\n      dup7\n        /* \"#utility.yul\":5084:5106   */\n      add\n        /* \"#utility.yul\":5053:5116   */\n      tag_88\n      jump\t// in\n    tag_178:\n        /* \"#utility.yul\":5043:5116   */\n      swap3\n      pop\n        /* \"#utility.yul\":4839:5126   */\n      pop\n        /* \"#utility.yul\":5165:5167   */\n      0x20\n        /* \"#utility.yul\":5191:5244   */\n      tag_179\n        /* \"#utility.yul\":5236:5243   */\n      dup6\n        /* \"#utility.yul\":5227:5233   */\n      dup3\n        /* \"#utility.yul\":5216:5225   */\n      dup7\n        /* \"#utility.yul\":5212:5234   */\n      add\n        /* \"#utility.yul\":5191:5244   */\n      tag_73\n      jump\t// in\n    tag_179:\n        /* \"#utility.yul\":5181:5244   */\n      swap2\n      pop\n        /* \"#utility.yul\":5136:5254   */\n      pop\n        /* \"#utility.yul\":4607:5261   */\n      swap3\n      pop\n      swap3\n      swap1\n      pop\n      jump\t// out\n        /* \"#utility.yul\":5267:5403   */\n    tag_89:\n        /* \"#utility.yul\":5356:5362   */\n      0x00\n        /* \"#utility.yul\":5390:5395   */\n      dup2\n        /* \"#utility.yul\":5384:5396   */\n      mload\n        /* \"#utility.yul\":5374:5396   */\n      swap1\n      pop\n        /* \"#utility.yul\":5267:5403   */\n      swap2\n      swap1\n      pop\n      jump\t// out\n        /* \"#utility.yul\":5409:5615   */\n    tag_90:\n        /* \"#utility.yul\":5530:5541   */\n      0x00\n        /* \"#utility.yul\":5564:5570   */\n      dup3\n        /* \"#utility.yul\":5559:5562   */\n      dup3\n        /* \"#utility.yul\":5552:5571   */\n      mstore\n        /* \"#utility.yul\":5604:5608   */\n      0x20\n        /* \"#utility.yul\":5599:5602   */\n      dup3\n        /* \"#utility.yul\":5595:5609   */\n      add\n        /* \"#utility.yul\":5580:5609   */\n      swap1\n      pop\n        /* \"#utility.yul\":5409:5615   */\n      swap3\n      swap2\n      pop\n      pop\n      jump\t// out\n        /* \"#utility.yul\":5621:5775   */\n    tag_91:\n        /* \"#utility.yul\":5710:5714   */\n      0x00\n        /* \"#utility.yul\":5733:5736   */\n      dup2\n        /* \"#utility.yul\":5725:5736   */\n      swap1\n      pop\n        /* \"#utility.yul\":5763:5767   */\n      0x20\n        /* \"#utility.yul\":5758:5761   */\n      dup3\n        /* \"#utility.yul\":5754:5768   */\n      add\n        /* \"#utility.yul\":5746:5768   */\n      swap1\n      pop\n        /* \"#utility.yul\":5621:5775   */\n      swap2\n      swap1\n      pop\n      jump\t// out\n        /* \"#utility.yul\":5781:5940   */\n    tag_92:\n        /* \"#utility.yul\":5855:5866   */\n      0x00\n        /* \"#utility.yul\":5889:5895   */\n      dup3\n        /* \"#utility.yul\":5884:5887   */\n      dup3\n        /* \"#utility.yul\":5877:5896   */\n      mstore\n        /* \"#utility.yul\":5929:5933   */\n      0x20\n        /* \"#utility.yul\":5924:5927   */\n      dup3\n        /* \"#utility.yul\":5920:5934   */\n      add\n        /* \"#utility.yul\":5905:5934   */\n      swap1\n      pop\n        /* \"#utility.yul\":5781:5940   */\n      swap3\n      swap2\n      pop\n      pop\n      jump\t// out\n        /* \"#utility.yul\":5946:6303   */\n    tag_93:\n        /* \"#utility.yul\":6024:6027   */\n      0x00\n        /* \"#utility.yul\":6052:6091   */\n      tag_185\n        /* \"#utility.yul\":6085:6090   */\n      dup3\n        /* \"#utility.yul\":6052:6091   */\n      tag_74\n      jump\t// in\n    tag_185:\n        /* \"#utility.yul\":6107:6168   */\n      tag_186\n        /* \"#utility.yul\":6161:6167   */\n      dup2\n        /* \"#utility.yul\":6156:6159   */\n      dup6\n        /* \"#utility.yul\":6107:6168   */\n      tag_92\n      jump\t// in\n    tag_186:\n        /* \"#utility.yul\":6100:6168   */\n      swap4\n      pop\n        /* \"#utility.yul\":6177:6242   */\n      tag_187\n        /* \"#utility.yul\":6235:6241   */\n      dup2\n        /* \"#utility.yul\":6230:6233   */\n      dup6\n        /* \"#utility.yul\":6223:6227   */\n      0x20\n        /* \"#utility.yul\":6216:6221   */\n      dup7\n        /* \"#utility.yul\":6212:6228   */\n      add\n        /* \"#utility.yul\":6177:6242   */\n      tag_76\n      jump\t// in\n    tag_187:\n        /* \"#utility.yul\":6267:6296   */\n      tag_188\n        /* \"#utility.yul\":6289:6295   */\n      dup2\n        /* \"#utility.yul\":6267:6296   */\n      tag_77\n      jump\t// in\n    tag_188:\n        /* \"#utility.yul\":6262:6265   */\n      dup5\n        /* \"#utility.yul\":6258:6297   */\n      add\n        /* \"#utility.yul\":6251:6297   */\n      swap2\n      pop\n        /* \"#utility.yul\":6028:6303   */\n      pop\n        /* \"#utility.yul\":5946:6303   */\n      swap3\n      swap2\n      pop\n      pop\n      jump\t// out\n        /* \"#utility.yul\":6309:6417   */\n    tag_94:\n        /* \"#utility.yul\":6386:6410   */\n      tag_190\n        /* \"#utility.yul\":6404:6409   */\n      dup2\n        /* \"#utility.yul\":6386:6410   */\n      tag_71\n      jump\t// in\n    tag_190:\n        /* \"#utility.yul\":6381:6384   */\n      dup3\n        /* \"#utility.yul\":6374:6411   */\n      mstore\n        /* \"#utility.yul\":6309:6417   */\n      pop\n      pop\n      jump\t// out\n        /* \"#utility.yul\":6489:7080   */\n    tag_95:\n        /* \"#utility.yul\":6592:6595   */\n      0x00\n        /* \"#utility.yul\":6628:6632   */\n      0x40\n        /* \"#utility.yul\":6623:6626   */\n      dup4\n        /* \"#utility.yul\":6619:6633   */\n      add\n        /* \"#utility.yul\":6715:6719   */\n      0x00\n        /* \"#utility.yul\":6708:6713   */\n      dup4\n        /* \"#utility.yul\":6704:6720   */\n      add\n        /* \"#utility.yul\":6698:6721   */\n      mload\n        /* \"#utility.yul\":6768:6771   */\n      dup5\n        /* \"#utility.yul\":6762:6766   */\n      dup3\n        /* \"#utility.yul\":6758:6772   */\n      sub\n        /* \"#utility.yul\":6751:6755   */\n      0x00\n        /* \"#utility.yul\":6746:6749   */\n      dup7\n        /* \"#utility.yul\":6742:6756   */\n      add\n        /* \"#utility.yul\":6735:6773   */\n      mstore\n        /* \"#utility.yul\":6794:6867   */\n      tag_192\n        /* \"#utility.yul\":6862:6866   */\n      dup3\n        /* \"#utility.yul\":6848:6860   */\n      dup3\n        /* \"#utility.yul\":6794:6867   */\n      tag_93\n      jump\t// in\n    tag_192:\n        /* \"#utility.yul\":6786:6867   */\n      swap2\n      pop\n        /* \"#utility.yul\":6643:6878   */\n      pop\n        /* \"#utility.yul\":6961:6965   */\n      0x20\n        /* \"#utility.yul\":6954:6959   */\n      dup4\n        /* \"#utility.yul\":6950:6966   */\n      add\n        /* \"#utility.yul\":6944:6967   */\n      mload\n        /* \"#utility.yul\":6980:7043   */\n      tag_193\n        /* \"#utility.yul\":7037:7041   */\n      0x20\n        /* \"#utility.yul\":7032:7035   */\n      dup7\n        /* \"#utility.yul\":7028:7042   */\n      add\n        /* \"#utility.yul\":7014:7026   */\n      dup3\n        /* \"#utility.yul\":6980:7043   */\n      tag_94\n      jump\t// in\n    tag_193:\n        /* \"#utility.yul\":6888:7053   */\n      pop\n        /* \"#utility.yul\":7070:7074   */\n      dup1\n        /* \"#utility.yul\":7063:7074   */\n      swap2\n      pop\n        /* \"#utility.yul\":6597:7080   */\n      pop\n        /* \"#utility.yul\":6489:7080   */\n      swap3\n      swap2\n      pop\n      pop\n      jump\t// out\n        /* \"#utility.yul\":7086:7330   */\n    tag_96:\n        /* \"#utility.yul\":7199:7209   */\n      0x00\n        /* \"#utility.yul\":7234:7324   */\n      tag_195\n        /* \"#utility.yul\":7320:7323   */\n      dup4\n        /* \"#utility.yul\":7312:7318   */\n      dup4\n        /* \"#utility.yul\":7234:7324   */\n      tag_95\n      jump\t// in\n    tag_195:\n        /* \"#utility.yul\":7220:7324   */\n      swap1\n      pop\n        /* \"#utility.yul\":7086:7330   */\n      swap3\n      swap2\n      pop\n      pop\n      jump\t// out\n        /* \"#utility.yul\":7336:7471   */\n    tag_97:\n        /* \"#utility.yul\":7428:7432   */\n      0x00\n        /* \"#utility.yul\":7460:7464   */\n      0x20\n        /* \"#utility.yul\":7455:7458   */\n      dup3\n        /* \"#utility.yul\":7451:7465   */\n      add\n        /* \"#utility.yul\":7443:7465   */\n      swap1\n      pop\n        /* \"#utility.yul\":7336:7471   */\n      swap2\n      swap1\n      pop\n      jump\t// out\n        /* \"#utility.yul\":7547:8634   */\n    tag_98:\n        /* \"#utility.yul\":7710:7713   */\n      0x00\n        /* \"#utility.yul\":7739:7815   */\n      tag_198\n        /* \"#utility.yul\":7809:7814   */\n      dup3\n        /* \"#utility.yul\":7739:7815   */\n      tag_89\n      jump\t// in\n    tag_198:\n        /* \"#utility.yul\":7831:7939   */\n      tag_199\n        /* \"#utility.yul\":7932:7938   */\n      dup2\n        /* \"#utility.yul\":7927:7930   */\n      dup6\n        /* \"#utility.yul\":7831:7939   */\n      tag_90\n      jump\t// in\n    tag_199:\n        /* \"#utility.yul\":7824:7939   */\n      swap4\n      pop\n        /* \"#utility.yul\":7965:7968   */\n      dup4\n        /* \"#utility.yul\":8010:8014   */\n      0x20\n        /* \"#utility.yul\":8002:8008   */\n      dup3\n        /* \"#utility.yul\":7998:8015   */\n      mul\n        /* \"#utility.yul\":7993:7996   */\n      dup6\n        /* \"#utility.yul\":7989:8016   */\n      add\n        /* \"#utility.yul\":8040:8118   */\n      tag_200\n        /* \"#utility.yul\":8112:8117   */\n      dup6\n        /* \"#utility.yul\":8040:8118   */\n      tag_91\n      jump\t// in\n    tag_200:\n        /* \"#utility.yul\":8141:8148   */\n      dup1\n        /* \"#utility.yul\":8172:8173   */\n      0x00\n        /* \"#utility.yul\":8157:8589   */\n    tag_201:\n        /* \"#utility.yul\":8182:8188   */\n      dup6\n        /* \"#utility.yul\":8179:8180   */\n      dup2\n        /* \"#utility.yul\":8176:8189   */\n      lt\n        /* \"#utility.yul\":8157:8589   */\n      iszero\n      tag_203\n      jumpi\n        /* \"#utility.yul\":8253:8262   */\n      dup5\n        /* \"#utility.yul\":8247:8251   */\n      dup5\n        /* \"#utility.yul\":8243:8263   */\n      sub\n        /* \"#utility.yul\":8238:8241   */\n      dup10\n        /* \"#utility.yul\":8231:8264   */\n      mstore\n        /* \"#utility.yul\":8304:8310   */\n      dup2\n        /* \"#utility.yul\":8298:8311   */\n      mload\n        /* \"#utility.yul\":8332:8440   */\n      tag_204\n        /* \"#utility.yul\":8435:8439   */\n      dup6\n        /* \"#utility.yul\":8420:8433   */\n      dup3\n        /* \"#utility.yul\":8332:8440   */\n      tag_96\n      jump\t// in\n    tag_204:\n        /* \"#utility.yul\":8324:8440   */\n      swap5\n      pop\n        /* \"#utility.yul\":8463:8545   */\n      tag_205\n        /* \"#utility.yul\":8538:8544   */\n      dup4\n        /* \"#utility.yul\":8463:8545   */\n      tag_97\n      jump\t// in\n    tag_205:\n        /* \"#utility.yul\":8453:8545   */\n      swap3\n      pop\n        /* \"#utility.yul\":8574:8578   */\n      0x20\n        /* \"#utility.yul\":8569:8572   */\n      dup11\n        /* \"#utility.yul\":8565:8579   */\n      add\n        /* \"#utility.yul\":8558:8579   */\n      swap10\n      pop\n        /* \"#utility.yul\":8217:8589   */\n      pop\n        /* \"#utility.yul\":8204:8205   */\n      0x01\n        /* \"#utility.yul\":8201:8202   */\n      dup2\n        /* \"#utility.yul\":8197:8206   */\n      add\n        /* \"#utility.yul\":8192:8206   */\n      swap1\n      pop\n        /* \"#utility.yul\":8157:8589   */\n      jump(tag_201)\n    tag_203:\n        /* \"#utility.yul\":8161:8175   */\n      pop\n        /* \"#utility.yul\":8605:8609   */\n      dup3\n        /* \"#utility.yul\":8598:8609   */\n      swap8\n      pop\n        /* \"#utility.yul\":8625:8628   */\n      dup8\n        /* \"#utility.yul\":8618:8628   */\n      swap6\n      pop\n        /* \"#utility.yul\":7715:8634   */\n      pop\n      pop\n      pop\n      pop\n      pop\n        /* \"#utility.yul\":7547:8634   */\n      swap3\n      swap2\n      pop\n      pop\n      jump\t// out\n        /* \"#utility.yul\":8640:9101   */\n    tag_25:\n        /* \"#utility.yul\":8827:8831   */\n      0x00\n        /* \"#utility.yul\":8865:8867   */\n      0x20\n        /* \"#utility.yul\":8854:8863   */\n      dup3\n        /* \"#utility.yul\":8850:8868   */\n      add\n        /* \"#utility.yul\":8842:8868   */\n      swap1\n      pop\n        /* \"#utility.yul\":8914:8923   */\n      dup2\n        /* \"#utility.yul\":8908:8912   */\n      dup2\n        /* \"#utility.yul\":8904:8924   */\n      sub\n        /* \"#utility.yul\":8900:8901   */\n      0x00\n        /* \"#utility.yul\":8889:8898   */\n      dup4\n        /* \"#utility.yul\":8885:8902   */\n      add\n        /* \"#utility.yul\":8878:8925   */\n      mstore\n        /* \"#utility.yul\":8942:9094   */\n      tag_207\n        /* \"#utility.yul\":9089:9093   */\n      dup2\n        /* \"#utility.yul\":9080:9086   */\n      dup5\n        /* \"#utility.yul\":8942:9094   */\n      tag_98\n      jump\t// in\n    tag_207:\n        /* \"#utility.yul\":8934:9094   */\n      swap1\n      pop\n        /* \"#utility.yul\":8640:9101   */\n      swap3\n      swap2\n      pop\n      pop\n      jump\t// out\n        /* \"#utility.yul\":9107:9287   */\n    tag_99:\n        /* \"#utility.yul\":9155:9232   */\n      0x4e487b7100000000000000000000000000000000000000000000000000000000\n        /* \"#utility.yul\":9152:9153   */\n      0x00\n        /* \"#utility.yul\":9145:9233   */\n      mstore\n        /* \"#utility.yul\":9252:9256   */\n      0x22\n        /* \"#utility.yul\":9249:9250   */\n      0x04\n        /* \"#utility.yul\":9242:9257   */\n      mstore\n        /* \"#utility.yul\":9276:9280   */\n      0x24\n        /* \"#utility.yul\":9273:9274   */\n      0x00\n        /* \"#utility.yul\":9266:9281   */\n      revert\n        /* \"#utility.yul\":9293:9613   */\n    tag_29:\n        /* \"#utility.yul\":9337:9343   */\n      0x00\n        /* \"#utility.yul\":9374:9375   */\n      0x02\n        /* \"#utility.yul\":9368:9372   */\n      dup3\n        /* \"#utility.yul\":9364:9376   */\n      div\n        /* \"#utility.yul\":9354:9376   */\n      swap1\n      pop\n        /* \"#utility.yul\":9421:9422   */\n      0x01\n        /* \"#utility.yul\":9415:9419   */\n      dup3\n        /* \"#utility.yul\":9411:9423   */\n      and\n        /* \"#utility.yul\":9442:9460   */\n      dup1\n        /* \"#utility.yul\":9432:9513   */\n      tag_210\n      jumpi\n        /* \"#utility.yul\":9498:9502   */\n      0x7f\n        /* \"#utility.yul\":9490:9496   */\n      dup3\n        /* \"#utility.yul\":9486:9503   */\n      and\n        /* \"#utility.yul\":9476:9503   */\n      swap2\n      pop\n        /* \"#utility.yul\":9432:9513   */\n    tag_210:\n        /* \"#utility.yul\":9560:9562   */\n      0x20\n        /* \"#utility.yul\":9552:9558   */\n      dup3\n        /* \"#utility.yul\":9549:9563   */\n      lt\n        /* \"#utility.yul\":9529:9547   */\n      dup2\n        /* \"#utility.yul\":9526:9564   */\n      sub\n        /* \"#utility.yul\":9523:9607   */\n      tag_211\n      jumpi\n        /* \"#utility.yul\":9579:9597   */\n      tag_212\n      tag_99\n      jump\t// in\n    tag_212:\n        /* \"#utility.yul\":9523:9607   */\n    tag_211:\n        /* \"#utility.yul\":9344:9613   */\n      pop\n        /* \"#utility.yul\":9293:9613   */\n      swap2\n      swap1\n      pop\n      jump\t// out\n        /* \"#utility.yul\":9619:9790   */\n    tag_100:\n        /* \"#utility.yul\":9759:9782   */\n      0x496e76616c69642070726f6475637420696e6465780000000000000000000000\n        /* \"#utility.yul\":9755:9756   */\n      0x00\n        /* \"#utility.yul\":9747:9753   */\n      dup3\n        /* \"#utility.yul\":9743:9757   */\n      add\n        /* \"#utility.yul\":9736:9783   */\n      mstore\n        /* \"#utility.yul\":9619:9790   */\n      pop\n      jump\t// out\n        /* \"#utility.yul\":9796:10162   */\n    tag_101:\n        /* \"#utility.yul\":9938:9941   */\n      0x00\n        /* \"#utility.yul\":9959:10026   */\n      tag_215\n        /* \"#utility.yul\":10023:10025   */\n      0x15\n        /* \"#utility.yul\":10018:10021   */\n      dup4\n        /* \"#utility.yul\":9959:10026   */\n      tag_75\n      jump\t// in\n    tag_215:\n        /* \"#utility.yul\":9952:10026   */\n      swap2\n      pop\n        /* \"#utility.yul\":10035:10128   */\n      tag_216\n        /* \"#utility.yul\":10124:10127   */\n      dup3\n        /* \"#utility.yul\":10035:10128   */\n      tag_100\n      jump\t// in\n    tag_216:\n        /* \"#utility.yul\":10153:10155   */\n      0x20\n        /* \"#utility.yul\":10148:10151   */\n      dup3\n        /* \"#utility.yul\":10144:10156   */\n      add\n        /* \"#utility.yul\":10137:10156   */\n      swap1\n      pop\n        /* \"#utility.yul\":9796:10162   */\n      swap2\n      swap1\n      pop\n      jump\t// out\n        /* \"#utility.yul\":10168:10587   */\n    tag_37:\n        /* \"#utility.yul\":10334:10338   */\n      0x00\n        /* \"#utility.yul\":10372:10374   */\n      0x20\n        /* \"#utility.yul\":10361:10370   */\n      dup3\n        /* \"#utility.yul\":10357:10375   */\n      add\n        /* \"#utility.yul\":10349:10375   */\n      swap1\n      pop\n        /* \"#utility.yul\":10421:10430   */\n      dup2\n        /* \"#utility.yul\":10415:10419   */\n      dup2\n        /* \"#utility.yul\":10411:10431   */\n      sub\n        /* \"#utility.yul\":10407:10408   */\n      0x00\n        /* \"#utility.yul\":10396:10405   */\n      dup4\n        /* \"#utility.yul\":10392:10409   */\n      add\n        /* \"#utility.yul\":10385:10432   */\n      mstore\n        /* \"#utility.yul\":10449:10580   */\n      tag_218\n        /* \"#utility.yul\":10575:10579   */\n      dup2\n        /* \"#utility.yul\":10449:10580   */\n      tag_101\n      jump\t// in\n    tag_218:\n        /* \"#utility.yul\":10441:10580   */\n      swap1\n      pop\n        /* \"#utility.yul\":10168:10587   */\n      swap2\n      swap1\n      pop\n      jump\t// out\n        /* \"#utility.yul\":10593:10773   */\n    tag_40:\n        /* \"#utility.yul\":10641:10718   */\n      0x4e487b7100000000000000000000000000000000000000000000000000000000\n        /* \"#utility.yul\":10638:10639   */\n      0x00\n        /* \"#utility.yul\":10631:10719   */\n      mstore\n        /* \"#utility.yul\":10738:10742   */\n      0x32\n        /* \"#utility.yul\":10735:10736   */\n      0x04\n        /* \"#utility.yul\":10728:10743   */\n      mstore\n        /* \"#utility.yul\":10762:10766   */\n      0x24\n        /* \"#utility.yul\":10759:10760   */\n      0x00\n        /* \"#utility.yul\":10752:10767   */\n      revert\n        /* \"#utility.yul\":10779:10948   */\n    tag_102:\n        /* \"#utility.yul\":10919:10940   */\n      0x4e6f7420656e6f756768204554482073656e7400000000000000000000000000\n        /* \"#utility.yul\":10915:10916   */\n      0x00\n        /* \"#utility.yul\":10907:10913   */\n      dup3\n        /* \"#utility.yul\":10903:10917   */\n      add\n        /* \"#utility.yul\":10896:10941   */\n      mstore\n        /* \"#utility.yul\":10779:10948   */\n      pop\n      jump\t// out\n        /* \"#utility.yul\":10954:11320   */\n    tag_103:\n        /* \"#utility.yul\":11096:11099   */\n      0x00\n        /* \"#utility.yul\":11117:11184   */\n      tag_222\n        /* \"#utility.yul\":11181:11183   */\n      0x13\n        /* \"#utility.yul\":11176:11179   */\n      dup4\n        /* \"#utility.yul\":11117:11184   */\n      tag_75\n      jump\t// in\n    tag_222:\n        /* \"#utility.yul\":11110:11184   */\n      swap2\n      pop\n        /* \"#utility.yul\":11193:11286   */\n      tag_223\n        /* \"#utility.yul\":11282:11285   */\n      dup3\n        /* \"#utility.yul\":11193:11286   */\n      tag_102\n      jump\t// in\n    tag_223:\n        /* \"#utility.yul\":11311:11313   */\n      0x20\n        /* \"#utility.yul\":11306:11309   */\n      dup3\n        /* \"#utility.yul\":11302:11314   */\n      add\n        /* \"#utility.yul\":11295:11314   */\n      swap1\n      pop\n        /* \"#utility.yul\":10954:11320   */\n      swap2\n      swap1\n      pop\n      jump\t// out\n        /* \"#utility.yul\":11326:11745   */\n    tag_49:\n        /* \"#utility.yul\":11492:11496   */\n      0x00\n        /* \"#utility.yul\":11530:11532   */\n      0x20\n        /* \"#utility.yul\":11519:11528   */\n      dup3\n        /* \"#utility.yul\":11515:11533   */\n      add\n        /* \"#utility.yul\":11507:11533   */\n      swap1\n      pop\n        /* \"#utility.yul\":11579:11588   */\n      dup2\n        /* \"#utility.yul\":11573:11577   */\n      dup2\n        /* \"#utility.yul\":11569:11589   */\n      sub\n        /* \"#utility.yul\":11565:11566   */\n      0x00\n        /* \"#utility.yul\":11554:11563   */\n      dup4\n        /* \"#utility.yul\":11550:11567   */\n      add\n        /* \"#utility.yul\":11543:11590   */\n      mstore\n        /* \"#utility.yul\":11607:11738   */\n      tag_225\n        /* \"#utility.yul\":11733:11737   */\n      dup2\n        /* \"#utility.yul\":11607:11738   */\n      tag_103\n      jump\t// in\n    tag_225:\n        /* \"#utility.yul\":11599:11738   */\n      swap1\n      pop\n        /* \"#utility.yul\":11326:11745   */\n      swap2\n      swap1\n      pop\n      jump\t// out\n        /* \"#utility.yul\":11751:11931   */\n    tag_104:\n        /* \"#utility.yul\":11799:11876   */\n      0x4e487b7100000000000000000000000000000000000000000000000000000000\n        /* \"#utility.yul\":11796:11797   */\n      0x00\n        /* \"#utility.yul\":11789:11877   */\n      mstore\n        /* \"#utility.yul\":11896:11900   */\n      0x11\n        /* \"#utility.yul\":11893:11894   */\n      0x04\n        /* \"#utility.yul\":11886:11901   */\n      mstore\n        /* \"#utility.yul\":11920:11924   */\n      0x24\n        /* \"#utility.yul\":11917:11918   */\n      0x00\n        /* \"#utility.yul\":11910:11925   */\n      revert\n        /* \"#utility.yul\":11937:12131   */\n    tag_52:\n        /* \"#utility.yul\":11977:11981   */\n      0x00\n        /* \"#utility.yul\":11997:12017   */\n      tag_228\n        /* \"#utility.yul\":12015:12016   */\n      dup3\n        /* \"#utility.yul\":11997:12017   */\n      tag_71\n      jump\t// in\n    tag_228:\n        /* \"#utility.yul\":11992:12017   */\n      swap2\n      pop\n        /* \"#utility.yul\":12031:12051   */\n      tag_229\n        /* \"#utility.yul\":12049:12050   */\n      dup4\n        /* \"#utility.yul\":12031:12051   */\n      tag_71\n      jump\t// in\n    tag_229:\n        /* \"#utility.yul\":12026:12051   */\n      swap3\n      pop\n        /* \"#utility.yul\":12075:12076   */\n      dup3\n        /* \"#utility.yul\":12072:12073   */\n      dup3\n        /* \"#utility.yul\":12068:12077   */\n      sub\n        /* \"#utility.yul\":12060:12077   */\n      swap1\n      pop\n        /* \"#utility.yul\":12099:12100   */\n      dup2\n        /* \"#utility.yul\":12093:12097   */\n      dup2\n        /* \"#utility.yul\":12090:12101   */\n      gt\n        /* \"#utility.yul\":12087:12124   */\n      iszero\n      tag_230\n      jumpi\n        /* \"#utility.yul\":12104:12122   */\n      tag_231\n      tag_104\n      jump\t// in\n    tag_231:\n        /* \"#utility.yul\":12087:12124   */\n    tag_230:\n        /* \"#utility.yul\":11937:12131   */\n      swap3\n      swap2\n      pop\n      pop\n      jump\t// out\n        /* \"#utility.yul\":12137:12278   */\n    tag_105:\n        /* \"#utility.yul\":12186:12190   */\n      0x00\n        /* \"#utility.yul\":12209:12212   */\n      dup2\n        /* \"#utility.yul\":12201:12212   */\n      swap1\n      pop\n        /* \"#utility.yul\":12232:12235   */\n      dup2\n        /* \"#utility.yul\":12229:12230   */\n      0x00\n        /* \"#utility.yul\":12222:12236   */\n      mstore\n        /* \"#utility.yul\":12266:12270   */\n      0x20\n        /* \"#utility.yul\":12263:12264   */\n      0x00\n        /* \"#utility.yul\":12253:12271   */\n      keccak256\n        /* \"#utility.yul\":12245:12271   */\n      swap1\n      pop\n        /* \"#utility.yul\":12137:12278   */\n      swap2\n      swap1\n      pop\n      jump\t// out\n        /* \"#utility.yul\":12284:12377   */\n    tag_106:\n        /* \"#utility.yul\":12321:12327   */\n      0x00\n        /* \"#utility.yul\":12368:12370   */\n      0x20\n        /* \"#utility.yul\":12363:12365   */\n      0x1f\n        /* \"#utility.yul\":12356:12361   */\n      dup4\n        /* \"#utility.yul\":12352:12366   */\n      add\n        /* \"#utility.yul\":12348:12371   */\n      div\n        /* \"#utility.yul\":12338:12371   */\n      swap1\n      pop\n        /* \"#utility.yul\":12284:12377   */\n      swap2\n      swap1\n      pop\n      jump\t// out\n        /* \"#utility.yul\":12383:12490   */\n    tag_107:\n        /* \"#utility.yul\":12427:12435   */\n      0x00\n        /* \"#utility.yul\":12477:12482   */\n      dup3\n        /* \"#utility.yul\":12471:12475   */\n      dup3\n        /* \"#utility.yul\":12467:12483   */\n      shl\n        /* \"#utility.yul\":12446:12483   */\n      swap1\n      pop\n        /* \"#utility.yul\":12383:12490   */\n      swap3\n      swap2\n      pop\n      pop\n      jump\t// out\n        /* \"#utility.yul\":12496:12889   */\n    tag_108:\n        /* \"#utility.yul\":12565:12571   */\n      0x00\n        /* \"#utility.yul\":12615:12616   */\n      0x08\n        /* \"#utility.yul\":12603:12613   */\n      dup4\n        /* \"#utility.yul\":12599:12617   */\n      mul\n        /* \"#utility.yul\":12638:12735   */\n      tag_236\n        /* \"#utility.yul\":12668:12734   */\n      0xffffffffffffffffffffffffffffffffffffffffffffffffffffffffffffffff\n        /* \"#utility.yul\":12657:12666   */\n      dup3\n        /* \"#utility.yul\":12638:12735   */\n      tag_107\n      jump\t// in\n    tag_236:\n        /* \"#utility.yul\":12756:12795   */\n      tag_237\n        /* \"#utility.yul\":12786:12794   */\n      dup7\n        /* \"#utility.yul\":12775:12784   */\n      dup4\n        /* \"#utility.yul\":12756:12795   */\n      tag_107\n      jump\t// in\n    tag_237:\n        /* \"#utility.yul\":12744:12795   */\n      swap6\n      pop\n        /* \"#utility.yul\":12828:12832   */\n      dup1\n        /* \"#utility.yul\":12824:12833   */\n      not\n        /* \"#utility.yul\":12817:12822   */\n      dup5\n        /* \"#utility.yul\":12813:12834   */\n      and\n        /* \"#utility.yul\":12804:12834   */\n      swap4\n      pop\n        /* \"#utility.yul\":12877:12881   */\n      dup1\n        /* \"#utility.yul\":12867:12875   */\n      dup7\n        /* \"#utility.yul\":12863:12882   */\n      and\n        /* \"#utility.yul\":12856:12861   */\n      dup5\n        /* \"#utility.yul\":12853:12883   */\n      or\n        /* \"#utility.yul\":12843:12883   */\n      swap3\n      pop\n        /* \"#utility.yul\":12572:12889   */\n      pop\n      pop\n        /* \"#utility.yul\":12496:12889   */\n      swap4\n      swap3\n      pop\n      pop\n      pop\n      jump\t// out\n        /* \"#utility.yul\":12895:12955   */\n    tag_109:\n        /* \"#utility.yul\":12923:12926   */\n      0x00\n        /* \"#utility.yul\":12944:12949   */\n      dup2\n        /* \"#utility.yul\":12937:12949   */\n      swap1\n      pop\n        /* \"#utility.yul\":12895:12955   */\n      swap2\n      swap1\n      pop\n      jump\t// out\n        /* \"#utility.yul\":12961:13103   */\n    tag_110:\n        /* \"#utility.yul\":13011:13020   */\n      0x00\n        /* \"#utility.yul\":13044:13097   */\n      tag_240\n        /* \"#utility.yul\":13062:13096   */\n      tag_241\n        /* \"#utility.yul\":13071:13095   */\n      tag_242\n        /* \"#utility.yul\":13089:13094   */\n      dup5\n        /* \"#utility.yul\":13071:13095   */\n      tag_71\n      jump\t// in\n    tag_242:\n        /* \"#utility.yul\":13062:13096   */\n      tag_109\n      jump\t// in\n    tag_241:\n        /* \"#utility.yul\":13044:13097   */\n      tag_71\n      jump\t// in\n    tag_240:\n        /* \"#utility.yul\":13031:13097   */\n      swap1\n      pop\n        /* \"#utility.yul\":12961:13103   */\n      swap2\n      swap1\n      pop\n      jump\t// out\n        /* \"#utility.yul\":13109:13184   */\n    tag_111:\n        /* \"#utility.yul\":13152:13155   */\n      0x00\n        /* \"#utility.yul\":13173:13178   */\n      dup2\n        /* \"#utility.yul\":13166:13178   */\n      swap1\n      pop\n        /* \"#utility.yul\":13109:13184   */\n      swap2\n      swap1\n      pop\n      jump\t// out\n        /* \"#utility.yul\":13190:13459   */\n    tag_112:\n        /* \"#utility.yul\":13300:13339   */\n      tag_245\n        /* \"#utility.yul\":13331:13338   */\n      dup4\n        /* \"#utility.yul\":13300:13339   */\n      tag_110\n      jump\t// in\n    tag_245:\n        /* \"#utility.yul\":13361:13452   */\n      tag_246\n        /* \"#utility.yul\":13410:13451   */\n      tag_247\n        /* \"#utility.yul\":13434:13450   */\n      dup3\n        /* \"#utility.yul\":13410:13451   */\n      tag_111\n      jump\t// in\n    tag_247:\n        /* \"#utility.yul\":13402:13408   */\n      dup5\n        /* \"#utility.yul\":13395:13399   */\n      dup5\n        /* \"#utility.yul\":13389:13400   */\n      sload\n        /* \"#utility.yul\":13361:13452   */\n      tag_108\n      jump\t// in\n    tag_246:\n        /* \"#utility.yul\":13355:13359   */\n      dup3\n        /* \"#utility.yul\":13348:13453   */\n      sstore\n        /* \"#utility.yul\":13266:13459   */\n      pop\n        /* \"#utility.yul\":13190:13459   */\n      pop\n      pop\n      pop\n      jump\t// out\n        /* \"#utility.yul\":13465:13538   */\n    tag_113:\n        /* \"#utility.yul\":13510:13513   */\n      0x00\n        /* \"#utility.yul\":13531:13532   */\n      0x00\n        /* \"#utility.yul\":13524:13532   */\n      swap1\n      pop\n        /* \"#utility.yul\":13465:13538   */\n      swap1\n      jump\t// out\n        /* \"#utility.yul\":13544:13733   */\n    tag_114:\n        /* \"#utility.yul\":13621:13653   */\n      tag_250\n      tag_113\n      jump\t// in\n    tag_250:\n        /* \"#utility.yul\":13662:13727   */\n      tag_251\n        /* \"#utility.yul\":13720:13726   */\n      dup2\n        /* \"#utility.yul\":13712:13718   */\n      dup5\n        /* \"#utility.yul\":13706:13710   */\n      dup5\n        /* \"#utility.yul\":13662:13727   */\n      tag_112\n      jump\t// in\n    tag_251:\n        /* \"#utility.yul\":13597:13733   */\n      pop\n        /* \"#utility.yul\":13544:13733   */\n      pop\n      pop\n      jump\t// out\n        /* \"#utility.yul\":13739:13925   */\n    tag_115:\n        /* \"#utility.yul\":13799:13919   */\n    tag_253:\n        /* \"#utility.yul\":13816:13819   */\n      dup2\n        /* \"#utility.yul\":13809:13814   */\n      dup2\n        /* \"#utility.yul\":13806:13820   */\n      lt\n        /* \"#utility.yul\":13799:13919   */\n      iszero\n      tag_255\n      jumpi\n        /* \"#utility.yul\":13870:13909   */\n      tag_256\n        /* \"#utility.yul\":13907:13908   */\n      0x00\n        /* \"#utility.yul\":13900:13905   */\n      dup3\n        /* \"#utility.yul\":13870:13909   */\n      tag_114\n      jump\t// in\n    tag_256:\n        /* \"#utility.yul\":13843:13844   */\n      0x01\n        /* \"#utility.yul\":13836:13841   */\n      dup2\n        /* \"#utility.yul\":13832:13845   */\n      add\n        /* \"#utility.yul\":13823:13845   */\n      swap1\n      pop\n        /* \"#utility.yul\":13799:13919   */\n      jump(tag_253)\n    tag_255:\n        /* \"#utility.yul\":13739:13925   */\n      pop\n      pop\n      jump\t// out\n        /* \"#utility.yul\":13931:14474   */\n    tag_116:\n        /* \"#utility.yul\":14032:14034   */\n      0x1f\n        /* \"#utility.yul\":14027:14030   */\n      dup3\n        /* \"#utility.yul\":14024:14035   */\n      gt\n        /* \"#utility.yul\":14021:14467   */\n      iszero\n      tag_258\n      jumpi\n        /* \"#utility.yul\":14066:14104   */\n      tag_259\n        /* \"#utility.yul\":14098:14103   */\n      dup2\n        /* \"#utility.yul\":14066:14104   */\n      tag_105\n      jump\t// in\n    tag_259:\n        /* \"#utility.yul\":14150:14179   */\n      tag_260\n        /* \"#utility.yul\":14168:14178   */\n      dup5\n        /* \"#utility.yul\":14150:14179   */\n      tag_106\n      jump\t// in\n    tag_260:\n        /* \"#utility.yul\":14140:14148   */\n      dup2\n        /* \"#utility.yul\":14136:14180   */\n      add\n        /* \"#utility.yul\":14333:14335   */\n      0x20\n        /* \"#utility.yul\":14321:14331   */\n      dup6\n        /* \"#utility.yul\":14318:14336   */\n      lt\n        /* \"#utility.yul\":14315:14364   */\n      iszero\n      tag_261\n      jumpi\n        /* \"#utility.yul\":14354:14362   */\n      dup2\n        /* \"#utility.yul\":14339:14362   */\n      swap1\n      pop\n        /* \"#utility.yul\":14315:14364   */\n    tag_261:\n        /* \"#utility.yul\":14377:14457   */\n      tag_262\n        /* \"#utility.yul\":14433:14455   */\n      tag_263\n        /* \"#utility.yul\":14451:14454   */\n      dup6\n        /* \"#utility.yul\":14433:14455   */\n      tag_106\n      jump\t// in\n    tag_263:\n        /* \"#utility.yul\":14423:14431   */\n      dup4\n        /* \"#utility.yul\":14419:14456   */\n      add\n        /* \"#utility.yul\":14406:14417   */\n      dup3\n        /* \"#utility.yul\":14377:14457   */\n      tag_115\n      jump\t// in\n    tag_262:\n        /* \"#utility.yul\":14036:14467   */\n      pop\n      pop\n        /* \"#utility.yul\":14021:14467   */\n    tag_258:\n        /* \"#utility.yul\":13931:14474   */\n      pop\n      pop\n      pop\n      jump\t// out\n        /* \"#utility.yul\":14480:14597   */\n    tag_117:\n        /* \"#utility.yul\":14534:14542   */\n      0x00\n        /* \"#utility.yul\":14584:14589   */\n      dup3\n        /* \"#utility.yul\":14578:14582   */\n      dup3\n        /* \"#utility.yul\":14574:14590   */\n      shr\n        /* \"#utility.yul\":14553:14590   */\n      swap1\n      pop\n        /* \"#utility.yul\":14480:14597   */\n      swap3\n      swap2\n      pop\n      pop\n      jump\t// out\n        /* \"#utility.yul\":14603:14772   */\n    tag_118:\n        /* \"#utility.yul\":14647:14653   */\n      0x00\n        /* \"#utility.yul\":14680:14731   */\n      tag_266\n        /* \"#utility.yul\":14728:14729   */\n      0x00\n        /* \"#utility.yul\":14724:14730   */\n      not\n        /* \"#utility.yul\":14716:14721   */\n      dup5\n        /* \"#utility.yul\":14713:14714   */\n      0x08\n        /* \"#utility.yul\":14709:14722   */\n      mul\n        /* \"#utility.yul\":14680:14731   */\n      tag_117\n      jump\t// in\n    tag_266:\n        /* \"#utility.yul\":14676:14732   */\n      not\n        /* \"#utility.yul\":14761:14765   */\n      dup1\n        /* \"#utility.yul\":14755:14759   */\n      dup4\n        /* \"#utility.yul\":14751:14766   */\n      and\n        /* \"#utility.yul\":14741:14766   */\n      swap2\n      pop\n        /* \"#utility.yul\":14654:14772   */\n      pop\n        /* \"#utility.yul\":14603:14772   */\n      swap3\n      swap2\n      pop\n      pop\n      jump\t// out\n        /* \"#utility.yul\":14777:15072   */\n    tag_119:\n        /* \"#utility.yul\":14853:14857   */\n      0x00\n        /* \"#utility.yul\":14999:15028   */\n      tag_268\n        /* \"#utility.yul\":15024:15027   */\n      dup4\n        /* \"#utility.yul\":15018:15022   */\n      dup4\n        /* \"#utility.yul\":14999:15028   */\n      tag_118\n      jump\t// in\n    tag_268:\n        /* \"#utility.yul\":14991:15028   */\n      swap2\n      pop\n        /* \"#utility.yul\":15061:15064   */\n      dup3\n        /* \"#utility.yul\":15058:15059   */\n      0x02\n        /* \"#utility.yul\":15054:15065   */\n      mul\n        /* \"#utility.yul\":15048:15052   */\n      dup3\n        /* \"#utility.yul\":15045:15066   */\n      or\n        /* \"#utility.yul\":15037:15066   */\n      swap1\n      pop\n        /* \"#utility.yul\":14777:15072   */\n      swap3\n      swap2\n      pop\n      pop\n      jump\t// out\n        /* \"#utility.yul\":15077:16472   */\n    tag_58:\n        /* \"#utility.yul\":15194:15231   */\n      tag_270\n        /* \"#utility.yul\":15227:15230   */\n      dup3\n        /* \"#utility.yul\":15194:15231   */\n      tag_74\n      jump\t// in\n    tag_270:\n        /* \"#utility.yul\":15296:15314   */\n      0xffffffffffffffff\n        /* \"#utility.yul\":15288:15294   */\n      dup2\n        /* \"#utility.yul\":15285:15315   */\n      gt\n        /* \"#utility.yul\":15282:15338   */\n      iszero\n      tag_271\n      jumpi\n        /* \"#utility.yul\":15318:15336   */\n      tag_272\n      tag_82\n      jump\t// in\n    tag_272:\n        /* \"#utility.yul\":15282:15338   */\n    tag_271:\n        /* \"#utility.yul\":15362:15400   */\n      tag_273\n        /* \"#utility.yul\":15394:15398   */\n      dup3\n        /* \"#utility.yul\":15388:15399   */\n      sload\n        /* \"#utility.yul\":15362:15400   */\n      tag_29\n      jump\t// in\n    tag_273:\n        /* \"#utility.yul\":15447:15514   */\n      tag_274\n        /* \"#utility.yul\":15507:15513   */\n      dup3\n        /* \"#utility.yul\":15499:15505   */\n      dup3\n        /* \"#utility.yul\":15493:15497   */\n      dup6\n        /* \"#utility.yul\":15447:15514   */\n      tag_116\n      jump\t// in\n    tag_274:\n        /* \"#utility.yul\":15541:15542   */\n      0x00\n        /* \"#utility.yul\":15565:15569   */\n      0x20\n        /* \"#utility.yul\":15552:15569   */\n      swap1\n      pop\n        /* \"#utility.yul\":15597:15599   */\n      0x1f\n        /* \"#utility.yul\":15589:15595   */\n      dup4\n        /* \"#utility.yul\":15586:15600   */\n      gt\n        /* \"#utility.yul\":15614:15615   */\n      0x01\n        /* \"#utility.yul\":15609:16227   */\n      dup2\n      eq\n      tag_276\n      jumpi\n        /* \"#utility.yul\":16271:16272   */\n      0x00\n        /* \"#utility.yul\":16288:16294   */\n      dup5\n        /* \"#utility.yul\":16285:16362   */\n      iszero\n      tag_277\n      jumpi\n        /* \"#utility.yul\":16337:16346   */\n      dup3\n        /* \"#utility.yul\":16332:16335   */\n      dup8\n        /* \"#utility.yul\":16328:16347   */\n      add\n        /* \"#utility.yul\":16322:16348   */\n      mload\n        /* \"#utility.yul\":16313:16348   */\n      swap1\n      pop\n        /* \"#utility.yul\":16285:16362   */\n    tag_277:\n        /* \"#utility.yul\":16388:16455   */\n      tag_278\n        /* \"#utility.yul\":16448:16454   */\n      dup6\n        /* \"#utility.yul\":16441:16446   */\n      dup3\n        /* \"#utility.yul\":16388:16455   */\n      tag_119\n      jump\t// in\n    tag_278:\n        /* \"#utility.yul\":16382:16386   */\n      dup7\n        /* \"#utility.yul\":16375:16456   */\n      sstore\n        /* \"#utility.yul\":16244:16466   */\n      pop\n        /* \"#utility.yul\":15579:16466   */\n      jump(tag_275)\n        /* \"#utility.yul\":15609:16227   */\n    tag_276:\n        /* \"#utility.yul\":15661:15665   */\n      0x1f\n        /* \"#utility.yul\":15657:15666   */\n      not\n        /* \"#utility.yul\":15649:15655   */\n      dup5\n        /* \"#utility.yul\":15645:15667   */\n      and\n        /* \"#utility.yul\":15695:15732   */\n      tag_279\n        /* \"#utility.yul\":15727:15731   */\n      dup7\n        /* \"#utility.yul\":15695:15732   */\n      tag_105\n      jump\t// in\n    tag_279:\n        /* \"#utility.yul\":15754:15755   */\n      0x00\n        /* \"#utility.yul\":15768:15976   */\n    tag_280:\n        /* \"#utility.yul\":15782:15789   */\n      dup3\n        /* \"#utility.yul\":15779:15780   */\n      dup2\n        /* \"#utility.yul\":15776:15790   */\n      lt\n        /* \"#utility.yul\":15768:15976   */\n      iszero\n      tag_282\n      jumpi\n        /* \"#utility.yul\":15861:15870   */\n      dup5\n        /* \"#utility.yul\":15856:15859   */\n      dup10\n        /* \"#utility.yul\":15852:15871   */\n      add\n        /* \"#utility.yul\":15846:15872   */\n      mload\n        /* \"#utility.yul\":15838:15844   */\n      dup3\n        /* \"#utility.yul\":15831:15873   */\n      sstore\n        /* \"#utility.yul\":15912:15913   */\n      0x01\n        /* \"#utility.yul\":15904:15910   */\n      dup3\n        /* \"#utility.yul\":15900:15914   */\n      add\n        /* \"#utility.yul\":15890:15914   */\n      swap2\n      pop\n        /* \"#utility.yul\":15959:15961   */\n      0x20\n        /* \"#utility.yul\":15948:15957   */\n      dup6\n        /* \"#utility.yul\":15944:15962   */\n      add\n        /* \"#utility.yul\":15931:15962   */\n      swap5\n      pop\n        /* \"#utility.yul\":15805:15809   */\n      0x20\n        /* \"#utility.yul\":15802:15803   */\n      dup2\n        /* \"#utility.yul\":15798:15810   */\n      add\n        /* \"#utility.yul\":15793:15810   */\n      swap1\n      pop\n        /* \"#utility.yul\":15768:15976   */\n      jump(tag_280)\n    tag_282:\n        /* \"#utility.yul\":16004:16010   */\n      dup7\n        /* \"#utility.yul\":15995:16002   */\n      dup4\n        /* \"#utility.yul\":15992:16011   */\n      lt\n        /* \"#utility.yul\":15989:16168   */\n      iszero\n      tag_283\n      jumpi\n        /* \"#utility.yul\":16062:16071   */\n      dup5\n        /* \"#utility.yul\":16057:16060   */\n      dup10\n        /* \"#utility.yul\":16053:16072   */\n      add\n        /* \"#utility.yul\":16047:16073   */\n      mload\n        /* \"#utility.yul\":16105:16153   */\n      tag_284\n        /* \"#utility.yul\":16147:16151   */\n      0x1f\n        /* \"#utility.yul\":16139:16145   */\n      dup10\n        /* \"#utility.yul\":16135:16152   */\n      and\n        /* \"#utility.yul\":16124:16133   */\n      dup3\n        /* \"#utility.yul\":16105:16153   */\n      tag_118\n      jump\t// in\n    tag_284:\n        /* \"#utility.yul\":16097:16103   */\n      dup4\n        /* \"#utility.yul\":16090:16154   */\n      sstore\n        /* \"#utility.yul\":16012:16168   */\n      pop\n        /* \"#utility.yul\":15989:16168   */\n    tag_283:\n        /* \"#utility.yul\":16214:16215   */\n      0x01\n        /* \"#utility.yul\":16210:16211   */\n      0x02\n        /* \"#utility.yul\":16202:16208   */\n      dup9\n        /* \"#utility.yul\":16198:16212   */\n      mul\n        /* \"#utility.yul\":16194:16216   */\n      add\n        /* \"#utility.yul\":16188:16192   */\n      dup9\n        /* \"#utility.yul\":16181:16217   */\n      sstore\n        /* \"#utility.yul\":15616:16227   */\n      pop\n      pop\n      pop\n        /* \"#utility.yul\":15579:16466   */\n    tag_275:\n      pop\n        /* \"#utility.yul\":15169:16472   */\n      pop\n      pop\n      pop\n        /* \"#utility.yul\":15077:16472   */\n      pop\n      pop\n      jump\t// out\n\n    auxdata: 0xa26469706673582212202399fd91dc61e866e24c3d7d7fe117e809d61d48e9dd0fff6959792f1eedd0fc64736f6c634300081e0033\n}\n",
				"bytecode": {
					"linkReferences": {},
					"object": "6080604052348015600e575f5ffd5b50610d198061001c5f395ff3fe60806040526004361061003e575f3560e01c80637acc0b20146100425780638642269e1461007f578063b15247d91461009b578063c29b2f20146100c3575b5f5ffd5b34801561004d575f5ffd5b50610068600480360381019061006391906104f0565b6100ed565b60405161007692919061059a565b60405180910390f35b610099600480360381019061009491906104f0565b6101a1565b005b3480156100a6575f5ffd5b506100c160048036038101906100bc91906106f4565b610358565b005b3480156100ce575f5ffd5b506100d76103b8565b6040516100e4919061089a565b60405180910390f35b5f81815481106100fb575f80fd5b905f5260205f2090600202015f91509050805f01805461011a906108e7565b80601f0160208091040260200160405190810160405280929190818152602001828054610146906108e7565b80156101915780601f1061016857610100808354040283529160200191610191565b820191905f5260205f20905b81548152906001019060200180831161017457829003601f168201915b5050505050908060010154905082565b5f8054905081106101e7576040517f08c379a00000000000000000000000000000000000000000000000000000000081526004016101de90610961565b60405180910390fd5b5f5f82815481106101fb576101fa61097f565b5b905f5260205f2090600202016040518060400160405290815f82018054610221906108e7565b80601f016020809104026020016040519081016040528092919081815260200182805461024d906108e7565b80156102985780601f1061026f57610100808354040283529160200191610298565b820191905f5260205f20905b81548152906001019060200180831161027b57829003601f168201915b50505050508152602001600182015481525050905080602001513410156102f4576040517f08c379a00000000000000000000000000000000000000000000000000000000081526004016102eb906109f6565b60405180910390fd5b8060200151341115610354573373ffffffffffffffffffffffffffffffffffffffff166108fc82602001513461032a9190610a41565b90811502906040515f60405180830381858888f19350505050158015610352573d5f5f3e3d5ffd5b505b5050565b5f604051806040016040528084815260200183815250908060018154018082558091505060019003905f5260205f2090600202015f909190919091505f820151815f0190816103a79190610c14565b506020820151816001015550505050565b60605f805480602002602001604051908101604052809291908181526020015f905b828210156104a3578382905f5260205f2090600202016040518060400160405290815f8201805461040a906108e7565b80601f0160208091040260200160405190810160405280929190818152602001828054610436906108e7565b80156104815780601f1061045857610100808354040283529160200191610481565b820191905f5260205f20905b81548152906001019060200180831161046457829003601f168201915b50505050508152602001600182015481525050815260200190600101906103da565b50505050905090565b5f604051905090565b5f5ffd5b5f5ffd5b5f819050919050565b6104cf816104bd565b81146104d9575f5ffd5b50565b5f813590506104ea816104c6565b92915050565b5f60208284031215610505576105046104b5565b5b5f610512848285016104dc565b91505092915050565b5f81519050919050565b5f82825260208201905092915050565b8281835e5f83830152505050565b5f601f19601f8301169050919050565b5f61055d8261051b565b6105678185610525565b9350610577818560208601610535565b61058081610543565b840191505092915050565b610594816104bd565b82525050565b5f6040820190508181035f8301526105b28185610553565b90506105c1602083018461058b565b9392505050565b5f5ffd5b5f5ffd5b7f4e487b71000000000000000000000000000000000000000000000000000000005f52604160045260245ffd5b61060682610543565b810181811067ffffffffffffffff82111715610625576106246105d0565b5b80604052505050565b5f6106376104ac565b905061064382826105fd565b919050565b5f67ffffffffffffffff821115610662576106616105d0565b5b61066b82610543565b9050602081019050919050565b828183375f83830152505050565b5f61069861069384610648565b61062e565b9050828152602081018484840111156106b4576106b36105cc565b5b6106bf848285610678565b509392505050565b5f82601f8301126106db576106da6105c8565b5b81356106eb848260208601610686565b91505092915050565b5f5f6040838503121561070a576107096104b5565b5b5f83013567ffffffffffffffff811115610727576107266104b9565b5b610733858286016106c7565b9250506020610744858286016104dc565b9150509250929050565b5f81519050919050565b5f82825260208201905092915050565b5f819050602082019050919050565b5f82825260208201905092915050565b5f6107918261051b565b61079b8185610777565b93506107ab818560208601610535565b6107b481610543565b840191505092915050565b6107c8816104bd565b82525050565b5f604083015f8301518482035f8601526107e88282610787565b91505060208301516107fd60208601826107bf565b508091505092915050565b5f61081383836107ce565b905092915050565b5f602082019050919050565b5f6108318261074e565b61083b8185610758565b93508360208202850161084d85610768565b805f5b8581101561088857848403895281516108698582610808565b94506108748361081b565b925060208a01995050600181019050610850565b50829750879550505050505092915050565b5f6020820190508181035f8301526108b28184610827565b905092915050565b7f4e487b71000000000000000000000000000000000000000000000000000000005f52602260045260245ffd5b5f60028204905060018216806108fe57607f821691505b602082108103610911576109106108ba565b5b50919050565b7f496e76616c69642070726f6475637420696e64657800000000000000000000005f82015250565b5f61094b601583610525565b915061095682610917565b602082019050919050565b5f6020820190508181035f8301526109788161093f565b9050919050565b7f4e487b71000000000000000000000000000000000000000000000000000000005f52603260045260245ffd5b7f4e6f7420656e6f756768204554482073656e74000000000000000000000000005f82015250565b5f6109e0601383610525565b91506109eb826109ac565b602082019050919050565b5f6020820190508181035f830152610a0d816109d4565b9050919050565b7f4e487b71000000000000000000000000000000000000000000000000000000005f52601160045260245ffd5b5f610a4b826104bd565b9150610a56836104bd565b9250828203905081811115610a6e57610a6d610a14565b5b92915050565b5f819050815f5260205f209050919050565b5f6020601f8301049050919050565b5f82821b905092915050565b5f60088302610ad07fffffffffffffffffffffffffffffffffffffffffffffffffffffffffffffffff82610a95565b610ada8683610a95565b95508019841693508086168417925050509392505050565b5f819050919050565b5f610b15610b10610b0b846104bd565b610af2565b6104bd565b9050919050565b5f819050919050565b610b2e83610afb565b610b42610b3a82610b1c565b848454610aa1565b825550505050565b5f5f905090565b610b59610b4a565b610b64818484610b25565b505050565b5b81811015610b8757610b7c5f82610b51565b600181019050610b6a565b5050565b601f821115610bcc57610b9d81610a74565b610ba684610a86565b81016020851015610bb5578190505b610bc9610bc185610a86565b830182610b69565b50505b505050565b5f82821c905092915050565b5f610bec5f1984600802610bd1565b1980831691505092915050565b5f610c048383610bdd565b9150826002028217905092915050565b610c1d8261051b565b67ffffffffffffffff811115610c3657610c356105d0565b5b610c4082546108e7565b610c4b828285610b8b565b5f60209050601f831160018114610c7c575f8415610c6a578287015190505b610c748582610bf9565b865550610cdb565b601f198416610c8a86610a74565b5f5b82811015610cb157848901518255600182019150602085019450602081019050610c8c565b86831015610cce5784890151610cca601f891682610bdd565b8355505b6001600288020188555050505b50505050505056fea26469706673582212202399fd91dc61e866e24c3d7d7fe117e809d61d48e9dd0fff6959792f1eedd0fc64736f6c634300081e0033",
					"opcodes": "PUSH1 0x80 PUSH1 0x40 MSTORE CALLVALUE DUP1 ISZERO PUSH1 0xE JUMPI PUSH0 PUSH0 REVERT JUMPDEST POP PUSH2 0xD19 DUP1 PUSH2 0x1C PUSH0 CODECOPY PUSH0 RETURN INVALID PUSH1 0x80 PUSH1 0x40 MSTORE PUSH1 0x4 CALLDATASIZE LT PUSH2 0x3E JUMPI PUSH0 CALLDATALOAD PUSH1 0xE0 SHR DUP1 PUSH4 0x7ACC0B20 EQ PUSH2 0x42 JUMPI DUP1 PUSH4 0x8642269E EQ PUSH2 0x7F JUMPI DUP1 PUSH4 0xB15247D9 EQ PUSH2 0x9B JUMPI DUP1 PUSH4 0xC29B2F20 EQ PUSH2 0xC3 JUMPI JUMPDEST PUSH0 PUSH0 REVERT JUMPDEST CALLVALUE DUP1 ISZERO PUSH2 0x4D JUMPI PUSH0 PUSH0 REVERT JUMPDEST POP PUSH2 0x68 PUSH1 0x4 DUP1 CALLDATASIZE SUB DUP2 ADD SWAP1 PUSH2 0x63 SWAP2 SWAP1 PUSH2 0x4F0 JUMP JUMPDEST PUSH2 0xED JUMP JUMPDEST PUSH1 0x40 MLOAD PUSH2 0x76 SWAP3 SWAP2 SWAP1 PUSH2 0x59A JUMP JUMPDEST PUSH1 0x40 MLOAD DUP1 SWAP2 SUB SWAP1 RETURN JUMPDEST PUSH2 0x99 PUSH1 0x4 DUP1 CALLDATASIZE SUB DUP2 ADD SWAP1 PUSH2 0x94 SWAP2 SWAP1 PUSH2 0x4F0 JUMP JUMPDEST PUSH2 0x1A1 JUMP JUMPDEST STOP JUMPDEST CALLVALUE DUP1 ISZERO PUSH2 0xA6 JUMPI PUSH0 PUSH0 REVERT JUMPDEST POP PUSH2 0xC1 PUSH1 0x4 DUP1 CALLDATASIZE SUB DUP2 ADD SWAP1 PUSH2 0xBC SWAP2 SWAP1 PUSH2 0x6F4 JUMP JUMPDEST PUSH2 0x358 JUMP JUMPDEST STOP JUMPDEST CALLVALUE DUP1 ISZERO PUSH2 0xCE JUMPI PUSH0 PUSH0 REVERT JUMPDEST POP PUSH2 0xD7 PUSH2 0x3B8 JUMP JUMPDEST PUSH1 0x40 MLOAD PUSH2 0xE4 SWAP2 SWAP1 PUSH2 0x89A JUMP JUMPDEST PUSH1 0x40 MLOAD DUP1 SWAP2 SUB SWAP1 RETURN JUMPDEST PUSH0 DUP2 DUP2 SLOAD DUP2 LT PUSH2 0xFB JUMPI PUSH0 DUP1 REVERT JUMPDEST SWAP1 PUSH0 MSTORE PUSH1 0x20 PUSH0 KECCAK256 SWAP1 PUSH1 0x2 MUL ADD PUSH0 SWAP2 POP SWAP1 POP DUP1 PUSH0 ADD DUP1 SLOAD PUSH2 0x11A SWAP1 PUSH2 0x8E7 JUMP JUMPDEST DUP1 PUSH1 0x1F ADD PUSH1 0x20 DUP1 SWAP2 DIV MUL PUSH1 0x20 ADD PUSH1 0x40 MLOAD SWAP1 DUP2 ADD PUSH1 0x40 MSTORE DUP1 SWAP3 SWAP2 SWAP1 DUP2 DUP2 MSTORE PUSH1 0x20 ADD DUP3 DUP1 SLOAD PUSH2 0x146 SWAP1 PUSH2 0x8E7 JUMP JUMPDEST DUP1 ISZERO PUSH2 0x191 JUMPI DUP1 PUSH1 0x1F LT PUSH2 0x168 JUMPI PUSH2 0x100 DUP1 DUP4 SLOAD DIV MUL DUP4 MSTORE SWAP2 PUSH1 0x20 ADD SWAP2 PUSH2 0x191 JUMP JUMPDEST DUP3 ADD SWAP2 SWAP1 PUSH0 MSTORE PUSH1 0x20 PUSH0 KECCAK256 SWAP1 JUMPDEST DUP2 SLOAD DUP2 MSTORE SWAP1 PUSH1 0x1 ADD SWAP1 PUSH1 0x20 ADD DUP1 DUP4 GT PUSH2 0x174 JUMPI DUP3 SWAP1 SUB PUSH1 0x1F AND DUP3 ADD SWAP2 JUMPDEST POP POP POP POP POP SWAP1 DUP1 PUSH1 0x1 ADD SLOAD SWAP1 POP DUP3 JUMP JUMPDEST PUSH0 DUP1 SLOAD SWAP1 POP DUP2 LT PUSH2 0x1E7 JUMPI PUSH1 0x40 MLOAD PUSH32 0x8C379A000000000000000000000000000000000000000000000000000000000 DUP2 MSTORE PUSH1 0x4 ADD PUSH2 0x1DE SWAP1 PUSH2 0x961 JUMP JUMPDEST PUSH1 0x40 MLOAD DUP1 SWAP2 SUB SWAP1 REVERT JUMPDEST PUSH0 PUSH0 DUP3 DUP2 SLOAD DUP2 LT PUSH2 0x1FB JUMPI PUSH2 0x1FA PUSH2 0x97F JUMP JUMPDEST JUMPDEST SWAP1 PUSH0 MSTORE PUSH1 0x20 PUSH0 KECCAK256 SWAP1 PUSH1 0x2 MUL ADD PUSH1 0x40 MLOAD DUP1 PUSH1 0x40 ADD PUSH1 0x40 MSTORE SWAP1 DUP2 PUSH0 DUP3 ADD DUP1 SLOAD PUSH2 0x221 SWAP1 PUSH2 0x8E7 JUMP JUMPDEST DUP1 PUSH1 0x1F ADD PUSH1 0x20 DUP1 SWAP2 DIV MUL PUSH1 0x20 ADD PUSH1 0x40 MLOAD SWAP1 DUP2 ADD PUSH1 0x40 MSTORE DUP1 SWAP3 SWAP2 SWAP1 DUP2 DUP2 MSTORE PUSH1 0x20 ADD DUP3 DUP1 SLOAD PUSH2 0x24D SWAP1 PUSH2 0x8E7 JUMP JUMPDEST DUP1 ISZERO PUSH2 0x298 JUMPI DUP1 PUSH1 0x1F LT PUSH2 0x26F JUMPI PUSH2 0x100 DUP1 DUP4 SLOAD DIV MUL DUP4 MSTORE SWAP2 PUSH1 0x20 ADD SWAP2 PUSH2 0x298 JUMP JUMPDEST DUP3 ADD SWAP2 SWAP1 PUSH0 MSTORE PUSH1 0x20 PUSH0 KECCAK256 SWAP1 JUMPDEST DUP2 SLOAD DUP2 MSTORE SWAP1 PUSH1 0x1 ADD SWAP1 PUSH1 0x20 ADD DUP1 DUP4 GT PUSH2 0x27B JUMPI DUP3 SWAP1 SUB PUSH1 0x1F AND DUP3 ADD SWAP2 JUMPDEST POP POP POP POP POP DUP2 MSTORE PUSH1 0x20 ADD PUSH1 0x1 DUP3 ADD SLOAD DUP2 MSTORE POP POP SWAP1 POP DUP1 PUSH1 0x20 ADD MLOAD CALLVALUE LT ISZERO PUSH2 0x2F4 JUMPI PUSH1 0x40 MLOAD PUSH32 0x8C379A000000000000000000000000000000000000000000000000000000000 DUP2 MSTORE PUSH1 0x4 ADD PUSH2 0x2EB SWAP1 PUSH2 0x9F6 JUMP JUMPDEST PUSH1 0x40 MLOAD DUP1 SWAP2 SUB SWAP1 REVERT JUMPDEST DUP1 PUSH1 0x20 ADD MLOAD CALLVALUE GT ISZERO PUSH2 0x354 JUMPI CALLER PUSH20 0xFFFFFFFFFFFFFFFFFFFFFFFFFFFFFFFFFFFFFFFF AND PUSH2 0x8FC DUP3 PUSH1 0x20 ADD MLOAD CALLVALUE PUSH2 0x32A SWAP2 SWAP1 PUSH2 0xA41 JUMP JUMPDEST SWAP1 DUP2 ISZERO MUL SWAP1 PUSH1 0x40 MLOAD PUSH0 PUSH1 0x40 MLOAD DUP1 DUP4 SUB DUP2 DUP6 DUP9 DUP9 CALL SWAP4 POP POP POP POP ISZERO DUP1 ISZERO PUSH2 0x352 JUMPI RETURNDATASIZE PUSH0 PUSH0 RETURNDATACOPY RETURNDATASIZE PUSH0 REVERT JUMPDEST POP JUMPDEST POP POP JUMP JUMPDEST PUSH0 PUSH1 0x40 MLOAD DUP1 PUSH1 0x40 ADD PUSH1 0x40 MSTORE DUP1 DUP5 DUP2 MSTORE PUSH1 0x20 ADD DUP4 DUP2 MSTORE POP SWAP1 DUP1 PUSH1 0x1 DUP2 SLOAD ADD DUP1 DUP3 SSTORE DUP1 SWAP2 POP POP PUSH1 0x1 SWAP1 SUB SWAP1 PUSH0 MSTORE PUSH1 0x20 PUSH0 KECCAK256 SWAP1 PUSH1 0x2 MUL ADD PUSH0 SWAP1 SWAP2 SWAP1 SWAP2 SWAP1 SWAP2 POP PUSH0 DUP3 ADD MLOAD DUP2 PUSH0 ADD SWAP1 DUP2 PUSH2 0x3A7 SWAP2 SWAP1 PUSH2 0xC14 JUMP JUMPDEST POP PUSH1 0x20 DUP3 ADD MLOAD DUP2 PUSH1 0x1 ADD SSTORE POP POP POP POP JUMP JUMPDEST PUSH1 0x60 PUSH0 DUP1 SLOAD DUP1 PUSH1 0x20 MUL PUSH1 0x20 ADD PUSH1 0x40 MLOAD SWAP1 DUP2 ADD PUSH1 0x40 MSTORE DUP1 SWAP3 SWAP2 SWAP1 DUP2 DUP2 MSTORE PUSH1 0x20 ADD PUSH0 SWAP1 JUMPDEST DUP3 DUP3 LT ISZERO PUSH2 0x4A3 JUMPI DUP4 DUP3 SWAP1 PUSH0 MSTORE PUSH1 0x20 PUSH0 KECCAK256 SWAP1 PUSH1 0x2 MUL ADD PUSH1 0x40 MLOAD DUP1 PUSH1 0x40 ADD PUSH1 0x40 MSTORE SWAP1 DUP2 PUSH0 DUP3 ADD DUP1 SLOAD PUSH2 0x40A SWAP1 PUSH2 0x8E7 JUMP JUMPDEST DUP1 PUSH1 0x1F ADD PUSH1 0x20 DUP1 SWAP2 DIV MUL PUSH1 0x20 ADD PUSH1 0x40 MLOAD SWAP1 DUP2 ADD PUSH1 0x40 MSTORE DUP1 SWAP3 SWAP2 SWAP1 DUP2 DUP2 MSTORE PUSH1 0x20 ADD DUP3 DUP1 SLOAD PUSH2 0x436 SWAP1 PUSH2 0x8E7 JUMP JUMPDEST DUP1 ISZERO PUSH2 0x481 JUMPI DUP1 PUSH1 0x1F LT PUSH2 0x458 JUMPI PUSH2 0x100 DUP1 DUP4 SLOAD DIV MUL DUP4 MSTORE SWAP2 PUSH1 0x20 ADD SWAP2 PUSH2 0x481 JUMP JUMPDEST DUP3 ADD SWAP2 SWAP1 PUSH0 MSTORE PUSH1 0x20 PUSH0 KECCAK256 SWAP1 JUMPDEST DUP2 SLOAD DUP2 MSTORE SWAP1 PUSH1 0x1 ADD SWAP1 PUSH1 0x20 ADD DUP1 DUP4 GT PUSH2 0x464 JUMPI DUP3 SWAP1 SUB PUSH1 0x1F AND DUP3 ADD SWAP2 JUMPDEST POP POP POP POP POP DUP2 MSTORE PUSH1 0x20 ADD PUSH1 0x1 DUP3 ADD SLOAD DUP2 MSTORE POP POP DUP2 MSTORE PUSH1 0x20 ADD SWAP1 PUSH1 0x1 ADD SWAP1 PUSH2 0x3DA JUMP JUMPDEST POP POP POP POP SWAP1 POP SWAP1 JUMP JUMPDEST PUSH0 PUSH1 0x40 MLOAD SWAP1 POP SWAP1 JUMP JUMPDEST PUSH0 PUSH0 REVERT JUMPDEST PUSH0 PUSH0 REVERT JUMPDEST PUSH0 DUP2 SWAP1 POP SWAP2 SWAP1 POP JUMP JUMPDEST PUSH2 0x4CF DUP2 PUSH2 0x4BD JUMP JUMPDEST DUP2 EQ PUSH2 0x4D9 JUMPI PUSH0 PUSH0 REVERT JUMPDEST POP JUMP JUMPDEST PUSH0 DUP2 CALLDATALOAD SWAP1 POP PUSH2 0x4EA DUP2 PUSH2 0x4C6 JUMP JUMPDEST SWAP3 SWAP2 POP POP JUMP JUMPDEST PUSH0 PUSH1 0x20 DUP3 DUP5 SUB SLT ISZERO PUSH2 0x505 JUMPI PUSH2 0x504 PUSH2 0x4B5 JUMP JUMPDEST JUMPDEST PUSH0 PUSH2 0x512 DUP5 DUP3 DUP6 ADD PUSH2 0x4DC JUMP JUMPDEST SWAP2 POP POP SWAP3 SWAP2 POP POP JUMP JUMPDEST PUSH0 DUP2 MLOAD SWAP1 POP SWAP2 SWAP1 POP JUMP JUMPDEST PUSH0 DUP3 DUP3 MSTORE PUSH1 0x20 DUP3 ADD SWAP1 POP SWAP3 SWAP2 POP POP JUMP JUMPDEST DUP3 DUP2 DUP4 MCOPY PUSH0 DUP4 DUP4 ADD MSTORE POP POP POP JUMP JUMPDEST PUSH0 PUSH1 0x1F NOT PUSH1 0x1F DUP4 ADD AND SWAP1 POP SWAP2 SWAP1 POP JUMP JUMPDEST PUSH0 PUSH2 0x55D DUP3 PUSH2 0x51B JUMP JUMPDEST PUSH2 0x567 DUP2 DUP6 PUSH2 0x525 JUMP JUMPDEST SWAP4 POP PUSH2 0x577 DUP2 DUP6 PUSH1 0x20 DUP7 ADD PUSH2 0x535 JUMP JUMPDEST PUSH2 0x580 DUP2 PUSH2 0x543 JUMP JUMPDEST DUP5 ADD SWAP2 POP POP SWAP3 SWAP2 POP POP JUMP JUMPDEST PUSH2 0x594 DUP2 PUSH2 0x4BD JUMP JUMPDEST DUP3 MSTORE POP POP JUMP JUMPDEST PUSH0 PUSH1 0x40 DUP3 ADD SWAP1 POP DUP2 DUP2 SUB PUSH0 DUP4 ADD MSTORE PUSH2 0x5B2 DUP2 DUP6 PUSH2 0x553 JUMP JUMPDEST SWAP1 POP PUSH2 0x5C1 PUSH1 0x20 DUP4 ADD DUP5 PUSH2 0x58B JUMP JUMPDEST SWAP4 SWAP3 POP POP POP JUMP JUMPDEST PUSH0 PUSH0 REVERT JUMPDEST PUSH0 PUSH0 REVERT JUMPDEST PUSH32 0x4E487B7100000000000000000000000000000000000000000000000000000000 PUSH0 MSTORE PUSH1 0x41 PUSH1 0x4 MSTORE PUSH1 0x24 PUSH0 REVERT JUMPDEST PUSH2 0x606 DUP3 PUSH2 0x543 JUMP JUMPDEST DUP2 ADD DUP2 DUP2 LT PUSH8 0xFFFFFFFFFFFFFFFF DUP3 GT OR ISZERO PUSH2 0x625 JUMPI PUSH2 0x624 PUSH2 0x5D0 JUMP JUMPDEST JUMPDEST DUP1 PUSH1 0x40 MSTORE POP POP POP JUMP JUMPDEST PUSH0 PUSH2 0x637 PUSH2 0x4AC JUMP JUMPDEST SWAP1 POP PUSH2 0x643 DUP3 DUP3 PUSH2 0x5FD JUMP JUMPDEST SWAP2 SWAP1 POP JUMP JUMPDEST PUSH0 PUSH8 0xFFFFFFFFFFFFFFFF DUP3 GT ISZERO PUSH2 0x662 JUMPI PUSH2 0x661 PUSH2 0x5D0 JUMP JUMPDEST JUMPDEST PUSH2 0x66B DUP3 PUSH2 0x543 JUMP JUMPDEST SWAP1 POP PUSH1 0x20 DUP2 ADD SWAP1 POP SWAP2 SWAP1 POP JUMP JUMPDEST DUP3 DUP2 DUP4 CALLDATACOPY PUSH0 DUP4 DUP4 ADD MSTORE POP POP POP JUMP JUMPDEST PUSH0 PUSH2 0x698 PUSH2 0x693 DUP5 PUSH2 0x648 JUMP JUMPDEST PUSH2 0x62E JUMP JUMPDEST SWAP1 POP DUP3 DUP2 MSTORE PUSH1 0x20 DUP2 ADD DUP5 DUP5 DUP5 ADD GT ISZERO PUSH2 0x6B4 JUMPI PUSH2 0x6B3 PUSH2 0x5CC JUMP JUMPDEST JUMPDEST PUSH2 0x6BF DUP5 DUP3 DUP6 PUSH2 0x678 JUMP JUMPDEST POP SWAP4 SWAP3 POP POP POP JUMP JUMPDEST PUSH0 DUP3 PUSH1 0x1F DUP4 ADD SLT PUSH2 0x6DB JUMPI PUSH2 0x6DA PUSH2 0x5C8 JUMP JUMPDEST JUMPDEST DUP2 CALLDATALOAD PUSH2 0x6EB DUP5 DUP3 PUSH1 0x20 DUP7 ADD PUSH2 0x686 JUMP JUMPDEST SWAP2 POP POP SWAP3 SWAP2 POP POP JUMP JUMPDEST PUSH0 PUSH0 PUSH1 0x40 DUP4 DUP6 SUB SLT ISZERO PUSH2 0x70A JUMPI PUSH2 0x709 PUSH2 0x4B5 JUMP JUMPDEST JUMPDEST PUSH0 DUP4 ADD CALLDATALOAD PUSH8 0xFFFFFFFFFFFFFFFF DUP2 GT ISZERO PUSH2 0x727 JUMPI PUSH2 0x726 PUSH2 0x4B9 JUMP JUMPDEST JUMPDEST PUSH2 0x733 DUP6 DUP3 DUP7 ADD PUSH2 0x6C7 JUMP JUMPDEST SWAP3 POP POP PUSH1 0x20 PUSH2 0x744 DUP6 DUP3 DUP7 ADD PUSH2 0x4DC JUMP JUMPDEST SWAP2 POP POP SWAP3 POP SWAP3 SWAP1 POP JUMP JUMPDEST PUSH0 DUP2 MLOAD SWAP1 POP SWAP2 SWAP1 POP JUMP JUMPDEST PUSH0 DUP3 DUP3 MSTORE PUSH1 0x20 DUP3 ADD SWAP1 POP SWAP3 SWAP2 POP POP JUMP JUMPDEST PUSH0 DUP2 SWAP1 POP PUSH1 0x20 DUP3 ADD SWAP1 POP SWAP2 SWAP1 POP JUMP JUMPDEST PUSH0 DUP3 DUP3 MSTORE PUSH1 0x20 DUP3 ADD SWAP1 POP SWAP3 SWAP2 POP POP JUMP JUMPDEST PUSH0 PUSH2 0x791 DUP3 PUSH2 0x51B JUMP JUMPDEST PUSH2 0x79B DUP2 DUP6 PUSH2 0x777 JUMP JUMPDEST SWAP4 POP PUSH2 0x7AB DUP2 DUP6 PUSH1 0x20 DUP7 ADD PUSH2 0x535 JUMP JUMPDEST PUSH2 0x7B4 DUP2 PUSH2 0x543 JUMP JUMPDEST DUP5 ADD SWAP2 POP POP SWAP3 SWAP2 POP POP JUMP JUMPDEST PUSH2 0x7C8 DUP2 PUSH2 0x4BD JUMP JUMPDEST DUP3 MSTORE POP POP JUMP JUMPDEST PUSH0 PUSH1 0x40 DUP4 ADD PUSH0 DUP4 ADD MLOAD DUP5 DUP3 SUB PUSH0 DUP7 ADD MSTORE PUSH2 0x7E8 DUP3 DUP3 PUSH2 0x787 JUMP JUMPDEST SWAP2 POP POP PUSH1 0x20 DUP4 ADD MLOAD PUSH2 0x7FD PUSH1 0x20 DUP7 ADD DUP3 PUSH2 0x7BF JUMP JUMPDEST POP DUP1 SWAP2 POP POP SWAP3 SWAP2 POP POP JUMP JUMPDEST PUSH0 PUSH2 0x813 DUP4 DUP4 PUSH2 0x7CE JUMP JUMPDEST SWAP1 POP SWAP3 SWAP2 POP POP JUMP JUMPDEST PUSH0 PUSH1 0x20 DUP3 ADD SWAP1 POP SWAP2 SWAP1 POP JUMP JUMPDEST PUSH0 PUSH2 0x831 DUP3 PUSH2 0x74E JUMP JUMPDEST PUSH2 0x83B DUP2 DUP6 PUSH2 0x758 JUMP JUMPDEST SWAP4 POP DUP4 PUSH1 0x20 DUP3 MUL DUP6 ADD PUSH2 0x84D DUP6 PUSH2 0x768 JUMP JUMPDEST DUP1 PUSH0 JUMPDEST DUP6 DUP2 LT ISZERO PUSH2 0x888 JUMPI DUP5 DUP5 SUB DUP10 MSTORE DUP2 MLOAD PUSH2 0x869 DUP6 DUP3 PUSH2 0x808 JUMP JUMPDEST SWAP5 POP PUSH2 0x874 DUP4 PUSH2 0x81B JUMP JUMPDEST SWAP3 POP PUSH1 0x20 DUP11 ADD SWAP10 POP POP PUSH1 0x1 DUP2 ADD SWAP1 POP PUSH2 0x850 JUMP JUMPDEST POP DUP3 SWAP8 POP DUP8 SWAP6 POP POP POP POP POP POP SWAP3 SWAP2 POP POP JUMP JUMPDEST PUSH0 PUSH1 0x20 DUP3 ADD SWAP1 POP DUP2 DUP2 SUB PUSH0 DUP4 ADD MSTORE PUSH2 0x8B2 DUP2 DUP5 PUSH2 0x827 JUMP JUMPDEST SWAP1 POP SWAP3 SWAP2 POP POP JUMP JUMPDEST PUSH32 0x4E487B7100000000000000000000000000000000000000000000000000000000 PUSH0 MSTORE PUSH1 0x22 PUSH1 0x4 MSTORE PUSH1 0x24 PUSH0 REVERT JUMPDEST PUSH0 PUSH1 0x2 DUP3 DIV SWAP1 POP PUSH1 0x1 DUP3 AND DUP1 PUSH2 0x8FE JUMPI PUSH1 0x7F DUP3 AND SWAP2 POP JUMPDEST PUSH1 0x20 DUP3 LT DUP2 SUB PUSH2 0x911 JUMPI PUSH2 0x910 PUSH2 0x8BA JUMP JUMPDEST JUMPDEST POP SWAP2 SWAP1 POP JUMP JUMPDEST PUSH32 0x496E76616C69642070726F6475637420696E6465780000000000000000000000 PUSH0 DUP3 ADD MSTORE POP JUMP JUMPDEST PUSH0 PUSH2 0x94B PUSH1 0x15 DUP4 PUSH2 0x525 JUMP JUMPDEST SWAP2 POP PUSH2 0x956 DUP3 PUSH2 0x917 JUMP JUMPDEST PUSH1 0x20 DUP3 ADD SWAP1 POP SWAP2 SWAP1 POP JUMP JUMPDEST PUSH0 PUSH1 0x20 DUP3 ADD SWAP1 POP DUP2 DUP2 SUB PUSH0 DUP4 ADD MSTORE PUSH2 0x978 DUP2 PUSH2 0x93F JUMP JUMPDEST SWAP1 POP SWAP2 SWAP1 POP JUMP JUMPDEST PUSH32 0x4E487B7100000000000000000000000000000000000000000000000000000000 PUSH0 MSTORE PUSH1 0x32 PUSH1 0x4 MSTORE PUSH1 0x24 PUSH0 REVERT JUMPDEST PUSH32 0x4E6F7420656E6F756768204554482073656E7400000000000000000000000000 PUSH0 DUP3 ADD MSTORE POP JUMP JUMPDEST PUSH0 PUSH2 0x9E0 PUSH1 0x13 DUP4 PUSH2 0x525 JUMP JUMPDEST SWAP2 POP PUSH2 0x9EB DUP3 PUSH2 0x9AC JUMP JUMPDEST PUSH1 0x20 DUP3 ADD SWAP1 POP SWAP2 SWAP1 POP JUMP JUMPDEST PUSH0 PUSH1 0x20 DUP3 ADD SWAP1 POP DUP2 DUP2 SUB PUSH0 DUP4 ADD MSTORE PUSH2 0xA0D DUP2 PUSH2 0x9D4 JUMP JUMPDEST SWAP1 POP SWAP2 SWAP1 POP JUMP JUMPDEST PUSH32 0x4E487B7100000000000000000000000000000000000000000000000000000000 PUSH0 MSTORE PUSH1 0x11 PUSH1 0x4 MSTORE PUSH1 0x24 PUSH0 REVERT JUMPDEST PUSH0 PUSH2 0xA4B DUP3 PUSH2 0x4BD JUMP JUMPDEST SWAP2 POP PUSH2 0xA56 DUP4 PUSH2 0x4BD JUMP JUMPDEST SWAP3 POP DUP3 DUP3 SUB SWAP1 POP DUP2 DUP2 GT ISZERO PUSH2 0xA6E JUMPI PUSH2 0xA6D PUSH2 0xA14 JUMP JUMPDEST JUMPDEST SWAP3 SWAP2 POP POP JUMP JUMPDEST PUSH0 DUP2 SWAP1 POP DUP2 PUSH0 MSTORE PUSH1 0x20 PUSH0 KECCAK256 SWAP1 POP SWAP2 SWAP1 POP JUMP JUMPDEST PUSH0 PUSH1 0x20 PUSH1 0x1F DUP4 ADD DIV SWAP1 POP SWAP2 SWAP1 POP JUMP JUMPDEST PUSH0 DUP3 DUP3 SHL SWAP1 POP SWAP3 SWAP2 POP POP JUMP JUMPDEST PUSH0 PUSH1 0x8 DUP4 MUL PUSH2 0xAD0 PUSH32 0xFFFFFFFFFFFFFFFFFFFFFFFFFFFFFFFFFFFFFFFFFFFFFFFFFFFFFFFFFFFFFFFF DUP3 PUSH2 0xA95 JUMP JUMPDEST PUSH2 0xADA DUP7 DUP4 PUSH2 0xA95 JUMP JUMPDEST SWAP6 POP DUP1 NOT DUP5 AND SWAP4 POP DUP1 DUP7 AND DUP5 OR SWAP3 POP POP POP SWAP4 SWAP3 POP POP POP JUMP JUMPDEST PUSH0 DUP2 SWAP1 POP SWAP2 SWAP1 POP JUMP JUMPDEST PUSH0 PUSH2 0xB15 PUSH2 0xB10 PUSH2 0xB0B DUP5 PUSH2 0x4BD JUMP JUMPDEST PUSH2 0xAF2 JUMP JUMPDEST PUSH2 0x4BD JUMP JUMPDEST SWAP1 POP SWAP2 SWAP1 POP JUMP JUMPDEST PUSH0 DUP2 SWAP1 POP SWAP2 SWAP1 POP JUMP JUMPDEST PUSH2 0xB2E DUP4 PUSH2 0xAFB JUMP JUMPDEST PUSH2 0xB42 PUSH2 0xB3A DUP3 PUSH2 0xB1C JUMP JUMPDEST DUP5 DUP5 SLOAD PUSH2 0xAA1 JUMP JUMPDEST DUP3 SSTORE POP POP POP POP JUMP JUMPDEST PUSH0 PUSH0 SWAP1 POP SWAP1 JUMP JUMPDEST PUSH2 0xB59 PUSH2 0xB4A JUMP JUMPDEST PUSH2 0xB64 DUP2 DUP5 DUP5 PUSH2 0xB25 JUMP JUMPDEST POP POP POP JUMP JUMPDEST JUMPDEST DUP2 DUP2 LT ISZERO PUSH2 0xB87 JUMPI PUSH2 0xB7C PUSH0 DUP3 PUSH2 0xB51 JUMP JUMPDEST PUSH1 0x1 DUP2 ADD SWAP1 POP PUSH2 0xB6A JUMP JUMPDEST POP POP JUMP JUMPDEST PUSH1 0x1F DUP3 GT ISZERO PUSH2 0xBCC JUMPI PUSH2 0xB9D DUP2 PUSH2 0xA74 JUMP JUMPDEST PUSH2 0xBA6 DUP5 PUSH2 0xA86 JUMP JUMPDEST DUP2 ADD PUSH1 0x20 DUP6 LT ISZERO PUSH2 0xBB5 JUMPI DUP2 SWAP1 POP JUMPDEST PUSH2 0xBC9 PUSH2 0xBC1 DUP6 PUSH2 0xA86 JUMP JUMPDEST DUP4 ADD DUP3 PUSH2 0xB69 JUMP JUMPDEST POP POP JUMPDEST POP POP POP JUMP JUMPDEST PUSH0 DUP3 DUP3 SHR SWAP1 POP SWAP3 SWAP2 POP POP JUMP JUMPDEST PUSH0 PUSH2 0xBEC PUSH0 NOT DUP5 PUSH1 0x8 MUL PUSH2 0xBD1 JUMP JUMPDEST NOT DUP1 DUP4 AND SWAP2 POP POP SWAP3 SWAP2 POP POP JUMP JUMPDEST PUSH0 PUSH2 0xC04 DUP4 DUP4 PUSH2 0xBDD JUMP JUMPDEST SWAP2 POP DUP3 PUSH1 0x2 MUL DUP3 OR SWAP1 POP SWAP3 SWAP2 POP POP JUMP JUMPDEST PUSH2 0xC1D DUP3 PUSH2 0x51B JUMP JUMPDEST PUSH8 0xFFFFFFFFFFFFFFFF DUP2 GT ISZERO PUSH2 0xC36 JUMPI PUSH2 0xC35 PUSH2 0x5D0 JUMP JUMPDEST JUMPDEST PUSH2 0xC40 DUP3 SLOAD PUSH2 0x8E7 JUMP JUMPDEST PUSH2 0xC4B DUP3 DUP3 DUP6 PUSH2 0xB8B JUMP JUMPDEST PUSH0 PUSH1 0x20 SWAP1 POP PUSH1 0x1F DUP4 GT PUSH1 0x1 DUP2 EQ PUSH2 0xC7C JUMPI PUSH0 DUP5 ISZERO PUSH2 0xC6A JUMPI DUP3 DUP8 ADD MLOAD SWAP1 POP JUMPDEST PUSH2 0xC74 DUP6 DUP3 PUSH2 0xBF9 JUMP JUMPDEST DUP7 SSTORE POP PUSH2 0xCDB JUMP JUMPDEST PUSH1 0x1F NOT DUP5 AND PUSH2 0xC8A DUP7 PUSH2 0xA74 JUMP JUMPDEST PUSH0 JUMPDEST DUP3 DUP2 LT ISZERO PUSH2 0xCB1 JUMPI DUP5 DUP10 ADD MLOAD DUP3 SSTORE PUSH1 0x1 DUP3 ADD SWAP2 POP PUSH1 0x20 DUP6 ADD SWAP5 POP PUSH1 0x20 DUP2 ADD SWAP1 POP PUSH2 0xC8C JUMP JUMPDEST DUP7 DUP4 LT ISZERO PUSH2 0xCCE JUMPI DUP5 DUP10 ADD MLOAD PUSH2 0xCCA PUSH1 0x1F DUP10 AND DUP3 PUSH2 0xBDD JUMP JUMPDEST DUP4 SSTORE POP JUMPDEST PUSH1 0x1 PUSH1 0x2 DUP9 MUL ADD DUP9 SSTORE POP POP POP JUMPDEST POP POP POP POP POP POP JUMP INVALID LOG2 PUSH5 0x6970667358 0x22 SLT KECCAK256 0x23 SWAP10 REVERT SWAP2 0xDC PUSH2 0xE866 0xE2 0x4C RETURNDATASIZE PUSH30 0x7FE117E809D61D48E9DD0FFF6959792F1EEDD0FC64736F6C634300081E00 CALLER "
				},
				"gasEstimates": {
					"creation": {
						"codeDepositCost": "670600",
						"executionCost": "700",
						"totalCost": "671300"
					},
					"external": {
						"addProduct(string,uint256)": "infinite",
						"buyProduct(uint256)": "infinite",
						"getProducts()": "infinite",
						"products(uint256)": "infinite"
					}
				},
				"methodIdentifiers": {
					"addProduct(string,uint256)": "b15247d9",
					"buyProduct(uint256)": "8642269e",
					"getProducts()": "c29b2f20",
					"products(uint256)": "7acc0b20"
				}
			},
			"storageLayout": {
				"storage": [
					{
						"astId": 10,
						"contract": "contracts/ProductStore.sol:ProductStore",
						"label": "products",
						"offset": 0,
						"slot": "0",
						"type": "t_array(t_struct(Product)6_storage)dyn_storage"
					}
				],
				"types": {
					"t_array(t_struct(Product)6_storage)dyn_storage": {
						"base": "t_struct(Product)6_storage",
						"encoding": "dynamic_array",
						"label": "struct ProductStore.Product[]",
						"numberOfBytes": "32"
					},
					"t_string_storage": {
						"encoding": "bytes",
						"label": "string",
						"numberOfBytes": "32"
					},
					"t_struct(Product)6_storage": {
						"encoding": "inplace",
						"label": "struct ProductStore.Product",
						"members": [
							{
								"astId": 3,
								"contract": "contracts/ProductStore.sol:ProductStore",
								"label": "name",
								"offset": 0,
								"slot": "0",
								"type": "t_string_storage"
							},
							{
								"astId": 5,
								"contract": "contracts/ProductStore.sol:ProductStore",
								"label": "price",
								"offset": 0,
								"slot": "1",
								"type": "t_uint256"
							}
						],
						"numberOfBytes": "64"
					},
					"t_uint256": {
						"encoding": "inplace",
						"label": "uint256",
						"numberOfBytes": "32"
					}
				}
			},
			"userdoc": {
				"kind": "user",
				"methods": {},
				"version": 1
			}
		}
	}
}